{
  "contracts/DINManager.sol": {
    "DINManager": {
      "abi": [
        {
          "inputs": [],
          "name": "MAX_SCORE",
          "outputs": [
            {
              "internalType": "uint256",
              "name": "",
              "type": "uint256"
            }
          ],
          "stateMutability": "view",
          "type": "function"
        },
        {
          "inputs": [
            {
              "internalType": "uint256",
              "name": "_projectId",
              "type": "uint256"
            },
            {
              "internalType": "address[]",
              "name": "_contributors",
              "type": "address[]"
            }
          ],
          "name": "addContributors",
          "outputs": [],
          "stateMutability": "nonpayable",
          "type": "function"
        },
        {
          "inputs": [
            {
              "internalType": "uint256",
              "name": "_projectId",
              "type": "uint256"
            },
            {
              "internalType": "address[]",
              "name": "_validators",
              "type": "address[]"
            }
          ],
          "name": "addValidators",
          "outputs": [],
          "stateMutability": "nonpayable",
          "type": "function"
        },
        {
          "inputs": [
            {
              "internalType": "uint256",
              "name": "_projectId",
              "type": "uint256"
            }
          ],
          "name": "collectContributorReward",
          "outputs": [],
          "stateMutability": "nonpayable",
          "type": "function"
        },
        {
          "inputs": [
            {
              "internalType": "uint256",
              "name": "_projectId",
              "type": "uint256"
            }
          ],
          "name": "collectValidatorReward",
          "outputs": [],
          "stateMutability": "nonpayable",
          "type": "function"
        },
        {
          "inputs": [
            {
              "internalType": "uint256",
              "name": "_projectId",
              "type": "uint256"
            },
            {
              "internalType": "address",
              "name": "_contributor",
              "type": "address"
            }
          ],
          "name": "collectedContributorReward",
          "outputs": [
            {
              "internalType": "bool",
              "name": "",
              "type": "bool"
            }
          ],
          "stateMutability": "view",
          "type": "function"
        },
        {
          "inputs": [
            {
              "internalType": "uint256",
              "name": "_projectId",
              "type": "uint256"
            },
            {
              "internalType": "address",
              "name": "_validator",
              "type": "address"
            }
          ],
          "name": "collectedValidatorReward",
          "outputs": [
            {
              "internalType": "bool",
              "name": "",
              "type": "bool"
            }
          ],
          "stateMutability": "view",
          "type": "function"
        },
        {
          "inputs": [
            {
              "internalType": "uint256",
              "name": "_projectId",
              "type": "uint256"
            },
            {
              "internalType": "address[]",
              "name": "_contributors",
              "type": "address[]"
            },
            {
              "internalType": "bytes32[]",
              "name": "_commitments",
              "type": "bytes32[]"
            }
          ],
          "name": "commitValidations",
          "outputs": [],
          "stateMutability": "nonpayable",
          "type": "function"
        },
        {
          "inputs": [
            {
              "internalType": "uint256",
              "name": "_projectId",
              "type": "uint256"
            },
            {
              "internalType": "address",
              "name": "_contributor",
              "type": "address"
            }
          ],
          "name": "contributorNumScores",
          "outputs": [
            {
              "internalType": "uint256",
              "name": "",
              "type": "uint256"
            }
          ],
          "stateMutability": "view",
          "type": "function"
        },
        {
          "inputs": [
            {
              "internalType": "uint256",
              "name": "_projectId",
              "type": "uint256"
            },
            {
              "internalType": "address",
              "name": "_contributor",
              "type": "address"
            }
          ],
          "name": "contributorTotalScore",
          "outputs": [
            {
              "internalType": "uint256",
              "name": "",
              "type": "uint256"
            }
          ],
          "stateMutability": "view",
          "type": "function"
        },
        {
          "inputs": [
            {
              "internalType": "string",
              "name": "_name",
              "type": "string"
            }
          ],
          "name": "createProject",
          "outputs": [],
          "stateMutability": "nonpayable",
          "type": "function"
        },
        {
          "inputs": [
            {
              "internalType": "uint256",
              "name": "_projectId",
              "type": "uint256"
            },
            {
              "internalType": "uint256",
              "name": "_index",
              "type": "uint256"
            }
          ],
          "name": "getContributor",
          "outputs": [
            {
              "internalType": "address",
              "name": "",
              "type": "address"
            }
          ],
          "stateMutability": "view",
          "type": "function"
        },
        {
          "inputs": [
            {
              "internalType": "address",
              "name": "_owner",
              "type": "address"
            }
          ],
          "name": "getProjectsByOwner",
          "outputs": [
            {
              "internalType": "uint256[]",
              "name": "",
              "type": "uint256[]"
            }
          ],
          "stateMutability": "view",
          "type": "function"
        },
        {
          "inputs": [
            {
              "internalType": "uint256",
              "name": "_projectId",
              "type": "uint256"
            },
            {
              "internalType": "uint256",
              "name": "_index",
              "type": "uint256"
            }
          ],
          "name": "getValidator",
          "outputs": [
            {
              "internalType": "address",
              "name": "",
              "type": "address"
            }
          ],
          "stateMutability": "view",
          "type": "function"
        },
        {
          "inputs": [
            {
              "internalType": "uint256",
              "name": "_projectId",
              "type": "uint256"
            },
            {
              "internalType": "address",
              "name": "_address",
              "type": "address"
            }
          ],
          "name": "isContributor",
          "outputs": [
            {
              "internalType": "bool",
              "name": "",
              "type": "bool"
            }
          ],
          "stateMutability": "view",
          "type": "function"
        },
        {
          "inputs": [
            {
              "internalType": "uint256",
              "name": "_projectId",
              "type": "uint256"
            },
            {
              "internalType": "address",
              "name": "_address",
              "type": "address"
            }
          ],
          "name": "isValidator",
          "outputs": [
            {
              "internalType": "bool",
              "name": "",
              "type": "bool"
            }
          ],
          "stateMutability": "view",
          "type": "function"
        },
        {
          "inputs": [
            {
              "internalType": "uint256",
              "name": "_projectId",
              "type": "uint256"
            },
            {
              "internalType": "address",
              "name": "_validator",
              "type": "address"
            }
          ],
          "name": "numSuccessfulValidations",
          "outputs": [
            {
              "internalType": "uint256",
              "name": "",
              "type": "uint256"
            }
          ],
          "stateMutability": "view",
          "type": "function"
        },
        {
          "inputs": [],
          "name": "projectCount",
          "outputs": [
            {
              "internalType": "uint256",
              "name": "",
              "type": "uint256"
            }
          ],
          "stateMutability": "view",
          "type": "function"
        },
        {
          "inputs": [
            {
              "internalType": "uint256",
              "name": "_projectId",
              "type": "uint256"
            }
          ],
          "name": "projectInfo",
          "outputs": [
            {
              "internalType": "address",
              "name": "owner",
              "type": "address"
            },
            {
              "internalType": "string",
              "name": "name",
              "type": "string"
            },
            {
              "internalType": "bool",
              "name": "active",
              "type": "bool"
            },
            {
              "internalType": "contract IERC20",
              "name": "rewardToken",
              "type": "address"
            },
            {
              "internalType": "uint256",
              "name": "contributorRewardAmount",
              "type": "uint256"
            },
            {
              "internalType": "uint256",
              "name": "validatorRewardAmount",
              "type": "uint256"
            },
            {
              "internalType": "uint256",
              "name": "validationCommitmentDeadline",
              "type": "uint256"
            },
            {
              "internalType": "uint256",
              "name": "validationRevealDeadline",
              "type": "uint256"
            },
            {
              "internalType": "uint256",
              "name": "numContributors",
              "type": "uint256"
            },
            {
              "internalType": "uint256",
              "name": "numValidators",
              "type": "uint256"
            },
            {
              "internalType": "uint256",
              "name": "totalScore",
              "type": "uint256"
            },
            {
              "internalType": "uint256",
              "name": "totalSuccessfulValidations",
              "type": "uint256"
            }
          ],
          "stateMutability": "view",
          "type": "function"
        },
        {
          "inputs": [
            {
              "internalType": "uint256",
              "name": "",
              "type": "uint256"
            }
          ],
          "name": "projects",
          "outputs": [
            {
              "internalType": "bool",
              "name": "active",
              "type": "bool"
            },
            {
              "internalType": "address",
              "name": "owner",
              "type": "address"
            },
            {
              "internalType": "string",
              "name": "name",
              "type": "string"
            },
            {
              "internalType": "contract IERC20",
              "name": "rewardToken",
              "type": "address"
            },
            {
              "internalType": "uint256",
              "name": "contributorRewardAmount",
              "type": "uint256"
            },
            {
              "internalType": "uint256",
              "name": "validatorRewardAmount",
              "type": "uint256"
            },
            {
              "internalType": "uint256",
              "name": "validationCommitmentDeadline",
              "type": "uint256"
            },
            {
              "internalType": "uint256",
              "name": "validationRevealDeadline",
              "type": "uint256"
            },
            {
              "internalType": "uint256",
              "name": "totalScore",
              "type": "uint256"
            },
            {
              "internalType": "uint256",
              "name": "totalSuccessfulValidations",
              "type": "uint256"
            }
          ],
          "stateMutability": "view",
          "type": "function"
        },
        {
          "inputs": [
            {
              "internalType": "uint256",
              "name": "_projectId",
              "type": "uint256"
            },
            {
              "internalType": "address[]",
              "name": "_contributors",
              "type": "address[]"
            },
            {
              "internalType": "bytes32[]",
              "name": "_secrets",
              "type": "bytes32[]"
            },
            {
              "internalType": "uint256[]",
              "name": "_scores",
              "type": "uint256[]"
            }
          ],
          "name": "revealValidations",
          "outputs": [],
          "stateMutability": "nonpayable",
          "type": "function"
        },
        {
          "inputs": [
            {
              "internalType": "uint256",
              "name": "_projectId",
              "type": "uint256"
            },
            {
              "internalType": "address",
              "name": "_validator",
              "type": "address"
            },
            {
              "internalType": "address",
              "name": "_contributor",
              "type": "address"
            }
          ],
          "name": "score",
          "outputs": [
            {
              "internalType": "uint256",
              "name": "",
              "type": "uint256"
            }
          ],
          "stateMutability": "view",
          "type": "function"
        },
        {
          "inputs": [
            {
              "internalType": "uint256",
              "name": "_projectId",
              "type": "uint256"
            },
            {
              "internalType": "contract IERC20",
              "name": "_rewardToken",
              "type": "address"
            },
            {
              "internalType": "uint256",
              "name": "_contributorRewardAmount",
              "type": "uint256"
            },
            {
              "internalType": "uint256",
              "name": "_validationRewardAmount",
              "type": "uint256"
            },
            {
              "internalType": "uint256",
              "name": "_validationCommitmentDeadline",
              "type": "uint256"
            },
            {
              "internalType": "uint256",
              "name": "_validationRevealDeadline",
              "type": "uint256"
            }
          ],
          "name": "startProject",
          "outputs": [],
          "stateMutability": "nonpayable",
          "type": "function"
        },
        {
          "inputs": [
            {
              "internalType": "uint256",
              "name": "_projectId",
              "type": "uint256"
            },
            {
              "internalType": "address",
              "name": "_validator",
              "type": "address"
            },
            {
              "internalType": "address",
              "name": "_contributor",
              "type": "address"
            }
          ],
          "name": "validationCommitment",
          "outputs": [
            {
              "internalType": "bytes32",
              "name": "",
              "type": "bytes32"
            }
          ],
          "stateMutability": "view",
          "type": "function"
        },
        {
          "inputs": [
            {
              "internalType": "uint256",
              "name": "_projectId",
              "type": "uint256"
            },
            {
              "internalType": "address",
              "name": "_validator",
              "type": "address"
            },
            {
              "internalType": "address",
              "name": "_contributor",
              "type": "address"
            }
          ],
          "name": "validationRevealed",
          "outputs": [
            {
              "internalType": "bool",
              "name": "",
              "type": "bool"
            }
          ],
          "stateMutability": "view",
          "type": "function"
        }
      ],
      "evm": {
        "bytecode": {
          "linkReferences": {},
          "object": "6080604052348015600f57600080fd5b50614cd58061001f6000396000f3fe608060405234801561001057600080fd5b50600436106101735760003560e01c80638cdc341e116100de5780639eda7d2311610097578063ce14f79f11610071578063ce14f79f146104cc578063e18d10ea146104fc578063ee8220b41461052c578063f5c6d1031461054857610173565b80639eda7d2314610431578063bf0529b914610461578063c9acbcf11461049157610173565b80638cdc341e1461034d5780638d0f30ec146103695780638eabe5e4146103995780639168abde146103b55780639c539ef4146103d15780639d9cc2fe1461040157610173565b806336fbad261161013057806336fbad261461026757806342f6a9611461028557806344a982e7146102a157806359b41437146102d157806363b4118f146102ed5780636841b4311461031d57610173565b8063107046bd1461017857806315ee4df1146101b15780631dd8fe41146101cd57806323f2a73f146101fd57806327ff62231461022d5780632e85d4301461024b575b600080fd5b610192600480360381019061018d9190612e07565b610578565b6040516101a89a99989796959493929190612f8e565b60405180910390f35b6101cb60048036038101906101c69190613166565b6106a1565b005b6101e760048036038101906101e291906131db565b610737565b6040516101f4919061321b565b60405180910390f35b610217600480360381019061021291906131db565b6107a1565b604051610224919061321b565b60405180910390f35b61023561080b565b6040516102429190613236565b60405180910390f35b610265600480360381019061026091906132b1565b610812565b005b61026f610af1565b60405161027c9190613236565b60405180910390f35b61029f600480360381019061029a91906132b1565b610af7565b005b6102bb60048036038101906102b69190613311565b610dd6565b6040516102c89190613351565b60405180910390f35b6102eb60048036038101906102e69190612e07565b610e32565b005b61030760048036038101906103029190613311565b6111e6565b6040516103149190613351565b60405180910390f35b6103376004803603810190610332919061336c565b611242565b60405161034491906133d8565b60405180910390f35b61036760048036038101906103629190612e07565b6112dd565b005b610383600480360381019061037e919061336c565b6116fe565b6040516103909190613236565b60405180910390f35b6103b360048036038101906103ae9190613449565b611799565b005b6103cf60048036038101906103ca919061351c565b611a04565b005b6103eb60048036038101906103e6919061336c565b611ed8565b6040516103f8919061321b565b60405180910390f35b61041b600480360381019061041691906135a9565b611f80565b6040516104289190613694565b60405180910390f35b61044b600480360381019061044691906131db565b612122565b604051610458919061321b565b60405180910390f35b61047b600480360381019061047691906131db565b61218c565b6040516104889190613236565b60405180910390f35b6104ab60048036038101906104a69190612e07565b6121e9565b6040516104c39c9b9a999897969594939291906136b6565b60405180910390f35b6104e660048036038101906104e191906131db565b612354565b6040516104f39190613236565b60405180910390f35b610516600480360381019061051191906131db565b6123b1565b604051610523919061321b565b60405180910390f35b610546600480360381019061054191906137cd565b61241b565b005b610562600480360381019061055d91906131db565b612d2d565b60405161056f9190613236565b60405180910390f35b60006020528060005260406000206000915090508060000160009054906101000a900460ff16908060000160019054906101000a900473ffffffffffffffffffffffffffffffffffffffff16908060010180546105d4906138c5565b80601f0160208091040260200160405190810160405280929190818152602001828054610600906138c5565b801561064d5780601f106106225761010080835404028352916020019161064d565b820191906000526020600020905b81548152906001019060200180831161063057829003601f168201915b5050505050908060060160009054906101000a900473ffffffffffffffffffffffffffffffffffffffff169080600701549080600801549080600901549080600a015490806010015490806012015490508a565b33600080600154815260200190815260200160002060000160016101000a81548173ffffffffffffffffffffffffffffffffffffffff021916908373ffffffffffffffffffffffffffffffffffffffff160217905550806000806001548152602001908152602001600020600101908161071b9190613a98565b506001600081548092919061072f90613b99565b919050555050565b600080600084815260200190815260200160002060130160008373ffffffffffffffffffffffffffffffffffffffff1673ffffffffffffffffffffffffffffffffffffffff16815260200190815260200160002060009054906101000a900460ff16905092915050565b600080600084815260200190815260200160002060050160008373ffffffffffffffffffffffffffffffffffffffff1673ffffffffffffffffffffffffffffffffffffffff16815260200190815260200160002060009054906101000a900460ff16905092915050565b620186a081565b600080600085815260200190815260200160002090508060000160019054906101000a900473ffffffffffffffffffffffffffffffffffffffff1673ffffffffffffffffffffffffffffffffffffffff163373ffffffffffffffffffffffffffffffffffffffff16146108ba576040517f08c379a00000000000000000000000000000000000000000000000000000000081526004016108b190613c53565b60405180910390fd5b8060000160009054906101000a900460ff161561090c576040517f08c379a000000000000000000000000000000000000000000000000000000000815260040161090390613cbf565b60405180910390fd5b60005b83839050811015610aea5781600501600085858481811061093357610932613cdf565b5b905060200201602081019061094891906135a9565b73ffffffffffffffffffffffffffffffffffffffff1673ffffffffffffffffffffffffffffffffffffffff16815260200190815260200160002060009054906101000a900460ff16156109d0576040517f08c379a00000000000000000000000000000000000000000000000000000000081526004016109c790613d5a565b60405180910390fd5b60018260050160008686858181106109eb576109ea613cdf565b5b9050602002016020810190610a0091906135a9565b73ffffffffffffffffffffffffffffffffffffffff1673ffffffffffffffffffffffffffffffffffffffff16815260200190815260200160002060006101000a81548160ff02191690831515021790555081600301848483818110610a6857610a67613cdf565b5b9050602002016020810190610a7d91906135a9565b9080600181540180825580915050600190039060005260206000200160009091909190916101000a81548173ffffffffffffffffffffffffffffffffffffffff021916908373ffffffffffffffffffffffffffffffffffffffff160217905550808060010191505061090f565b5050505050565b60015481565b600080600085815260200190815260200160002090508060000160019054906101000a900473ffffffffffffffffffffffffffffffffffffffff1673ffffffffffffffffffffffffffffffffffffffff163373ffffffffffffffffffffffffffffffffffffffff1614610b9f576040517f08c379a0000000000000000000000000000000000000000000000000000000008152600401610b9690613dec565b60405180910390fd5b8060000160009054906101000a900460ff1615610bf1576040517f08c379a0000000000000000000000000000000000000000000000000000000008152600401610be890613cbf565b60405180910390fd5b60005b83839050811015610dcf57816004016000858584818110610c1857610c17613cdf565b5b9050602002016020810190610c2d91906135a9565b73ffffffffffffffffffffffffffffffffffffffff1673ffffffffffffffffffffffffffffffffffffffff16815260200190815260200160002060009054906101000a900460ff1615610cb5576040517f08c379a0000000000000000000000000000000000000000000000000000000008152600401610cac90613e58565b60405180910390fd5b6001826004016000868685818110610cd057610ccf613cdf565b5b9050602002016020810190610ce591906135a9565b73ffffffffffffffffffffffffffffffffffffffff1673ffffffffffffffffffffffffffffffffffffffff16815260200190815260200160002060006101000a81548160ff02191690831515021790555081600201848483818110610d4d57610d4c613cdf565b5b9050602002016020810190610d6291906135a9565b9080600181540180825580915050600190039060005260206000200160009091909190916101000a81548173ffffffffffffffffffffffffffffffffffffffff021916908373ffffffffffffffffffffffffffffffffffffffff1602179055508080600101915050610bf4565b5050505050565b60008060008481526020019081526020016000206002018281548110610dff57610dfe613cdf565b5b9060005260206000200160009054906101000a900473ffffffffffffffffffffffffffffffffffffffff16905092915050565b600080600083815260200190815260200160002090508060000160009054906101000a900460ff16610e99576040517f08c379a0000000000000000000000000000000000000000000000000000000008152600401610e9090613ec4565b60405180910390fd5b80600a01544211610edf576040517f08c379a0000000000000000000000000000000000000000000000000000000008152600401610ed690613f56565b60405180910390fd5b8060050160003373ffffffffffffffffffffffffffffffffffffffff1673ffffffffffffffffffffffffffffffffffffffff16815260200190815260200160002060009054906101000a900460ff16610f6d576040517f08c379a0000000000000000000000000000000000000000000000000000000008152600401610f6490613fe8565b60405180910390fd5b8060130160003373ffffffffffffffffffffffffffffffffffffffff1673ffffffffffffffffffffffffffffffffffffffff16815260200190815260200160002060009054906101000a900460ff1615610ffc576040517f08c379a0000000000000000000000000000000000000000000000000000000008152600401610ff390614054565b60405180910390fd5b60008160110160003373ffffffffffffffffffffffffffffffffffffffff1673ffffffffffffffffffffffffffffffffffffffff1681526020019081526020016000205411611080576040517f08c379a000000000000000000000000000000000000000000000000000000000815260040161107790613fe8565b60405180910390fd5b600081601201548260110160003373ffffffffffffffffffffffffffffffffffffffff1673ffffffffffffffffffffffffffffffffffffffff1681526020019081526020016000205483600801546110d89190614074565b6110e291906140e5565b90508160060160009054906101000a900473ffffffffffffffffffffffffffffffffffffffff1673ffffffffffffffffffffffffffffffffffffffff1663a9059cbb33836040518363ffffffff1660e01b8152600401611143929190614116565b6020604051808303816000875af1158015611162573d6000803e3d6000fd5b505050506040513d601f19601f82011682018060405250810190611186919061416b565b5060018260130160003373ffffffffffffffffffffffffffffffffffffffff1673ffffffffffffffffffffffffffffffffffffffff16815260200190815260200160002060006101000a81548160ff021916908315150217905550505050565b6000806000848152602001908152602001600020600301828154811061120f5761120e613cdf565b5b9060005260206000200160009054906101000a900473ffffffffffffffffffffffffffffffffffffffff16905092915050565b6000806000858152602001908152602001600020600b0160008473ffffffffffffffffffffffffffffffffffffffff1673ffffffffffffffffffffffffffffffffffffffff16815260200190815260200160002060008373ffffffffffffffffffffffffffffffffffffffff1673ffffffffffffffffffffffffffffffffffffffff1681526020019081526020016000205490509392505050565b600080600083815260200190815260200160002090508060000160009054906101000a900460ff16611344576040517f08c379a000000000000000000000000000000000000000000000000000000000815260040161133b90613ec4565b60405180910390fd5b80600a0154421161138a576040517f08c379a000000000000000000000000000000000000000000000000000000000815260040161138190613f56565b60405180910390fd5b8060040160003373ffffffffffffffffffffffffffffffffffffffff1673ffffffffffffffffffffffffffffffffffffffff16815260200190815260200160002060009054906101000a900460ff16611418576040517f08c379a000000000000000000000000000000000000000000000000000000000815260040161140f90613fe8565b60405180910390fd5b600081600e0160003373ffffffffffffffffffffffffffffffffffffffff1673ffffffffffffffffffffffffffffffffffffffff168152602001908152602001600020541161149c576040517f08c379a0000000000000000000000000000000000000000000000000000000008152600401611493906141e4565b60405180910390fd5b8060140160003373ffffffffffffffffffffffffffffffffffffffff1673ffffffffffffffffffffffffffffffffffffffff16815260200190815260200160002060009054906101000a900460ff161561152b576040517f08c379a000000000000000000000000000000000000000000000000000000000815260040161152290614054565b60405180910390fd5b60008160100154826003018054905083600f0160003373ffffffffffffffffffffffffffffffffffffffff1673ffffffffffffffffffffffffffffffffffffffff168152602001908152602001600020546115869190614074565b6115909190614074565b826012015483600e0160003373ffffffffffffffffffffffffffffffffffffffff1673ffffffffffffffffffffffffffffffffffffffff168152602001908152602001600020546115e19190614074565b83600701546115f09190614074565b6115fa91906140e5565b905060018260140160003373ffffffffffffffffffffffffffffffffffffffff1673ffffffffffffffffffffffffffffffffffffffff16815260200190815260200160002060006101000a81548160ff0219169083151502179055508160060160009054906101000a900473ffffffffffffffffffffffffffffffffffffffff1673ffffffffffffffffffffffffffffffffffffffff1663a9059cbb33836040518363ffffffff1660e01b81526004016116b5929190614116565b6020604051808303816000875af11580156116d4573d6000803e3d6000fd5b505050506040513d601f19601f820116820180604052508101906116f8919061416b565b50505050565b6000806000858152602001908152602001600020600c0160008473ffffffffffffffffffffffffffffffffffffffff1673ffffffffffffffffffffffffffffffffffffffff16815260200190815260200160002060008373ffffffffffffffffffffffffffffffffffffffff1673ffffffffffffffffffffffffffffffffffffffff1681526020019081526020016000205490509392505050565b600080600087815260200190815260200160002090508060000160009054906101000a900460ff16611800576040517f08c379a00000000000000000000000000000000000000000000000000000000081526004016117f790613ec4565b60405180910390fd5b8060090154421115611847576040517f08c379a000000000000000000000000000000000000000000000000000000000815260040161183e90614276565b60405180910390fd5b8060050160003373ffffffffffffffffffffffffffffffffffffffff1673ffffffffffffffffffffffffffffffffffffffff16815260200190815260200160002060009054906101000a900460ff166118d5576040517f08c379a00000000000000000000000000000000000000000000000000000000081526004016118cc90614308565b60405180910390fd5b82829050858590501461191d576040517f08c379a00000000000000000000000000000000000000000000000000000000081526004016119149061439a565b60405180910390fd5b60005b858590508110156119fb5783838281811061193e5761193d613cdf565b5b9050602002013582600b0160003373ffffffffffffffffffffffffffffffffffffffff1673ffffffffffffffffffffffffffffffffffffffff168152602001908152602001600020600088888581811061199b5761199a613cdf565b5b90506020020160208101906119b091906135a9565b73ffffffffffffffffffffffffffffffffffffffff1673ffffffffffffffffffffffffffffffffffffffff168152602001908152602001600020819055508080600101915050611920565b50505050505050565b60008087815260200190815260200160002060000160009054906101000a900460ff1615611a67576040517f08c379a0000000000000000000000000000000000000000000000000000000008152600401611a5e90614406565b60405180910390fd5b60008087815260200190815260200160002060000160019054906101000a900473ffffffffffffffffffffffffffffffffffffffff1673ffffffffffffffffffffffffffffffffffffffff163373ffffffffffffffffffffffffffffffffffffffff1614611b0a576040517f08c379a0000000000000000000000000000000000000000000000000000000008152600401611b0190614498565b60405180910390fd5b60008060008881526020019081526020016000206003018054905011611b65576040517f08c379a0000000000000000000000000000000000000000000000000000000008152600401611b5c9061452a565b60405180910390fd5b60008060008881526020019081526020016000206002018054905011611bc0576040517f08c379a0000000000000000000000000000000000000000000000000000000008152600401611bb7906145bc565b60405180910390fd5b8284611bcc91906145dc565b8573ffffffffffffffffffffffffffffffffffffffff166370a08231336040518263ffffffff1660e01b8152600401611c059190613351565b602060405180830381865afa158015611c22573d6000803e3d6000fd5b505050506040513d601f19601f82011682018060405250810190611c469190614625565b1015611c87576040517f08c379a0000000000000000000000000000000000000000000000000000000008152600401611c7e9061469e565b60405180910390fd5b428211611cc9576040517f08c379a0000000000000000000000000000000000000000000000000000000008152600401611cc090614730565b60405180910390fd5b818111611d0b576040517f08c379a0000000000000000000000000000000000000000000000000000000008152600401611d02906147c2565b60405180910390fd5b600084118015611d1b5750600083115b611d5a576040517f08c379a0000000000000000000000000000000000000000000000000000000008152600401611d519061482e565b60405180910390fd5b600160008088815260200190815260200160002060000160006101000a81548160ff0219169083151502179055508460008088815260200190815260200160002060060160006101000a81548173ffffffffffffffffffffffffffffffffffffffff021916908373ffffffffffffffffffffffffffffffffffffffff16021790555083600080888152602001908152602001600020600701819055508260008088815260200190815260200160002060080181905550816000808881526020019081526020016000206009018190555080600080888152602001908152602001600020600a01819055508473ffffffffffffffffffffffffffffffffffffffff166323b872dd33308688611e6e91906145dc565b6040518463ffffffff1660e01b8152600401611e8c9392919061484e565b6020604051808303816000875af1158015611eab573d6000803e3d6000fd5b505050506040513d601f19601f82011682018060405250810190611ecf919061416b565b50505050505050565b6000806000858152602001908152602001600020600d0160008473ffffffffffffffffffffffffffffffffffffffff1673ffffffffffffffffffffffffffffffffffffffff16815260200190815260200160002060008373ffffffffffffffffffffffffffffffffffffffff1673ffffffffffffffffffffffffffffffffffffffff16815260200190815260200160002060009054906101000a900460ff1690509392505050565b60606000805b600154811015612014578373ffffffffffffffffffffffffffffffffffffffff1660008083815260200190815260200160002060000160019054906101000a900473ffffffffffffffffffffffffffffffffffffffff1673ffffffffffffffffffffffffffffffffffffffff160361200757818061200390613b99565b9250505b8080600101915050611f86565b5060008167ffffffffffffffff8111156120315761203061303b565b5b60405190808252806020026020018201604052801561205f5781602001602082028036833780820191505090505b5090506000915060005b600154811015612117578473ffffffffffffffffffffffffffffffffffffffff1660008083815260200190815260200160002060000160019054906101000a900473ffffffffffffffffffffffffffffffffffffffff1673ffffffffffffffffffffffffffffffffffffffff160361210a57808284815181106120ef576120ee613cdf565b5b602002602001018181525050828061210690613b99565b9350505b8080600101915050612069565b508092505050919050565b600080600084815260200190815260200160002060040160008373ffffffffffffffffffffffffffffffffffffffff1673ffffffffffffffffffffffffffffffffffffffff16815260200190815260200160002060009054906101000a900460ff16905092915050565b6000806000848152602001908152602001600020600e0160008373ffffffffffffffffffffffffffffffffffffffff1673ffffffffffffffffffffffffffffffffffffffff16815260200190815260200160002054905092915050565b6000606060008060008060008060008060008060008060008f815260200190815260200160002090508060000160019054906101000a900473ffffffffffffffffffffffffffffffffffffffff16816001018260000160009054906101000a900460ff168360060160009054906101000a900473ffffffffffffffffffffffffffffffffffffffff1684600701548560080154866009015487600a0154886002018054905089600301805490508a601001548b601201548a80546122ac906138c5565b80601f01602080910402602001604051908101604052809291908181526020018280546122d8906138c5565b80156123255780601f106122fa57610100808354040283529160200191612325565b820191906000526020600020905b81548152906001019060200180831161230857829003601f168201915b50505050509a509c509c509c509c509c509c509c509c509c509c509c509c505091939597999b5091939597999b565b600080600084815260200190815260200160002060110160008373ffffffffffffffffffffffffffffffffffffffff1673ffffffffffffffffffffffffffffffffffffffff16815260200190815260200160002054905092915050565b600080600084815260200190815260200160002060140160008373ffffffffffffffffffffffffffffffffffffffff1673ffffffffffffffffffffffffffffffffffffffff16815260200190815260200160002060009054906101000a900460ff16905092915050565b600080600089815260200190815260200160002090508060000160009054906101000a900460ff16612482576040517f08c379a000000000000000000000000000000000000000000000000000000000815260040161247990613ec4565b60405180910390fd5b80600a01544211156124c9576040517f08c379a00000000000000000000000000000000000000000000000000000000081526004016124c0906148f7565b60405180910390fd5b8060050160003373ffffffffffffffffffffffffffffffffffffffff1673ffffffffffffffffffffffffffffffffffffffff16815260200190815260200160002060009054906101000a900460ff16612557576040517f08c379a000000000000000000000000000000000000000000000000000000000815260040161254e90614989565b60405180910390fd5b848490508787905014801561257157508282905085859050145b6125b0576040517f08c379a00000000000000000000000000000000000000000000000000000000081526004016125a7906149f5565b60405180910390fd5b60005b87879050811015612ca9576000801b82600b0160003373ffffffffffffffffffffffffffffffffffffffff1673ffffffffffffffffffffffffffffffffffffffff16815260200190815260200160002060008a8a8581811061261857612617613cdf565b5b905060200201602081019061262d91906135a9565b73ffffffffffffffffffffffffffffffffffffffff1673ffffffffffffffffffffffffffffffffffffffff16815260200190815260200160002054036126a8576040517f08c379a000000000000000000000000000000000000000000000000000000000815260040161269f90614a61565b60405180910390fd5b81600d0160003373ffffffffffffffffffffffffffffffffffffffff1673ffffffffffffffffffffffffffffffffffffffff16815260200190815260200160002060008989848181106126fe576126fd613cdf565b5b905060200201602081019061271391906135a9565b73ffffffffffffffffffffffffffffffffffffffff1673ffffffffffffffffffffffffffffffffffffffff16815260200190815260200160002060009054906101000a900460ff161561279b576040517f08c379a000000000000000000000000000000000000000000000000000000000815260040161279290614acd565b60405180910390fd5b620186a08484838181106127b2576127b1613cdf565b5b9050602002013511156127fa576040517f08c379a00000000000000000000000000000000000000000000000000000000081526004016127f190614b39565b60405180910390fd5b81600401600089898481811061281357612812613cdf565b5b905060200201602081019061282891906135a9565b73ffffffffffffffffffffffffffffffffffffffff1673ffffffffffffffffffffffffffffffffffffffff16815260200190815260200160002060009054906101000a900460ff166128af576040517f08c379a00000000000000000000000000000000000000000000000000000000081526004016128a690614ba5565b60405180910390fd5b6128eb8686838181106128c5576128c4613cdf565b5b905060200201358585848181106128df576128de613cdf565b5b90506020020135612d8a565b82600b0160003373ffffffffffffffffffffffffffffffffffffffff1673ffffffffffffffffffffffffffffffffffffffff16815260200190815260200160002060008a8a8581811061294157612940613cdf565b5b905060200201602081019061295691906135a9565b73ffffffffffffffffffffffffffffffffffffffff1673ffffffffffffffffffffffffffffffffffffffff16815260200190815260200160002054146129d1576040517f08c379a00000000000000000000000000000000000000000000000000000000081526004016129c890614c11565b60405180910390fd5b8383828181106129e4576129e3613cdf565b5b9050602002013582600c0160003373ffffffffffffffffffffffffffffffffffffffff1673ffffffffffffffffffffffffffffffffffffffff16815260200190815260200160002060008a8a85818110612a4157612a40613cdf565b5b9050602002016020810190612a5691906135a9565b73ffffffffffffffffffffffffffffffffffffffff1673ffffffffffffffffffffffffffffffffffffffff16815260200190815260200160002081905550600182600d0160003373ffffffffffffffffffffffffffffffffffffffff1673ffffffffffffffffffffffffffffffffffffffff16815260200190815260200160002060008a8a85818110612aec57612aeb613cdf565b5b9050602002016020810190612b0191906135a9565b73ffffffffffffffffffffffffffffffffffffffff1673ffffffffffffffffffffffffffffffffffffffff16815260200190815260200160002060006101000a81548160ff021916908315150217905550838382818110612b6557612b64613cdf565b5b9050602002013582600e0160008a8a85818110612b8557612b84613cdf565b5b9050602002016020810190612b9a91906135a9565b73ffffffffffffffffffffffffffffffffffffffff1673ffffffffffffffffffffffffffffffffffffffff1681526020019081526020016000206000828254612be391906145dc565b9250508190555081600f016000898984818110612c0357612c02613cdf565b5b9050602002016020810190612c1891906135a9565b73ffffffffffffffffffffffffffffffffffffffff1673ffffffffffffffffffffffffffffffffffffffff1681526020019081526020016000206000815480929190612c6390613b99565b9190505550838382818110612c7b57612c7a613cdf565b5b90506020020135826010016000828254612c9591906145dc565b9250508190555080806001019150506125b3565b50868690508160110160003373ffffffffffffffffffffffffffffffffffffffff1673ffffffffffffffffffffffffffffffffffffffff1681526020019081526020016000206000828254612cfe91906145dc565b9250508190555086869050816012016000828254612d1c91906145dc565b925050819055505050505050505050565b6000806000848152602001908152602001600020600f0160008373ffffffffffffffffffffffffffffffffffffffff1673ffffffffffffffffffffffffffffffffffffffff16815260200190815260200160002054905092915050565b60008282604051602001612d9f929190614c73565b60405160208183030381529060405280519060200120905092915050565b6000604051905090565b600080fd5b600080fd5b6000819050919050565b612de481612dd1565b8114612def57600080fd5b50565b600081359050612e0181612ddb565b92915050565b600060208284031215612e1d57612e1c612dc7565b5b6000612e2b84828501612df2565b91505092915050565b60008115159050919050565b612e4981612e34565b82525050565b600073ffffffffffffffffffffffffffffffffffffffff82169050919050565b6000612e7a82612e4f565b9050919050565b612e8a81612e6f565b82525050565b600081519050919050565b600082825260208201905092915050565b60005b83811015612eca578082015181840152602081019050612eaf565b60008484015250505050565b6000601f19601f8301169050919050565b6000612ef282612e90565b612efc8185612e9b565b9350612f0c818560208601612eac565b612f1581612ed6565b840191505092915050565b6000819050919050565b6000612f45612f40612f3b84612e4f565b612f20565b612e4f565b9050919050565b6000612f5782612f2a565b9050919050565b6000612f6982612f4c565b9050919050565b612f7981612f5e565b82525050565b612f8881612dd1565b82525050565b600061014082019050612fa4600083018d612e40565b612fb1602083018c612e81565b8181036040830152612fc3818b612ee7565b9050612fd2606083018a612f70565b612fdf6080830189612f7f565b612fec60a0830188612f7f565b612ff960c0830187612f7f565b61300660e0830186612f7f565b613014610100830185612f7f565b613022610120830184612f7f565b9b9a5050505050505050505050565b600080fd5b600080fd5b7f4e487b7100000000000000000000000000000000000000000000000000000000600052604160045260246000fd5b61307382612ed6565b810181811067ffffffffffffffff821117156130925761309161303b565b5b80604052505050565b60006130a5612dbd565b90506130b1828261306a565b919050565b600067ffffffffffffffff8211156130d1576130d061303b565b5b6130da82612ed6565b9050602081019050919050565b82818337600083830152505050565b6000613109613104846130b6565b61309b565b90508281526020810184848401111561312557613124613036565b5b6131308482856130e7565b509392505050565b600082601f83011261314d5761314c613031565b5b813561315d8482602086016130f6565b91505092915050565b60006020828403121561317c5761317b612dc7565b5b600082013567ffffffffffffffff81111561319a57613199612dcc565b5b6131a684828501613138565b91505092915050565b6131b881612e6f565b81146131c357600080fd5b50565b6000813590506131d5816131af565b92915050565b600080604083850312156131f2576131f1612dc7565b5b600061320085828601612df2565b9250506020613211858286016131c6565b9150509250929050565b60006020820190506132306000830184612e40565b92915050565b600060208201905061324b6000830184612f7f565b92915050565b600080fd5b600080fd5b60008083601f84011261327157613270613031565b5b8235905067ffffffffffffffff81111561328e5761328d613251565b5b6020830191508360208202830111156132aa576132a9613256565b5b9250929050565b6000806000604084860312156132ca576132c9612dc7565b5b60006132d886828701612df2565b935050602084013567ffffffffffffffff8111156132f9576132f8612dcc565b5b6133058682870161325b565b92509250509250925092565b6000806040838503121561332857613327612dc7565b5b600061333685828601612df2565b925050602061334785828601612df2565b9150509250929050565b60006020820190506133666000830184612e81565b92915050565b60008060006060848603121561338557613384612dc7565b5b600061339386828701612df2565b93505060206133a4868287016131c6565b92505060406133b5868287016131c6565b9150509250925092565b6000819050919050565b6133d2816133bf565b82525050565b60006020820190506133ed60008301846133c9565b92915050565b60008083601f84011261340957613408613031565b5b8235905067ffffffffffffffff81111561342657613425613251565b5b60208301915083602082028301111561344257613441613256565b5b9250929050565b60008060008060006060868803121561346557613464612dc7565b5b600061347388828901612df2565b955050602086013567ffffffffffffffff81111561349457613493612dcc565b5b6134a08882890161325b565b9450945050604086013567ffffffffffffffff8111156134c3576134c2612dcc565b5b6134cf888289016133f3565b92509250509295509295909350565b60006134e982612e6f565b9050919050565b6134f9816134de565b811461350457600080fd5b50565b600081359050613516816134f0565b92915050565b60008060008060008060c0878903121561353957613538612dc7565b5b600061354789828a01612df2565b965050602061355889828a01613507565b955050604061356989828a01612df2565b945050606061357a89828a01612df2565b935050608061358b89828a01612df2565b92505060a061359c89828a01612df2565b9150509295509295509295565b6000602082840312156135bf576135be612dc7565b5b60006135cd848285016131c6565b91505092915050565b600081519050919050565b600082825260208201905092915050565b6000819050602082019050919050565b61360b81612dd1565b82525050565b600061361d8383613602565b60208301905092915050565b6000602082019050919050565b6000613641826135d6565b61364b81856135e1565b9350613656836135f2565b8060005b8381101561368757815161366e8882613611565b975061367983613629565b92505060018101905061365a565b5085935050505092915050565b600060208201905081810360008301526136ae8184613636565b905092915050565b6000610180820190506136cc600083018f612e81565b81810360208301526136de818e612ee7565b90506136ed604083018d612e40565b6136fa606083018c612f70565b613707608083018b612f7f565b61371460a083018a612f7f565b61372160c0830189612f7f565b61372e60e0830188612f7f565b61373c610100830187612f7f565b61374a610120830186612f7f565b613758610140830185612f7f565b613766610160830184612f7f565b9d9c50505050505050505050505050565b60008083601f84011261378d5761378c613031565b5b8235905067ffffffffffffffff8111156137aa576137a9613251565b5b6020830191508360208202830111156137c6576137c5613256565b5b9250929050565b60008060008060008060006080888a0312156137ec576137eb612dc7565b5b60006137fa8a828b01612df2565b975050602088013567ffffffffffffffff81111561381b5761381a612dcc565b5b6138278a828b0161325b565b9650965050604088013567ffffffffffffffff81111561384a57613849612dcc565b5b6138568a828b016133f3565b9450945050606088013567ffffffffffffffff81111561387957613878612dcc565b5b6138858a828b01613777565b925092505092959891949750929550565b7f4e487b7100000000000000000000000000000000000000000000000000000000600052602260045260246000fd5b600060028204905060018216806138dd57607f821691505b6020821081036138f0576138ef613896565b5b50919050565b60008190508160005260206000209050919050565b60006020601f8301049050919050565b600082821b905092915050565b6000600883026139587fffffffffffffffffffffffffffffffffffffffffffffffffffffffffffffffff8261391b565b613962868361391b565b95508019841693508086168417925050509392505050565b600061399561399061398b84612dd1565b612f20565b612dd1565b9050919050565b6000819050919050565b6139af8361397a565b6139c36139bb8261399c565b848454613928565b825550505050565b600090565b6139d86139cb565b6139e38184846139a6565b505050565b5b81811015613a07576139fc6000826139d0565b6001810190506139e9565b5050565b601f821115613a4c57613a1d816138f6565b613a268461390b565b81016020851015613a35578190505b613a49613a418561390b565b8301826139e8565b50505b505050565b600082821c905092915050565b6000613a6f60001984600802613a51565b1980831691505092915050565b6000613a888383613a5e565b9150826002028217905092915050565b613aa182612e90565b67ffffffffffffffff811115613aba57613ab961303b565b5b613ac482546138c5565b613acf828285613a0b565b600060209050601f831160018114613b025760008415613af0578287015190505b613afa8582613a7c565b865550613b62565b601f198416613b10866138f6565b60005b82811015613b3857848901518255600182019150602085019450602081019050613b13565b86831015613b555784890151613b51601f891682613a5e565b8355505b6001600288020188555050505b505050505050565b7f4e487b7100000000000000000000000000000000000000000000000000000000600052601160045260246000fd5b6000613ba482612dd1565b91507fffffffffffffffffffffffffffffffffffffffffffffffffffffffffffffffff8203613bd657613bd5613b6a565b5b600182019050919050565b7f596f7520617265206e6f7420617574686f72697a656420746f2061646420766160008201527f6c696461746f7273000000000000000000000000000000000000000000000000602082015250565b6000613c3d602883612e9b565b9150613c4882613be1565b604082019050919050565b60006020820190508181036000830152613c6c81613c30565b9050919050565b7f50726f6a65637420697320616c72656164792061637469766500000000000000600082015250565b6000613ca9601983612e9b565b9150613cb482613c73565b602082019050919050565b60006020820190508181036000830152613cd881613c9c565b9050919050565b7f4e487b7100000000000000000000000000000000000000000000000000000000600052603260045260246000fd5b7f56616c696461746f7220616c7265616479206164646564000000000000000000600082015250565b6000613d44601783612e9b565b9150613d4f82613d0e565b602082019050919050565b60006020820190508181036000830152613d7381613d37565b9050919050565b7f596f7520617265206e6f7420617574686f72697a656420746f2061646420636f60008201527f6e7472696275746f727300000000000000000000000000000000000000000000602082015250565b6000613dd6602a83612e9b565b9150613de182613d7a565b604082019050919050565b60006020820190508181036000830152613e0581613dc9565b9050919050565b7f436f6e7472696275746f7220616c726561647920616464656400000000000000600082015250565b6000613e42601983612e9b565b9150613e4d82613e0c565b602082019050919050565b60006020820190508181036000830152613e7181613e35565b9050919050565b7f50726f6a656374206973206e6f74206163746976650000000000000000000000600082015250565b6000613eae601583612e9b565b9150613eb982613e78565b602082019050919050565b60006020820190508181036000830152613edd81613ea1565b9050919050565b7f44697362757273656d656e74206461746520686173206e6f74206265656e207260008201527f6561636865640000000000000000000000000000000000000000000000000000602082015250565b6000613f40602683612e9b565b9150613f4b82613ee4565b604082019050919050565b60006020820190508181036000830152613f6f81613f33565b9050919050565b7f596f7520617265206e6f7420617574686f72697a656420746f20636f6c6c656360008201527f7420612072657761726400000000000000000000000000000000000000000000602082015250565b6000613fd2602a83612e9b565b9150613fdd82613f76565b604082019050919050565b6000602082019050818103600083015261400181613fc5565b9050919050565b7f52657761726420616c726561647920636f6c6c65637465640000000000000000600082015250565b600061403e601883612e9b565b915061404982614008565b602082019050919050565b6000602082019050818103600083015261406d81614031565b9050919050565b600061407f82612dd1565b915061408a83612dd1565b925082820261409881612dd1565b915082820484148315176140af576140ae613b6a565b5b5092915050565b7f4e487b7100000000000000000000000000000000000000000000000000000000600052601260045260246000fd5b60006140f082612dd1565b91506140fb83612dd1565b92508261410b5761410a6140b6565b5b828204905092915050565b600060408201905061412b6000830185612e81565b6141386020830184612f7f565b9392505050565b61414881612e34565b811461415357600080fd5b50565b6000815190506141658161413f565b92915050565b60006020828403121561418157614180612dc7565b5b600061418f84828501614156565b91505092915050565b7f4e6f207265776172640000000000000000000000000000000000000000000000600082015250565b60006141ce600983612e9b565b91506141d982614198565b602082019050919050565b600060208201905081810360008301526141fd816141c1565b9050919050565b7f56616c69646174696f6e20636f6d6d69746d656e7420646561646c696e65206860008201527f6173207061737365640000000000000000000000000000000000000000000000602082015250565b6000614260602983612e9b565b915061426b82614204565b604082019050919050565b6000602082019050818103600083015261428f81614253565b9050919050565b7f596f7520617265206e6f7420617574686f72697a656420746f20636f6d6d697460008201527f20612076616c69646174696f6e00000000000000000000000000000000000000602082015250565b60006142f2602d83612e9b565b91506142fd82614296565b604082019050919050565b60006020820190508181036000830152614321816142e5565b9050919050565b7f4e756d626572206f6620636f6d6d69746d656e7473206d757374206d6174636860008201527f206e756d626572206f6620636f6e7472696275746f7273000000000000000000602082015250565b6000614384603783612e9b565b915061438f82614328565b604082019050919050565b600060208201905081810360008301526143b381614377565b9050919050565b7f50726f6a6563742068617320616c726561647920737461727465640000000000600082015250565b60006143f0601b83612e9b565b91506143fb826143ba565b602082019050919050565b6000602082019050818103600083015261441f816143e3565b9050919050565b7f596f7520617265206e6f7420617574686f72697a656420746f2073746172742060008201527f7468652070726f6a656374000000000000000000000000000000000000000000602082015250565b6000614482602b83612e9b565b915061448d82614426565b604082019050919050565b600060208201905081810360008301526144b181614475565b9050919050565b7f4174206c65617374206f6e652076616c696461746f722069732072657175697260008201527f6564000000000000000000000000000000000000000000000000000000000000602082015250565b6000614514602283612e9b565b915061451f826144b8565b604082019050919050565b6000602082019050818103600083015261454381614507565b9050919050565b7f4174206c65617374206f6e6520636f6e7472696275746f72206973207265717560008201527f6972656400000000000000000000000000000000000000000000000000000000602082015250565b60006145a6602483612e9b565b91506145b18261454a565b604082019050919050565b600060208201905081810360008301526145d581614599565b9050919050565b60006145e782612dd1565b91506145f283612dd1565b925082820190508082111561460a57614609613b6a565b5b92915050565b60008151905061461f81612ddb565b92915050565b60006020828403121561463b5761463a612dc7565b5b600061464984828501614610565b91505092915050565b7f496e73756666696369656e742062616c616e6365000000000000000000000000600082015250565b6000614688601483612e9b565b915061469382614652565b602082019050919050565b600060208201905081810360008301526146b78161467b565b9050919050565b7f436f6d6d69746d656e7420646561646c696e65206d75737420626520696e207460008201527f6865206675747572650000000000000000000000000000000000000000000000602082015250565b600061471a602983612e9b565b9150614725826146be565b604082019050919050565b600060208201905081810360008301526147498161470d565b9050919050565b7f52657665616c20646561646c696e65206d75737420626520616674657220636f60008201527f6d6d69746d656e7420646561646c696e65000000000000000000000000000000602082015250565b60006147ac603183612e9b565b91506147b782614750565b604082019050919050565b600060208201905081810360008301526147db8161479f565b9050919050565b7f52657761726473206d75737420626520706f7369746976650000000000000000600082015250565b6000614818601883612e9b565b9150614823826147e2565b602082019050919050565b600060208201905081810360008301526148478161480b565b9050919050565b60006060820190506148636000830186612e81565b6148706020830185612e81565b61487d6040830184612f7f565b949350505050565b7f56616c69646174696f6e2072657665616c20646561646c696e6520686173207060008201527f6173736564000000000000000000000000000000000000000000000000000000602082015250565b60006148e1602583612e9b565b91506148ec82614885565b604082019050919050565b60006020820190508181036000830152614910816148d4565b9050919050565b7f596f7520617265206e6f7420617574686f72697a656420746f2072657665616c60008201527f20612076616c69646174696f6e00000000000000000000000000000000000000602082015250565b6000614973602d83612e9b565b915061497e82614917565b604082019050919050565b600060208201905081810360008301526149a281614966565b9050919050565b7f496e76616c696420696e70757400000000000000000000000000000000000000600082015250565b60006149df600d83612e9b565b91506149ea826149a9565b602082019050919050565b60006020820190508181036000830152614a0e816149d2565b9050919050565b7f4e6f20636f6d6d69746d656e7420666f756e6400000000000000000000000000600082015250565b6000614a4b601383612e9b565b9150614a5682614a15565b602082019050919050565b60006020820190508181036000830152614a7a81614a3e565b9050919050565b7f53636f726520616c72656164792072657665616c656400000000000000000000600082015250565b6000614ab7601683612e9b565b9150614ac282614a81565b602082019050919050565b60006020820190508181036000830152614ae681614aaa565b9050919050565b7f496e76616c69642073636f726500000000000000000000000000000000000000600082015250565b6000614b23600d83612e9b565b9150614b2e82614aed565b602082019050919050565b60006020820190508181036000830152614b5281614b16565b9050919050565b7f496e76616c696420636f6e7472696275746f7200000000000000000000000000600082015250565b6000614b8f601383612e9b565b9150614b9a82614b59565b602082019050919050565b60006020820190508181036000830152614bbe81614b82565b9050919050565b7f496e76616c69642072657665616c000000000000000000000000000000000000600082015250565b6000614bfb600e83612e9b565b9150614c0682614bc5565b602082019050919050565b60006020820190508181036000830152614c2a81614bee565b9050919050565b6000819050919050565b614c4c614c47826133bf565b614c31565b82525050565b6000819050919050565b614c6d614c6882612dd1565b614c52565b82525050565b6000614c7f8285614c3b565b602082019150614c8f8284614c5c565b602082019150819050939250505056fea2646970667358221220757fe8eb995252e70e2e4089587a93a7a8ccbad77e5351811731fa78a336239364736f6c634300081c0033",
          "opcodes": "PUSH1 0x80 PUSH1 0x40 MSTORE CALLVALUE DUP1 ISZERO PUSH1 0xF JUMPI PUSH1 0x0 DUP1 REVERT JUMPDEST POP PUSH2 0x4CD5 DUP1 PUSH2 0x1F PUSH1 0x0 CODECOPY PUSH1 0x0 RETURN INVALID PUSH1 0x80 PUSH1 0x40 MSTORE CALLVALUE DUP1 ISZERO PUSH2 0x10 JUMPI PUSH1 0x0 DUP1 REVERT JUMPDEST POP PUSH1 0x4 CALLDATASIZE LT PUSH2 0x173 JUMPI PUSH1 0x0 CALLDATALOAD PUSH1 0xE0 SHR DUP1 PUSH4 0x8CDC341E GT PUSH2 0xDE JUMPI DUP1 PUSH4 0x9EDA7D23 GT PUSH2 0x97 JUMPI DUP1 PUSH4 0xCE14F79F GT PUSH2 0x71 JUMPI DUP1 PUSH4 0xCE14F79F EQ PUSH2 0x4CC JUMPI DUP1 PUSH4 0xE18D10EA EQ PUSH2 0x4FC JUMPI DUP1 PUSH4 0xEE8220B4 EQ PUSH2 0x52C JUMPI DUP1 PUSH4 0xF5C6D103 EQ PUSH2 0x548 JUMPI PUSH2 0x173 JUMP JUMPDEST DUP1 PUSH4 0x9EDA7D23 EQ PUSH2 0x431 JUMPI DUP1 PUSH4 0xBF0529B9 EQ PUSH2 0x461 JUMPI DUP1 PUSH4 0xC9ACBCF1 EQ PUSH2 0x491 JUMPI PUSH2 0x173 JUMP JUMPDEST DUP1 PUSH4 0x8CDC341E EQ PUSH2 0x34D JUMPI DUP1 PUSH4 0x8D0F30EC EQ PUSH2 0x369 JUMPI DUP1 PUSH4 0x8EABE5E4 EQ PUSH2 0x399 JUMPI DUP1 PUSH4 0x9168ABDE EQ PUSH2 0x3B5 JUMPI DUP1 PUSH4 0x9C539EF4 EQ PUSH2 0x3D1 JUMPI DUP1 PUSH4 0x9D9CC2FE EQ PUSH2 0x401 JUMPI PUSH2 0x173 JUMP JUMPDEST DUP1 PUSH4 0x36FBAD26 GT PUSH2 0x130 JUMPI DUP1 PUSH4 0x36FBAD26 EQ PUSH2 0x267 JUMPI DUP1 PUSH4 0x42F6A961 EQ PUSH2 0x285 JUMPI DUP1 PUSH4 0x44A982E7 EQ PUSH2 0x2A1 JUMPI DUP1 PUSH4 0x59B41437 EQ PUSH2 0x2D1 JUMPI DUP1 PUSH4 0x63B4118F EQ PUSH2 0x2ED JUMPI DUP1 PUSH4 0x6841B431 EQ PUSH2 0x31D JUMPI PUSH2 0x173 JUMP JUMPDEST DUP1 PUSH4 0x107046BD EQ PUSH2 0x178 JUMPI DUP1 PUSH4 0x15EE4DF1 EQ PUSH2 0x1B1 JUMPI DUP1 PUSH4 0x1DD8FE41 EQ PUSH2 0x1CD JUMPI DUP1 PUSH4 0x23F2A73F EQ PUSH2 0x1FD JUMPI DUP1 PUSH4 0x27FF6223 EQ PUSH2 0x22D JUMPI DUP1 PUSH4 0x2E85D430 EQ PUSH2 0x24B JUMPI JUMPDEST PUSH1 0x0 DUP1 REVERT JUMPDEST PUSH2 0x192 PUSH1 0x4 DUP1 CALLDATASIZE SUB DUP2 ADD SWAP1 PUSH2 0x18D SWAP2 SWAP1 PUSH2 0x2E07 JUMP JUMPDEST PUSH2 0x578 JUMP JUMPDEST PUSH1 0x40 MLOAD PUSH2 0x1A8 SWAP11 SWAP10 SWAP9 SWAP8 SWAP7 SWAP6 SWAP5 SWAP4 SWAP3 SWAP2 SWAP1 PUSH2 0x2F8E JUMP JUMPDEST PUSH1 0x40 MLOAD DUP1 SWAP2 SUB SWAP1 RETURN JUMPDEST PUSH2 0x1CB PUSH1 0x4 DUP1 CALLDATASIZE SUB DUP2 ADD SWAP1 PUSH2 0x1C6 SWAP2 SWAP1 PUSH2 0x3166 JUMP JUMPDEST PUSH2 0x6A1 JUMP JUMPDEST STOP JUMPDEST PUSH2 0x1E7 PUSH1 0x4 DUP1 CALLDATASIZE SUB DUP2 ADD SWAP1 PUSH2 0x1E2 SWAP2 SWAP1 PUSH2 0x31DB JUMP JUMPDEST PUSH2 0x737 JUMP JUMPDEST PUSH1 0x40 MLOAD PUSH2 0x1F4 SWAP2 SWAP1 PUSH2 0x321B JUMP JUMPDEST PUSH1 0x40 MLOAD DUP1 SWAP2 SUB SWAP1 RETURN JUMPDEST PUSH2 0x217 PUSH1 0x4 DUP1 CALLDATASIZE SUB DUP2 ADD SWAP1 PUSH2 0x212 SWAP2 SWAP1 PUSH2 0x31DB JUMP JUMPDEST PUSH2 0x7A1 JUMP JUMPDEST PUSH1 0x40 MLOAD PUSH2 0x224 SWAP2 SWAP1 PUSH2 0x321B JUMP JUMPDEST PUSH1 0x40 MLOAD DUP1 SWAP2 SUB SWAP1 RETURN JUMPDEST PUSH2 0x235 PUSH2 0x80B JUMP JUMPDEST PUSH1 0x40 MLOAD PUSH2 0x242 SWAP2 SWAP1 PUSH2 0x3236 JUMP JUMPDEST PUSH1 0x40 MLOAD DUP1 SWAP2 SUB SWAP1 RETURN JUMPDEST PUSH2 0x265 PUSH1 0x4 DUP1 CALLDATASIZE SUB DUP2 ADD SWAP1 PUSH2 0x260 SWAP2 SWAP1 PUSH2 0x32B1 JUMP JUMPDEST PUSH2 0x812 JUMP JUMPDEST STOP JUMPDEST PUSH2 0x26F PUSH2 0xAF1 JUMP JUMPDEST PUSH1 0x40 MLOAD PUSH2 0x27C SWAP2 SWAP1 PUSH2 0x3236 JUMP JUMPDEST PUSH1 0x40 MLOAD DUP1 SWAP2 SUB SWAP1 RETURN JUMPDEST PUSH2 0x29F PUSH1 0x4 DUP1 CALLDATASIZE SUB DUP2 ADD SWAP1 PUSH2 0x29A SWAP2 SWAP1 PUSH2 0x32B1 JUMP JUMPDEST PUSH2 0xAF7 JUMP JUMPDEST STOP JUMPDEST PUSH2 0x2BB PUSH1 0x4 DUP1 CALLDATASIZE SUB DUP2 ADD SWAP1 PUSH2 0x2B6 SWAP2 SWAP1 PUSH2 0x3311 JUMP JUMPDEST PUSH2 0xDD6 JUMP JUMPDEST PUSH1 0x40 MLOAD PUSH2 0x2C8 SWAP2 SWAP1 PUSH2 0x3351 JUMP JUMPDEST PUSH1 0x40 MLOAD DUP1 SWAP2 SUB SWAP1 RETURN JUMPDEST PUSH2 0x2EB PUSH1 0x4 DUP1 CALLDATASIZE SUB DUP2 ADD SWAP1 PUSH2 0x2E6 SWAP2 SWAP1 PUSH2 0x2E07 JUMP JUMPDEST PUSH2 0xE32 JUMP JUMPDEST STOP JUMPDEST PUSH2 0x307 PUSH1 0x4 DUP1 CALLDATASIZE SUB DUP2 ADD SWAP1 PUSH2 0x302 SWAP2 SWAP1 PUSH2 0x3311 JUMP JUMPDEST PUSH2 0x11E6 JUMP JUMPDEST PUSH1 0x40 MLOAD PUSH2 0x314 SWAP2 SWAP1 PUSH2 0x3351 JUMP JUMPDEST PUSH1 0x40 MLOAD DUP1 SWAP2 SUB SWAP1 RETURN JUMPDEST PUSH2 0x337 PUSH1 0x4 DUP1 CALLDATASIZE SUB DUP2 ADD SWAP1 PUSH2 0x332 SWAP2 SWAP1 PUSH2 0x336C JUMP JUMPDEST PUSH2 0x1242 JUMP JUMPDEST PUSH1 0x40 MLOAD PUSH2 0x344 SWAP2 SWAP1 PUSH2 0x33D8 JUMP JUMPDEST PUSH1 0x40 MLOAD DUP1 SWAP2 SUB SWAP1 RETURN JUMPDEST PUSH2 0x367 PUSH1 0x4 DUP1 CALLDATASIZE SUB DUP2 ADD SWAP1 PUSH2 0x362 SWAP2 SWAP1 PUSH2 0x2E07 JUMP JUMPDEST PUSH2 0x12DD JUMP JUMPDEST STOP JUMPDEST PUSH2 0x383 PUSH1 0x4 DUP1 CALLDATASIZE SUB DUP2 ADD SWAP1 PUSH2 0x37E SWAP2 SWAP1 PUSH2 0x336C JUMP JUMPDEST PUSH2 0x16FE JUMP JUMPDEST PUSH1 0x40 MLOAD PUSH2 0x390 SWAP2 SWAP1 PUSH2 0x3236 JUMP JUMPDEST PUSH1 0x40 MLOAD DUP1 SWAP2 SUB SWAP1 RETURN JUMPDEST PUSH2 0x3B3 PUSH1 0x4 DUP1 CALLDATASIZE SUB DUP2 ADD SWAP1 PUSH2 0x3AE SWAP2 SWAP1 PUSH2 0x3449 JUMP JUMPDEST PUSH2 0x1799 JUMP JUMPDEST STOP JUMPDEST PUSH2 0x3CF PUSH1 0x4 DUP1 CALLDATASIZE SUB DUP2 ADD SWAP1 PUSH2 0x3CA SWAP2 SWAP1 PUSH2 0x351C JUMP JUMPDEST PUSH2 0x1A04 JUMP JUMPDEST STOP JUMPDEST PUSH2 0x3EB PUSH1 0x4 DUP1 CALLDATASIZE SUB DUP2 ADD SWAP1 PUSH2 0x3E6 SWAP2 SWAP1 PUSH2 0x336C JUMP JUMPDEST PUSH2 0x1ED8 JUMP JUMPDEST PUSH1 0x40 MLOAD PUSH2 0x3F8 SWAP2 SWAP1 PUSH2 0x321B JUMP JUMPDEST PUSH1 0x40 MLOAD DUP1 SWAP2 SUB SWAP1 RETURN JUMPDEST PUSH2 0x41B PUSH1 0x4 DUP1 CALLDATASIZE SUB DUP2 ADD SWAP1 PUSH2 0x416 SWAP2 SWAP1 PUSH2 0x35A9 JUMP JUMPDEST PUSH2 0x1F80 JUMP JUMPDEST PUSH1 0x40 MLOAD PUSH2 0x428 SWAP2 SWAP1 PUSH2 0x3694 JUMP JUMPDEST PUSH1 0x40 MLOAD DUP1 SWAP2 SUB SWAP1 RETURN JUMPDEST PUSH2 0x44B PUSH1 0x4 DUP1 CALLDATASIZE SUB DUP2 ADD SWAP1 PUSH2 0x446 SWAP2 SWAP1 PUSH2 0x31DB JUMP JUMPDEST PUSH2 0x2122 JUMP JUMPDEST PUSH1 0x40 MLOAD PUSH2 0x458 SWAP2 SWAP1 PUSH2 0x321B JUMP JUMPDEST PUSH1 0x40 MLOAD DUP1 SWAP2 SUB SWAP1 RETURN JUMPDEST PUSH2 0x47B PUSH1 0x4 DUP1 CALLDATASIZE SUB DUP2 ADD SWAP1 PUSH2 0x476 SWAP2 SWAP1 PUSH2 0x31DB JUMP JUMPDEST PUSH2 0x218C JUMP JUMPDEST PUSH1 0x40 MLOAD PUSH2 0x488 SWAP2 SWAP1 PUSH2 0x3236 JUMP JUMPDEST PUSH1 0x40 MLOAD DUP1 SWAP2 SUB SWAP1 RETURN JUMPDEST PUSH2 0x4AB PUSH1 0x4 DUP1 CALLDATASIZE SUB DUP2 ADD SWAP1 PUSH2 0x4A6 SWAP2 SWAP1 PUSH2 0x2E07 JUMP JUMPDEST PUSH2 0x21E9 JUMP JUMPDEST PUSH1 0x40 MLOAD PUSH2 0x4C3 SWAP13 SWAP12 SWAP11 SWAP10 SWAP9 SWAP8 SWAP7 SWAP6 SWAP5 SWAP4 SWAP3 SWAP2 SWAP1 PUSH2 0x36B6 JUMP JUMPDEST PUSH1 0x40 MLOAD DUP1 SWAP2 SUB SWAP1 RETURN JUMPDEST PUSH2 0x4E6 PUSH1 0x4 DUP1 CALLDATASIZE SUB DUP2 ADD SWAP1 PUSH2 0x4E1 SWAP2 SWAP1 PUSH2 0x31DB JUMP JUMPDEST PUSH2 0x2354 JUMP JUMPDEST PUSH1 0x40 MLOAD PUSH2 0x4F3 SWAP2 SWAP1 PUSH2 0x3236 JUMP JUMPDEST PUSH1 0x40 MLOAD DUP1 SWAP2 SUB SWAP1 RETURN JUMPDEST PUSH2 0x516 PUSH1 0x4 DUP1 CALLDATASIZE SUB DUP2 ADD SWAP1 PUSH2 0x511 SWAP2 SWAP1 PUSH2 0x31DB JUMP JUMPDEST PUSH2 0x23B1 JUMP JUMPDEST PUSH1 0x40 MLOAD PUSH2 0x523 SWAP2 SWAP1 PUSH2 0x321B JUMP JUMPDEST PUSH1 0x40 MLOAD DUP1 SWAP2 SUB SWAP1 RETURN JUMPDEST PUSH2 0x546 PUSH1 0x4 DUP1 CALLDATASIZE SUB DUP2 ADD SWAP1 PUSH2 0x541 SWAP2 SWAP1 PUSH2 0x37CD JUMP JUMPDEST PUSH2 0x241B JUMP JUMPDEST STOP JUMPDEST PUSH2 0x562 PUSH1 0x4 DUP1 CALLDATASIZE SUB DUP2 ADD SWAP1 PUSH2 0x55D SWAP2 SWAP1 PUSH2 0x31DB JUMP JUMPDEST PUSH2 0x2D2D JUMP JUMPDEST PUSH1 0x40 MLOAD PUSH2 0x56F SWAP2 SWAP1 PUSH2 0x3236 JUMP JUMPDEST PUSH1 0x40 MLOAD DUP1 SWAP2 SUB SWAP1 RETURN JUMPDEST PUSH1 0x0 PUSH1 0x20 MSTORE DUP1 PUSH1 0x0 MSTORE PUSH1 0x40 PUSH1 0x0 KECCAK256 PUSH1 0x0 SWAP2 POP SWAP1 POP DUP1 PUSH1 0x0 ADD PUSH1 0x0 SWAP1 SLOAD SWAP1 PUSH2 0x100 EXP SWAP1 DIV PUSH1 0xFF AND SWAP1 DUP1 PUSH1 0x0 ADD PUSH1 0x1 SWAP1 SLOAD SWAP1 PUSH2 0x100 EXP SWAP1 DIV PUSH20 0xFFFFFFFFFFFFFFFFFFFFFFFFFFFFFFFFFFFFFFFF AND SWAP1 DUP1 PUSH1 0x1 ADD DUP1 SLOAD PUSH2 0x5D4 SWAP1 PUSH2 0x38C5 JUMP JUMPDEST DUP1 PUSH1 0x1F ADD PUSH1 0x20 DUP1 SWAP2 DIV MUL PUSH1 0x20 ADD PUSH1 0x40 MLOAD SWAP1 DUP2 ADD PUSH1 0x40 MSTORE DUP1 SWAP3 SWAP2 SWAP1 DUP2 DUP2 MSTORE PUSH1 0x20 ADD DUP3 DUP1 SLOAD PUSH2 0x600 SWAP1 PUSH2 0x38C5 JUMP JUMPDEST DUP1 ISZERO PUSH2 0x64D JUMPI DUP1 PUSH1 0x1F LT PUSH2 0x622 JUMPI PUSH2 0x100 DUP1 DUP4 SLOAD DIV MUL DUP4 MSTORE SWAP2 PUSH1 0x20 ADD SWAP2 PUSH2 0x64D JUMP JUMPDEST DUP3 ADD SWAP2 SWAP1 PUSH1 0x0 MSTORE PUSH1 0x20 PUSH1 0x0 KECCAK256 SWAP1 JUMPDEST DUP2 SLOAD DUP2 MSTORE SWAP1 PUSH1 0x1 ADD SWAP1 PUSH1 0x20 ADD DUP1 DUP4 GT PUSH2 0x630 JUMPI DUP3 SWAP1 SUB PUSH1 0x1F AND DUP3 ADD SWAP2 JUMPDEST POP POP POP POP POP SWAP1 DUP1 PUSH1 0x6 ADD PUSH1 0x0 SWAP1 SLOAD SWAP1 PUSH2 0x100 EXP SWAP1 DIV PUSH20 0xFFFFFFFFFFFFFFFFFFFFFFFFFFFFFFFFFFFFFFFF AND SWAP1 DUP1 PUSH1 0x7 ADD SLOAD SWAP1 DUP1 PUSH1 0x8 ADD SLOAD SWAP1 DUP1 PUSH1 0x9 ADD SLOAD SWAP1 DUP1 PUSH1 0xA ADD SLOAD SWAP1 DUP1 PUSH1 0x10 ADD SLOAD SWAP1 DUP1 PUSH1 0x12 ADD SLOAD SWAP1 POP DUP11 JUMP JUMPDEST CALLER PUSH1 0x0 DUP1 PUSH1 0x1 SLOAD DUP2 MSTORE PUSH1 0x20 ADD SWAP1 DUP2 MSTORE PUSH1 0x20 ADD PUSH1 0x0 KECCAK256 PUSH1 0x0 ADD PUSH1 0x1 PUSH2 0x100 EXP DUP2 SLOAD DUP2 PUSH20 0xFFFFFFFFFFFFFFFFFFFFFFFFFFFFFFFFFFFFFFFF MUL NOT AND SWAP1 DUP4 PUSH20 0xFFFFFFFFFFFFFFFFFFFFFFFFFFFFFFFFFFFFFFFF AND MUL OR SWAP1 SSTORE POP DUP1 PUSH1 0x0 DUP1 PUSH1 0x1 SLOAD DUP2 MSTORE PUSH1 0x20 ADD SWAP1 DUP2 MSTORE PUSH1 0x20 ADD PUSH1 0x0 KECCAK256 PUSH1 0x1 ADD SWAP1 DUP2 PUSH2 0x71B SWAP2 SWAP1 PUSH2 0x3A98 JUMP JUMPDEST POP PUSH1 0x1 PUSH1 0x0 DUP2 SLOAD DUP1 SWAP3 SWAP2 SWAP1 PUSH2 0x72F SWAP1 PUSH2 0x3B99 JUMP JUMPDEST SWAP2 SWAP1 POP SSTORE POP POP JUMP JUMPDEST PUSH1 0x0 DUP1 PUSH1 0x0 DUP5 DUP2 MSTORE PUSH1 0x20 ADD SWAP1 DUP2 MSTORE PUSH1 0x20 ADD PUSH1 0x0 KECCAK256 PUSH1 0x13 ADD PUSH1 0x0 DUP4 PUSH20 0xFFFFFFFFFFFFFFFFFFFFFFFFFFFFFFFFFFFFFFFF AND PUSH20 0xFFFFFFFFFFFFFFFFFFFFFFFFFFFFFFFFFFFFFFFF AND DUP2 MSTORE PUSH1 0x20 ADD SWAP1 DUP2 MSTORE PUSH1 0x20 ADD PUSH1 0x0 KECCAK256 PUSH1 0x0 SWAP1 SLOAD SWAP1 PUSH2 0x100 EXP SWAP1 DIV PUSH1 0xFF AND SWAP1 POP SWAP3 SWAP2 POP POP JUMP JUMPDEST PUSH1 0x0 DUP1 PUSH1 0x0 DUP5 DUP2 MSTORE PUSH1 0x20 ADD SWAP1 DUP2 MSTORE PUSH1 0x20 ADD PUSH1 0x0 KECCAK256 PUSH1 0x5 ADD PUSH1 0x0 DUP4 PUSH20 0xFFFFFFFFFFFFFFFFFFFFFFFFFFFFFFFFFFFFFFFF AND PUSH20 0xFFFFFFFFFFFFFFFFFFFFFFFFFFFFFFFFFFFFFFFF AND DUP2 MSTORE PUSH1 0x20 ADD SWAP1 DUP2 MSTORE PUSH1 0x20 ADD PUSH1 0x0 KECCAK256 PUSH1 0x0 SWAP1 SLOAD SWAP1 PUSH2 0x100 EXP SWAP1 DIV PUSH1 0xFF AND SWAP1 POP SWAP3 SWAP2 POP POP JUMP JUMPDEST PUSH3 0x186A0 DUP2 JUMP JUMPDEST PUSH1 0x0 DUP1 PUSH1 0x0 DUP6 DUP2 MSTORE PUSH1 0x20 ADD SWAP1 DUP2 MSTORE PUSH1 0x20 ADD PUSH1 0x0 KECCAK256 SWAP1 POP DUP1 PUSH1 0x0 ADD PUSH1 0x1 SWAP1 SLOAD SWAP1 PUSH2 0x100 EXP SWAP1 DIV PUSH20 0xFFFFFFFFFFFFFFFFFFFFFFFFFFFFFFFFFFFFFFFF AND PUSH20 0xFFFFFFFFFFFFFFFFFFFFFFFFFFFFFFFFFFFFFFFF AND CALLER PUSH20 0xFFFFFFFFFFFFFFFFFFFFFFFFFFFFFFFFFFFFFFFF AND EQ PUSH2 0x8BA JUMPI PUSH1 0x40 MLOAD PUSH32 0x8C379A000000000000000000000000000000000000000000000000000000000 DUP2 MSTORE PUSH1 0x4 ADD PUSH2 0x8B1 SWAP1 PUSH2 0x3C53 JUMP JUMPDEST PUSH1 0x40 MLOAD DUP1 SWAP2 SUB SWAP1 REVERT JUMPDEST DUP1 PUSH1 0x0 ADD PUSH1 0x0 SWAP1 SLOAD SWAP1 PUSH2 0x100 EXP SWAP1 DIV PUSH1 0xFF AND ISZERO PUSH2 0x90C JUMPI PUSH1 0x40 MLOAD PUSH32 0x8C379A000000000000000000000000000000000000000000000000000000000 DUP2 MSTORE PUSH1 0x4 ADD PUSH2 0x903 SWAP1 PUSH2 0x3CBF JUMP JUMPDEST PUSH1 0x40 MLOAD DUP1 SWAP2 SUB SWAP1 REVERT JUMPDEST PUSH1 0x0 JUMPDEST DUP4 DUP4 SWAP1 POP DUP2 LT ISZERO PUSH2 0xAEA JUMPI DUP2 PUSH1 0x5 ADD PUSH1 0x0 DUP6 DUP6 DUP5 DUP2 DUP2 LT PUSH2 0x933 JUMPI PUSH2 0x932 PUSH2 0x3CDF JUMP JUMPDEST JUMPDEST SWAP1 POP PUSH1 0x20 MUL ADD PUSH1 0x20 DUP2 ADD SWAP1 PUSH2 0x948 SWAP2 SWAP1 PUSH2 0x35A9 JUMP JUMPDEST PUSH20 0xFFFFFFFFFFFFFFFFFFFFFFFFFFFFFFFFFFFFFFFF AND PUSH20 0xFFFFFFFFFFFFFFFFFFFFFFFFFFFFFFFFFFFFFFFF AND DUP2 MSTORE PUSH1 0x20 ADD SWAP1 DUP2 MSTORE PUSH1 0x20 ADD PUSH1 0x0 KECCAK256 PUSH1 0x0 SWAP1 SLOAD SWAP1 PUSH2 0x100 EXP SWAP1 DIV PUSH1 0xFF AND ISZERO PUSH2 0x9D0 JUMPI PUSH1 0x40 MLOAD PUSH32 0x8C379A000000000000000000000000000000000000000000000000000000000 DUP2 MSTORE PUSH1 0x4 ADD PUSH2 0x9C7 SWAP1 PUSH2 0x3D5A JUMP JUMPDEST PUSH1 0x40 MLOAD DUP1 SWAP2 SUB SWAP1 REVERT JUMPDEST PUSH1 0x1 DUP3 PUSH1 0x5 ADD PUSH1 0x0 DUP7 DUP7 DUP6 DUP2 DUP2 LT PUSH2 0x9EB JUMPI PUSH2 0x9EA PUSH2 0x3CDF JUMP JUMPDEST JUMPDEST SWAP1 POP PUSH1 0x20 MUL ADD PUSH1 0x20 DUP2 ADD SWAP1 PUSH2 0xA00 SWAP2 SWAP1 PUSH2 0x35A9 JUMP JUMPDEST PUSH20 0xFFFFFFFFFFFFFFFFFFFFFFFFFFFFFFFFFFFFFFFF AND PUSH20 0xFFFFFFFFFFFFFFFFFFFFFFFFFFFFFFFFFFFFFFFF AND DUP2 MSTORE PUSH1 0x20 ADD SWAP1 DUP2 MSTORE PUSH1 0x20 ADD PUSH1 0x0 KECCAK256 PUSH1 0x0 PUSH2 0x100 EXP DUP2 SLOAD DUP2 PUSH1 0xFF MUL NOT AND SWAP1 DUP4 ISZERO ISZERO MUL OR SWAP1 SSTORE POP DUP2 PUSH1 0x3 ADD DUP5 DUP5 DUP4 DUP2 DUP2 LT PUSH2 0xA68 JUMPI PUSH2 0xA67 PUSH2 0x3CDF JUMP JUMPDEST JUMPDEST SWAP1 POP PUSH1 0x20 MUL ADD PUSH1 0x20 DUP2 ADD SWAP1 PUSH2 0xA7D SWAP2 SWAP1 PUSH2 0x35A9 JUMP JUMPDEST SWAP1 DUP1 PUSH1 0x1 DUP2 SLOAD ADD DUP1 DUP3 SSTORE DUP1 SWAP2 POP POP PUSH1 0x1 SWAP1 SUB SWAP1 PUSH1 0x0 MSTORE PUSH1 0x20 PUSH1 0x0 KECCAK256 ADD PUSH1 0x0 SWAP1 SWAP2 SWAP1 SWAP2 SWAP1 SWAP2 PUSH2 0x100 EXP DUP2 SLOAD DUP2 PUSH20 0xFFFFFFFFFFFFFFFFFFFFFFFFFFFFFFFFFFFFFFFF MUL NOT AND SWAP1 DUP4 PUSH20 0xFFFFFFFFFFFFFFFFFFFFFFFFFFFFFFFFFFFFFFFF AND MUL OR SWAP1 SSTORE POP DUP1 DUP1 PUSH1 0x1 ADD SWAP2 POP POP PUSH2 0x90F JUMP JUMPDEST POP POP POP POP POP JUMP JUMPDEST PUSH1 0x1 SLOAD DUP2 JUMP JUMPDEST PUSH1 0x0 DUP1 PUSH1 0x0 DUP6 DUP2 MSTORE PUSH1 0x20 ADD SWAP1 DUP2 MSTORE PUSH1 0x20 ADD PUSH1 0x0 KECCAK256 SWAP1 POP DUP1 PUSH1 0x0 ADD PUSH1 0x1 SWAP1 SLOAD SWAP1 PUSH2 0x100 EXP SWAP1 DIV PUSH20 0xFFFFFFFFFFFFFFFFFFFFFFFFFFFFFFFFFFFFFFFF AND PUSH20 0xFFFFFFFFFFFFFFFFFFFFFFFFFFFFFFFFFFFFFFFF AND CALLER PUSH20 0xFFFFFFFFFFFFFFFFFFFFFFFFFFFFFFFFFFFFFFFF AND EQ PUSH2 0xB9F JUMPI PUSH1 0x40 MLOAD PUSH32 0x8C379A000000000000000000000000000000000000000000000000000000000 DUP2 MSTORE PUSH1 0x4 ADD PUSH2 0xB96 SWAP1 PUSH2 0x3DEC JUMP JUMPDEST PUSH1 0x40 MLOAD DUP1 SWAP2 SUB SWAP1 REVERT JUMPDEST DUP1 PUSH1 0x0 ADD PUSH1 0x0 SWAP1 SLOAD SWAP1 PUSH2 0x100 EXP SWAP1 DIV PUSH1 0xFF AND ISZERO PUSH2 0xBF1 JUMPI PUSH1 0x40 MLOAD PUSH32 0x8C379A000000000000000000000000000000000000000000000000000000000 DUP2 MSTORE PUSH1 0x4 ADD PUSH2 0xBE8 SWAP1 PUSH2 0x3CBF JUMP JUMPDEST PUSH1 0x40 MLOAD DUP1 SWAP2 SUB SWAP1 REVERT JUMPDEST PUSH1 0x0 JUMPDEST DUP4 DUP4 SWAP1 POP DUP2 LT ISZERO PUSH2 0xDCF JUMPI DUP2 PUSH1 0x4 ADD PUSH1 0x0 DUP6 DUP6 DUP5 DUP2 DUP2 LT PUSH2 0xC18 JUMPI PUSH2 0xC17 PUSH2 0x3CDF JUMP JUMPDEST JUMPDEST SWAP1 POP PUSH1 0x20 MUL ADD PUSH1 0x20 DUP2 ADD SWAP1 PUSH2 0xC2D SWAP2 SWAP1 PUSH2 0x35A9 JUMP JUMPDEST PUSH20 0xFFFFFFFFFFFFFFFFFFFFFFFFFFFFFFFFFFFFFFFF AND PUSH20 0xFFFFFFFFFFFFFFFFFFFFFFFFFFFFFFFFFFFFFFFF AND DUP2 MSTORE PUSH1 0x20 ADD SWAP1 DUP2 MSTORE PUSH1 0x20 ADD PUSH1 0x0 KECCAK256 PUSH1 0x0 SWAP1 SLOAD SWAP1 PUSH2 0x100 EXP SWAP1 DIV PUSH1 0xFF AND ISZERO PUSH2 0xCB5 JUMPI PUSH1 0x40 MLOAD PUSH32 0x8C379A000000000000000000000000000000000000000000000000000000000 DUP2 MSTORE PUSH1 0x4 ADD PUSH2 0xCAC SWAP1 PUSH2 0x3E58 JUMP JUMPDEST PUSH1 0x40 MLOAD DUP1 SWAP2 SUB SWAP1 REVERT JUMPDEST PUSH1 0x1 DUP3 PUSH1 0x4 ADD PUSH1 0x0 DUP7 DUP7 DUP6 DUP2 DUP2 LT PUSH2 0xCD0 JUMPI PUSH2 0xCCF PUSH2 0x3CDF JUMP JUMPDEST JUMPDEST SWAP1 POP PUSH1 0x20 MUL ADD PUSH1 0x20 DUP2 ADD SWAP1 PUSH2 0xCE5 SWAP2 SWAP1 PUSH2 0x35A9 JUMP JUMPDEST PUSH20 0xFFFFFFFFFFFFFFFFFFFFFFFFFFFFFFFFFFFFFFFF AND PUSH20 0xFFFFFFFFFFFFFFFFFFFFFFFFFFFFFFFFFFFFFFFF AND DUP2 MSTORE PUSH1 0x20 ADD SWAP1 DUP2 MSTORE PUSH1 0x20 ADD PUSH1 0x0 KECCAK256 PUSH1 0x0 PUSH2 0x100 EXP DUP2 SLOAD DUP2 PUSH1 0xFF MUL NOT AND SWAP1 DUP4 ISZERO ISZERO MUL OR SWAP1 SSTORE POP DUP2 PUSH1 0x2 ADD DUP5 DUP5 DUP4 DUP2 DUP2 LT PUSH2 0xD4D JUMPI PUSH2 0xD4C PUSH2 0x3CDF JUMP JUMPDEST JUMPDEST SWAP1 POP PUSH1 0x20 MUL ADD PUSH1 0x20 DUP2 ADD SWAP1 PUSH2 0xD62 SWAP2 SWAP1 PUSH2 0x35A9 JUMP JUMPDEST SWAP1 DUP1 PUSH1 0x1 DUP2 SLOAD ADD DUP1 DUP3 SSTORE DUP1 SWAP2 POP POP PUSH1 0x1 SWAP1 SUB SWAP1 PUSH1 0x0 MSTORE PUSH1 0x20 PUSH1 0x0 KECCAK256 ADD PUSH1 0x0 SWAP1 SWAP2 SWAP1 SWAP2 SWAP1 SWAP2 PUSH2 0x100 EXP DUP2 SLOAD DUP2 PUSH20 0xFFFFFFFFFFFFFFFFFFFFFFFFFFFFFFFFFFFFFFFF MUL NOT AND SWAP1 DUP4 PUSH20 0xFFFFFFFFFFFFFFFFFFFFFFFFFFFFFFFFFFFFFFFF AND MUL OR SWAP1 SSTORE POP DUP1 DUP1 PUSH1 0x1 ADD SWAP2 POP POP PUSH2 0xBF4 JUMP JUMPDEST POP POP POP POP POP JUMP JUMPDEST PUSH1 0x0 DUP1 PUSH1 0x0 DUP5 DUP2 MSTORE PUSH1 0x20 ADD SWAP1 DUP2 MSTORE PUSH1 0x20 ADD PUSH1 0x0 KECCAK256 PUSH1 0x2 ADD DUP3 DUP2 SLOAD DUP2 LT PUSH2 0xDFF JUMPI PUSH2 0xDFE PUSH2 0x3CDF JUMP JUMPDEST JUMPDEST SWAP1 PUSH1 0x0 MSTORE PUSH1 0x20 PUSH1 0x0 KECCAK256 ADD PUSH1 0x0 SWAP1 SLOAD SWAP1 PUSH2 0x100 EXP SWAP1 DIV PUSH20 0xFFFFFFFFFFFFFFFFFFFFFFFFFFFFFFFFFFFFFFFF AND SWAP1 POP SWAP3 SWAP2 POP POP JUMP JUMPDEST PUSH1 0x0 DUP1 PUSH1 0x0 DUP4 DUP2 MSTORE PUSH1 0x20 ADD SWAP1 DUP2 MSTORE PUSH1 0x20 ADD PUSH1 0x0 KECCAK256 SWAP1 POP DUP1 PUSH1 0x0 ADD PUSH1 0x0 SWAP1 SLOAD SWAP1 PUSH2 0x100 EXP SWAP1 DIV PUSH1 0xFF AND PUSH2 0xE99 JUMPI PUSH1 0x40 MLOAD PUSH32 0x8C379A000000000000000000000000000000000000000000000000000000000 DUP2 MSTORE PUSH1 0x4 ADD PUSH2 0xE90 SWAP1 PUSH2 0x3EC4 JUMP JUMPDEST PUSH1 0x40 MLOAD DUP1 SWAP2 SUB SWAP1 REVERT JUMPDEST DUP1 PUSH1 0xA ADD SLOAD TIMESTAMP GT PUSH2 0xEDF JUMPI PUSH1 0x40 MLOAD PUSH32 0x8C379A000000000000000000000000000000000000000000000000000000000 DUP2 MSTORE PUSH1 0x4 ADD PUSH2 0xED6 SWAP1 PUSH2 0x3F56 JUMP JUMPDEST PUSH1 0x40 MLOAD DUP1 SWAP2 SUB SWAP1 REVERT JUMPDEST DUP1 PUSH1 0x5 ADD PUSH1 0x0 CALLER PUSH20 0xFFFFFFFFFFFFFFFFFFFFFFFFFFFFFFFFFFFFFFFF AND PUSH20 0xFFFFFFFFFFFFFFFFFFFFFFFFFFFFFFFFFFFFFFFF AND DUP2 MSTORE PUSH1 0x20 ADD SWAP1 DUP2 MSTORE PUSH1 0x20 ADD PUSH1 0x0 KECCAK256 PUSH1 0x0 SWAP1 SLOAD SWAP1 PUSH2 0x100 EXP SWAP1 DIV PUSH1 0xFF AND PUSH2 0xF6D JUMPI PUSH1 0x40 MLOAD PUSH32 0x8C379A000000000000000000000000000000000000000000000000000000000 DUP2 MSTORE PUSH1 0x4 ADD PUSH2 0xF64 SWAP1 PUSH2 0x3FE8 JUMP JUMPDEST PUSH1 0x40 MLOAD DUP1 SWAP2 SUB SWAP1 REVERT JUMPDEST DUP1 PUSH1 0x13 ADD PUSH1 0x0 CALLER PUSH20 0xFFFFFFFFFFFFFFFFFFFFFFFFFFFFFFFFFFFFFFFF AND PUSH20 0xFFFFFFFFFFFFFFFFFFFFFFFFFFFFFFFFFFFFFFFF AND DUP2 MSTORE PUSH1 0x20 ADD SWAP1 DUP2 MSTORE PUSH1 0x20 ADD PUSH1 0x0 KECCAK256 PUSH1 0x0 SWAP1 SLOAD SWAP1 PUSH2 0x100 EXP SWAP1 DIV PUSH1 0xFF AND ISZERO PUSH2 0xFFC JUMPI PUSH1 0x40 MLOAD PUSH32 0x8C379A000000000000000000000000000000000000000000000000000000000 DUP2 MSTORE PUSH1 0x4 ADD PUSH2 0xFF3 SWAP1 PUSH2 0x4054 JUMP JUMPDEST PUSH1 0x40 MLOAD DUP1 SWAP2 SUB SWAP1 REVERT JUMPDEST PUSH1 0x0 DUP2 PUSH1 0x11 ADD PUSH1 0x0 CALLER PUSH20 0xFFFFFFFFFFFFFFFFFFFFFFFFFFFFFFFFFFFFFFFF AND PUSH20 0xFFFFFFFFFFFFFFFFFFFFFFFFFFFFFFFFFFFFFFFF AND DUP2 MSTORE PUSH1 0x20 ADD SWAP1 DUP2 MSTORE PUSH1 0x20 ADD PUSH1 0x0 KECCAK256 SLOAD GT PUSH2 0x1080 JUMPI PUSH1 0x40 MLOAD PUSH32 0x8C379A000000000000000000000000000000000000000000000000000000000 DUP2 MSTORE PUSH1 0x4 ADD PUSH2 0x1077 SWAP1 PUSH2 0x3FE8 JUMP JUMPDEST PUSH1 0x40 MLOAD DUP1 SWAP2 SUB SWAP1 REVERT JUMPDEST PUSH1 0x0 DUP2 PUSH1 0x12 ADD SLOAD DUP3 PUSH1 0x11 ADD PUSH1 0x0 CALLER PUSH20 0xFFFFFFFFFFFFFFFFFFFFFFFFFFFFFFFFFFFFFFFF AND PUSH20 0xFFFFFFFFFFFFFFFFFFFFFFFFFFFFFFFFFFFFFFFF AND DUP2 MSTORE PUSH1 0x20 ADD SWAP1 DUP2 MSTORE PUSH1 0x20 ADD PUSH1 0x0 KECCAK256 SLOAD DUP4 PUSH1 0x8 ADD SLOAD PUSH2 0x10D8 SWAP2 SWAP1 PUSH2 0x4074 JUMP JUMPDEST PUSH2 0x10E2 SWAP2 SWAP1 PUSH2 0x40E5 JUMP JUMPDEST SWAP1 POP DUP2 PUSH1 0x6 ADD PUSH1 0x0 SWAP1 SLOAD SWAP1 PUSH2 0x100 EXP SWAP1 DIV PUSH20 0xFFFFFFFFFFFFFFFFFFFFFFFFFFFFFFFFFFFFFFFF AND PUSH20 0xFFFFFFFFFFFFFFFFFFFFFFFFFFFFFFFFFFFFFFFF AND PUSH4 0xA9059CBB CALLER DUP4 PUSH1 0x40 MLOAD DUP4 PUSH4 0xFFFFFFFF AND PUSH1 0xE0 SHL DUP2 MSTORE PUSH1 0x4 ADD PUSH2 0x1143 SWAP3 SWAP2 SWAP1 PUSH2 0x4116 JUMP JUMPDEST PUSH1 0x20 PUSH1 0x40 MLOAD DUP1 DUP4 SUB DUP2 PUSH1 0x0 DUP8 GAS CALL ISZERO DUP1 ISZERO PUSH2 0x1162 JUMPI RETURNDATASIZE PUSH1 0x0 DUP1 RETURNDATACOPY RETURNDATASIZE PUSH1 0x0 REVERT JUMPDEST POP POP POP POP PUSH1 0x40 MLOAD RETURNDATASIZE PUSH1 0x1F NOT PUSH1 0x1F DUP3 ADD AND DUP3 ADD DUP1 PUSH1 0x40 MSTORE POP DUP2 ADD SWAP1 PUSH2 0x1186 SWAP2 SWAP1 PUSH2 0x416B JUMP JUMPDEST POP PUSH1 0x1 DUP3 PUSH1 0x13 ADD PUSH1 0x0 CALLER PUSH20 0xFFFFFFFFFFFFFFFFFFFFFFFFFFFFFFFFFFFFFFFF AND PUSH20 0xFFFFFFFFFFFFFFFFFFFFFFFFFFFFFFFFFFFFFFFF AND DUP2 MSTORE PUSH1 0x20 ADD SWAP1 DUP2 MSTORE PUSH1 0x20 ADD PUSH1 0x0 KECCAK256 PUSH1 0x0 PUSH2 0x100 EXP DUP2 SLOAD DUP2 PUSH1 0xFF MUL NOT AND SWAP1 DUP4 ISZERO ISZERO MUL OR SWAP1 SSTORE POP POP POP POP JUMP JUMPDEST PUSH1 0x0 DUP1 PUSH1 0x0 DUP5 DUP2 MSTORE PUSH1 0x20 ADD SWAP1 DUP2 MSTORE PUSH1 0x20 ADD PUSH1 0x0 KECCAK256 PUSH1 0x3 ADD DUP3 DUP2 SLOAD DUP2 LT PUSH2 0x120F JUMPI PUSH2 0x120E PUSH2 0x3CDF JUMP JUMPDEST JUMPDEST SWAP1 PUSH1 0x0 MSTORE PUSH1 0x20 PUSH1 0x0 KECCAK256 ADD PUSH1 0x0 SWAP1 SLOAD SWAP1 PUSH2 0x100 EXP SWAP1 DIV PUSH20 0xFFFFFFFFFFFFFFFFFFFFFFFFFFFFFFFFFFFFFFFF AND SWAP1 POP SWAP3 SWAP2 POP POP JUMP JUMPDEST PUSH1 0x0 DUP1 PUSH1 0x0 DUP6 DUP2 MSTORE PUSH1 0x20 ADD SWAP1 DUP2 MSTORE PUSH1 0x20 ADD PUSH1 0x0 KECCAK256 PUSH1 0xB ADD PUSH1 0x0 DUP5 PUSH20 0xFFFFFFFFFFFFFFFFFFFFFFFFFFFFFFFFFFFFFFFF AND PUSH20 0xFFFFFFFFFFFFFFFFFFFFFFFFFFFFFFFFFFFFFFFF AND DUP2 MSTORE PUSH1 0x20 ADD SWAP1 DUP2 MSTORE PUSH1 0x20 ADD PUSH1 0x0 KECCAK256 PUSH1 0x0 DUP4 PUSH20 0xFFFFFFFFFFFFFFFFFFFFFFFFFFFFFFFFFFFFFFFF AND PUSH20 0xFFFFFFFFFFFFFFFFFFFFFFFFFFFFFFFFFFFFFFFF AND DUP2 MSTORE PUSH1 0x20 ADD SWAP1 DUP2 MSTORE PUSH1 0x20 ADD PUSH1 0x0 KECCAK256 SLOAD SWAP1 POP SWAP4 SWAP3 POP POP POP JUMP JUMPDEST PUSH1 0x0 DUP1 PUSH1 0x0 DUP4 DUP2 MSTORE PUSH1 0x20 ADD SWAP1 DUP2 MSTORE PUSH1 0x20 ADD PUSH1 0x0 KECCAK256 SWAP1 POP DUP1 PUSH1 0x0 ADD PUSH1 0x0 SWAP1 SLOAD SWAP1 PUSH2 0x100 EXP SWAP1 DIV PUSH1 0xFF AND PUSH2 0x1344 JUMPI PUSH1 0x40 MLOAD PUSH32 0x8C379A000000000000000000000000000000000000000000000000000000000 DUP2 MSTORE PUSH1 0x4 ADD PUSH2 0x133B SWAP1 PUSH2 0x3EC4 JUMP JUMPDEST PUSH1 0x40 MLOAD DUP1 SWAP2 SUB SWAP1 REVERT JUMPDEST DUP1 PUSH1 0xA ADD SLOAD TIMESTAMP GT PUSH2 0x138A JUMPI PUSH1 0x40 MLOAD PUSH32 0x8C379A000000000000000000000000000000000000000000000000000000000 DUP2 MSTORE PUSH1 0x4 ADD PUSH2 0x1381 SWAP1 PUSH2 0x3F56 JUMP JUMPDEST PUSH1 0x40 MLOAD DUP1 SWAP2 SUB SWAP1 REVERT JUMPDEST DUP1 PUSH1 0x4 ADD PUSH1 0x0 CALLER PUSH20 0xFFFFFFFFFFFFFFFFFFFFFFFFFFFFFFFFFFFFFFFF AND PUSH20 0xFFFFFFFFFFFFFFFFFFFFFFFFFFFFFFFFFFFFFFFF AND DUP2 MSTORE PUSH1 0x20 ADD SWAP1 DUP2 MSTORE PUSH1 0x20 ADD PUSH1 0x0 KECCAK256 PUSH1 0x0 SWAP1 SLOAD SWAP1 PUSH2 0x100 EXP SWAP1 DIV PUSH1 0xFF AND PUSH2 0x1418 JUMPI PUSH1 0x40 MLOAD PUSH32 0x8C379A000000000000000000000000000000000000000000000000000000000 DUP2 MSTORE PUSH1 0x4 ADD PUSH2 0x140F SWAP1 PUSH2 0x3FE8 JUMP JUMPDEST PUSH1 0x40 MLOAD DUP1 SWAP2 SUB SWAP1 REVERT JUMPDEST PUSH1 0x0 DUP2 PUSH1 0xE ADD PUSH1 0x0 CALLER PUSH20 0xFFFFFFFFFFFFFFFFFFFFFFFFFFFFFFFFFFFFFFFF AND PUSH20 0xFFFFFFFFFFFFFFFFFFFFFFFFFFFFFFFFFFFFFFFF AND DUP2 MSTORE PUSH1 0x20 ADD SWAP1 DUP2 MSTORE PUSH1 0x20 ADD PUSH1 0x0 KECCAK256 SLOAD GT PUSH2 0x149C JUMPI PUSH1 0x40 MLOAD PUSH32 0x8C379A000000000000000000000000000000000000000000000000000000000 DUP2 MSTORE PUSH1 0x4 ADD PUSH2 0x1493 SWAP1 PUSH2 0x41E4 JUMP JUMPDEST PUSH1 0x40 MLOAD DUP1 SWAP2 SUB SWAP1 REVERT JUMPDEST DUP1 PUSH1 0x14 ADD PUSH1 0x0 CALLER PUSH20 0xFFFFFFFFFFFFFFFFFFFFFFFFFFFFFFFFFFFFFFFF AND PUSH20 0xFFFFFFFFFFFFFFFFFFFFFFFFFFFFFFFFFFFFFFFF AND DUP2 MSTORE PUSH1 0x20 ADD SWAP1 DUP2 MSTORE PUSH1 0x20 ADD PUSH1 0x0 KECCAK256 PUSH1 0x0 SWAP1 SLOAD SWAP1 PUSH2 0x100 EXP SWAP1 DIV PUSH1 0xFF AND ISZERO PUSH2 0x152B JUMPI PUSH1 0x40 MLOAD PUSH32 0x8C379A000000000000000000000000000000000000000000000000000000000 DUP2 MSTORE PUSH1 0x4 ADD PUSH2 0x1522 SWAP1 PUSH2 0x4054 JUMP JUMPDEST PUSH1 0x40 MLOAD DUP1 SWAP2 SUB SWAP1 REVERT JUMPDEST PUSH1 0x0 DUP2 PUSH1 0x10 ADD SLOAD DUP3 PUSH1 0x3 ADD DUP1 SLOAD SWAP1 POP DUP4 PUSH1 0xF ADD PUSH1 0x0 CALLER PUSH20 0xFFFFFFFFFFFFFFFFFFFFFFFFFFFFFFFFFFFFFFFF AND PUSH20 0xFFFFFFFFFFFFFFFFFFFFFFFFFFFFFFFFFFFFFFFF AND DUP2 MSTORE PUSH1 0x20 ADD SWAP1 DUP2 MSTORE PUSH1 0x20 ADD PUSH1 0x0 KECCAK256 SLOAD PUSH2 0x1586 SWAP2 SWAP1 PUSH2 0x4074 JUMP JUMPDEST PUSH2 0x1590 SWAP2 SWAP1 PUSH2 0x4074 JUMP JUMPDEST DUP3 PUSH1 0x12 ADD SLOAD DUP4 PUSH1 0xE ADD PUSH1 0x0 CALLER PUSH20 0xFFFFFFFFFFFFFFFFFFFFFFFFFFFFFFFFFFFFFFFF AND PUSH20 0xFFFFFFFFFFFFFFFFFFFFFFFFFFFFFFFFFFFFFFFF AND DUP2 MSTORE PUSH1 0x20 ADD SWAP1 DUP2 MSTORE PUSH1 0x20 ADD PUSH1 0x0 KECCAK256 SLOAD PUSH2 0x15E1 SWAP2 SWAP1 PUSH2 0x4074 JUMP JUMPDEST DUP4 PUSH1 0x7 ADD SLOAD PUSH2 0x15F0 SWAP2 SWAP1 PUSH2 0x4074 JUMP JUMPDEST PUSH2 0x15FA SWAP2 SWAP1 PUSH2 0x40E5 JUMP JUMPDEST SWAP1 POP PUSH1 0x1 DUP3 PUSH1 0x14 ADD PUSH1 0x0 CALLER PUSH20 0xFFFFFFFFFFFFFFFFFFFFFFFFFFFFFFFFFFFFFFFF AND PUSH20 0xFFFFFFFFFFFFFFFFFFFFFFFFFFFFFFFFFFFFFFFF AND DUP2 MSTORE PUSH1 0x20 ADD SWAP1 DUP2 MSTORE PUSH1 0x20 ADD PUSH1 0x0 KECCAK256 PUSH1 0x0 PUSH2 0x100 EXP DUP2 SLOAD DUP2 PUSH1 0xFF MUL NOT AND SWAP1 DUP4 ISZERO ISZERO MUL OR SWAP1 SSTORE POP DUP2 PUSH1 0x6 ADD PUSH1 0x0 SWAP1 SLOAD SWAP1 PUSH2 0x100 EXP SWAP1 DIV PUSH20 0xFFFFFFFFFFFFFFFFFFFFFFFFFFFFFFFFFFFFFFFF AND PUSH20 0xFFFFFFFFFFFFFFFFFFFFFFFFFFFFFFFFFFFFFFFF AND PUSH4 0xA9059CBB CALLER DUP4 PUSH1 0x40 MLOAD DUP4 PUSH4 0xFFFFFFFF AND PUSH1 0xE0 SHL DUP2 MSTORE PUSH1 0x4 ADD PUSH2 0x16B5 SWAP3 SWAP2 SWAP1 PUSH2 0x4116 JUMP JUMPDEST PUSH1 0x20 PUSH1 0x40 MLOAD DUP1 DUP4 SUB DUP2 PUSH1 0x0 DUP8 GAS CALL ISZERO DUP1 ISZERO PUSH2 0x16D4 JUMPI RETURNDATASIZE PUSH1 0x0 DUP1 RETURNDATACOPY RETURNDATASIZE PUSH1 0x0 REVERT JUMPDEST POP POP POP POP PUSH1 0x40 MLOAD RETURNDATASIZE PUSH1 0x1F NOT PUSH1 0x1F DUP3 ADD AND DUP3 ADD DUP1 PUSH1 0x40 MSTORE POP DUP2 ADD SWAP1 PUSH2 0x16F8 SWAP2 SWAP1 PUSH2 0x416B JUMP JUMPDEST POP POP POP POP JUMP JUMPDEST PUSH1 0x0 DUP1 PUSH1 0x0 DUP6 DUP2 MSTORE PUSH1 0x20 ADD SWAP1 DUP2 MSTORE PUSH1 0x20 ADD PUSH1 0x0 KECCAK256 PUSH1 0xC ADD PUSH1 0x0 DUP5 PUSH20 0xFFFFFFFFFFFFFFFFFFFFFFFFFFFFFFFFFFFFFFFF AND PUSH20 0xFFFFFFFFFFFFFFFFFFFFFFFFFFFFFFFFFFFFFFFF AND DUP2 MSTORE PUSH1 0x20 ADD SWAP1 DUP2 MSTORE PUSH1 0x20 ADD PUSH1 0x0 KECCAK256 PUSH1 0x0 DUP4 PUSH20 0xFFFFFFFFFFFFFFFFFFFFFFFFFFFFFFFFFFFFFFFF AND PUSH20 0xFFFFFFFFFFFFFFFFFFFFFFFFFFFFFFFFFFFFFFFF AND DUP2 MSTORE PUSH1 0x20 ADD SWAP1 DUP2 MSTORE PUSH1 0x20 ADD PUSH1 0x0 KECCAK256 SLOAD SWAP1 POP SWAP4 SWAP3 POP POP POP JUMP JUMPDEST PUSH1 0x0 DUP1 PUSH1 0x0 DUP8 DUP2 MSTORE PUSH1 0x20 ADD SWAP1 DUP2 MSTORE PUSH1 0x20 ADD PUSH1 0x0 KECCAK256 SWAP1 POP DUP1 PUSH1 0x0 ADD PUSH1 0x0 SWAP1 SLOAD SWAP1 PUSH2 0x100 EXP SWAP1 DIV PUSH1 0xFF AND PUSH2 0x1800 JUMPI PUSH1 0x40 MLOAD PUSH32 0x8C379A000000000000000000000000000000000000000000000000000000000 DUP2 MSTORE PUSH1 0x4 ADD PUSH2 0x17F7 SWAP1 PUSH2 0x3EC4 JUMP JUMPDEST PUSH1 0x40 MLOAD DUP1 SWAP2 SUB SWAP1 REVERT JUMPDEST DUP1 PUSH1 0x9 ADD SLOAD TIMESTAMP GT ISZERO PUSH2 0x1847 JUMPI PUSH1 0x40 MLOAD PUSH32 0x8C379A000000000000000000000000000000000000000000000000000000000 DUP2 MSTORE PUSH1 0x4 ADD PUSH2 0x183E SWAP1 PUSH2 0x4276 JUMP JUMPDEST PUSH1 0x40 MLOAD DUP1 SWAP2 SUB SWAP1 REVERT JUMPDEST DUP1 PUSH1 0x5 ADD PUSH1 0x0 CALLER PUSH20 0xFFFFFFFFFFFFFFFFFFFFFFFFFFFFFFFFFFFFFFFF AND PUSH20 0xFFFFFFFFFFFFFFFFFFFFFFFFFFFFFFFFFFFFFFFF AND DUP2 MSTORE PUSH1 0x20 ADD SWAP1 DUP2 MSTORE PUSH1 0x20 ADD PUSH1 0x0 KECCAK256 PUSH1 0x0 SWAP1 SLOAD SWAP1 PUSH2 0x100 EXP SWAP1 DIV PUSH1 0xFF AND PUSH2 0x18D5 JUMPI PUSH1 0x40 MLOAD PUSH32 0x8C379A000000000000000000000000000000000000000000000000000000000 DUP2 MSTORE PUSH1 0x4 ADD PUSH2 0x18CC SWAP1 PUSH2 0x4308 JUMP JUMPDEST PUSH1 0x40 MLOAD DUP1 SWAP2 SUB SWAP1 REVERT JUMPDEST DUP3 DUP3 SWAP1 POP DUP6 DUP6 SWAP1 POP EQ PUSH2 0x191D JUMPI PUSH1 0x40 MLOAD PUSH32 0x8C379A000000000000000000000000000000000000000000000000000000000 DUP2 MSTORE PUSH1 0x4 ADD PUSH2 0x1914 SWAP1 PUSH2 0x439A JUMP JUMPDEST PUSH1 0x40 MLOAD DUP1 SWAP2 SUB SWAP1 REVERT JUMPDEST PUSH1 0x0 JUMPDEST DUP6 DUP6 SWAP1 POP DUP2 LT ISZERO PUSH2 0x19FB JUMPI DUP4 DUP4 DUP3 DUP2 DUP2 LT PUSH2 0x193E JUMPI PUSH2 0x193D PUSH2 0x3CDF JUMP JUMPDEST JUMPDEST SWAP1 POP PUSH1 0x20 MUL ADD CALLDATALOAD DUP3 PUSH1 0xB ADD PUSH1 0x0 CALLER PUSH20 0xFFFFFFFFFFFFFFFFFFFFFFFFFFFFFFFFFFFFFFFF AND PUSH20 0xFFFFFFFFFFFFFFFFFFFFFFFFFFFFFFFFFFFFFFFF AND DUP2 MSTORE PUSH1 0x20 ADD SWAP1 DUP2 MSTORE PUSH1 0x20 ADD PUSH1 0x0 KECCAK256 PUSH1 0x0 DUP9 DUP9 DUP6 DUP2 DUP2 LT PUSH2 0x199B JUMPI PUSH2 0x199A PUSH2 0x3CDF JUMP JUMPDEST JUMPDEST SWAP1 POP PUSH1 0x20 MUL ADD PUSH1 0x20 DUP2 ADD SWAP1 PUSH2 0x19B0 SWAP2 SWAP1 PUSH2 0x35A9 JUMP JUMPDEST PUSH20 0xFFFFFFFFFFFFFFFFFFFFFFFFFFFFFFFFFFFFFFFF AND PUSH20 0xFFFFFFFFFFFFFFFFFFFFFFFFFFFFFFFFFFFFFFFF AND DUP2 MSTORE PUSH1 0x20 ADD SWAP1 DUP2 MSTORE PUSH1 0x20 ADD PUSH1 0x0 KECCAK256 DUP2 SWAP1 SSTORE POP DUP1 DUP1 PUSH1 0x1 ADD SWAP2 POP POP PUSH2 0x1920 JUMP JUMPDEST POP POP POP POP POP POP POP JUMP JUMPDEST PUSH1 0x0 DUP1 DUP8 DUP2 MSTORE PUSH1 0x20 ADD SWAP1 DUP2 MSTORE PUSH1 0x20 ADD PUSH1 0x0 KECCAK256 PUSH1 0x0 ADD PUSH1 0x0 SWAP1 SLOAD SWAP1 PUSH2 0x100 EXP SWAP1 DIV PUSH1 0xFF AND ISZERO PUSH2 0x1A67 JUMPI PUSH1 0x40 MLOAD PUSH32 0x8C379A000000000000000000000000000000000000000000000000000000000 DUP2 MSTORE PUSH1 0x4 ADD PUSH2 0x1A5E SWAP1 PUSH2 0x4406 JUMP JUMPDEST PUSH1 0x40 MLOAD DUP1 SWAP2 SUB SWAP1 REVERT JUMPDEST PUSH1 0x0 DUP1 DUP8 DUP2 MSTORE PUSH1 0x20 ADD SWAP1 DUP2 MSTORE PUSH1 0x20 ADD PUSH1 0x0 KECCAK256 PUSH1 0x0 ADD PUSH1 0x1 SWAP1 SLOAD SWAP1 PUSH2 0x100 EXP SWAP1 DIV PUSH20 0xFFFFFFFFFFFFFFFFFFFFFFFFFFFFFFFFFFFFFFFF AND PUSH20 0xFFFFFFFFFFFFFFFFFFFFFFFFFFFFFFFFFFFFFFFF AND CALLER PUSH20 0xFFFFFFFFFFFFFFFFFFFFFFFFFFFFFFFFFFFFFFFF AND EQ PUSH2 0x1B0A JUMPI PUSH1 0x40 MLOAD PUSH32 0x8C379A000000000000000000000000000000000000000000000000000000000 DUP2 MSTORE PUSH1 0x4 ADD PUSH2 0x1B01 SWAP1 PUSH2 0x4498 JUMP JUMPDEST PUSH1 0x40 MLOAD DUP1 SWAP2 SUB SWAP1 REVERT JUMPDEST PUSH1 0x0 DUP1 PUSH1 0x0 DUP9 DUP2 MSTORE PUSH1 0x20 ADD SWAP1 DUP2 MSTORE PUSH1 0x20 ADD PUSH1 0x0 KECCAK256 PUSH1 0x3 ADD DUP1 SLOAD SWAP1 POP GT PUSH2 0x1B65 JUMPI PUSH1 0x40 MLOAD PUSH32 0x8C379A000000000000000000000000000000000000000000000000000000000 DUP2 MSTORE PUSH1 0x4 ADD PUSH2 0x1B5C SWAP1 PUSH2 0x452A JUMP JUMPDEST PUSH1 0x40 MLOAD DUP1 SWAP2 SUB SWAP1 REVERT JUMPDEST PUSH1 0x0 DUP1 PUSH1 0x0 DUP9 DUP2 MSTORE PUSH1 0x20 ADD SWAP1 DUP2 MSTORE PUSH1 0x20 ADD PUSH1 0x0 KECCAK256 PUSH1 0x2 ADD DUP1 SLOAD SWAP1 POP GT PUSH2 0x1BC0 JUMPI PUSH1 0x40 MLOAD PUSH32 0x8C379A000000000000000000000000000000000000000000000000000000000 DUP2 MSTORE PUSH1 0x4 ADD PUSH2 0x1BB7 SWAP1 PUSH2 0x45BC JUMP JUMPDEST PUSH1 0x40 MLOAD DUP1 SWAP2 SUB SWAP1 REVERT JUMPDEST DUP3 DUP5 PUSH2 0x1BCC SWAP2 SWAP1 PUSH2 0x45DC JUMP JUMPDEST DUP6 PUSH20 0xFFFFFFFFFFFFFFFFFFFFFFFFFFFFFFFFFFFFFFFF AND PUSH4 0x70A08231 CALLER PUSH1 0x40 MLOAD DUP3 PUSH4 0xFFFFFFFF AND PUSH1 0xE0 SHL DUP2 MSTORE PUSH1 0x4 ADD PUSH2 0x1C05 SWAP2 SWAP1 PUSH2 0x3351 JUMP JUMPDEST PUSH1 0x20 PUSH1 0x40 MLOAD DUP1 DUP4 SUB DUP2 DUP7 GAS STATICCALL ISZERO DUP1 ISZERO PUSH2 0x1C22 JUMPI RETURNDATASIZE PUSH1 0x0 DUP1 RETURNDATACOPY RETURNDATASIZE PUSH1 0x0 REVERT JUMPDEST POP POP POP POP PUSH1 0x40 MLOAD RETURNDATASIZE PUSH1 0x1F NOT PUSH1 0x1F DUP3 ADD AND DUP3 ADD DUP1 PUSH1 0x40 MSTORE POP DUP2 ADD SWAP1 PUSH2 0x1C46 SWAP2 SWAP1 PUSH2 0x4625 JUMP JUMPDEST LT ISZERO PUSH2 0x1C87 JUMPI PUSH1 0x40 MLOAD PUSH32 0x8C379A000000000000000000000000000000000000000000000000000000000 DUP2 MSTORE PUSH1 0x4 ADD PUSH2 0x1C7E SWAP1 PUSH2 0x469E JUMP JUMPDEST PUSH1 0x40 MLOAD DUP1 SWAP2 SUB SWAP1 REVERT JUMPDEST TIMESTAMP DUP3 GT PUSH2 0x1CC9 JUMPI PUSH1 0x40 MLOAD PUSH32 0x8C379A000000000000000000000000000000000000000000000000000000000 DUP2 MSTORE PUSH1 0x4 ADD PUSH2 0x1CC0 SWAP1 PUSH2 0x4730 JUMP JUMPDEST PUSH1 0x40 MLOAD DUP1 SWAP2 SUB SWAP1 REVERT JUMPDEST DUP2 DUP2 GT PUSH2 0x1D0B JUMPI PUSH1 0x40 MLOAD PUSH32 0x8C379A000000000000000000000000000000000000000000000000000000000 DUP2 MSTORE PUSH1 0x4 ADD PUSH2 0x1D02 SWAP1 PUSH2 0x47C2 JUMP JUMPDEST PUSH1 0x40 MLOAD DUP1 SWAP2 SUB SWAP1 REVERT JUMPDEST PUSH1 0x0 DUP5 GT DUP1 ISZERO PUSH2 0x1D1B JUMPI POP PUSH1 0x0 DUP4 GT JUMPDEST PUSH2 0x1D5A JUMPI PUSH1 0x40 MLOAD PUSH32 0x8C379A000000000000000000000000000000000000000000000000000000000 DUP2 MSTORE PUSH1 0x4 ADD PUSH2 0x1D51 SWAP1 PUSH2 0x482E JUMP JUMPDEST PUSH1 0x40 MLOAD DUP1 SWAP2 SUB SWAP1 REVERT JUMPDEST PUSH1 0x1 PUSH1 0x0 DUP1 DUP9 DUP2 MSTORE PUSH1 0x20 ADD SWAP1 DUP2 MSTORE PUSH1 0x20 ADD PUSH1 0x0 KECCAK256 PUSH1 0x0 ADD PUSH1 0x0 PUSH2 0x100 EXP DUP2 SLOAD DUP2 PUSH1 0xFF MUL NOT AND SWAP1 DUP4 ISZERO ISZERO MUL OR SWAP1 SSTORE POP DUP5 PUSH1 0x0 DUP1 DUP9 DUP2 MSTORE PUSH1 0x20 ADD SWAP1 DUP2 MSTORE PUSH1 0x20 ADD PUSH1 0x0 KECCAK256 PUSH1 0x6 ADD PUSH1 0x0 PUSH2 0x100 EXP DUP2 SLOAD DUP2 PUSH20 0xFFFFFFFFFFFFFFFFFFFFFFFFFFFFFFFFFFFFFFFF MUL NOT AND SWAP1 DUP4 PUSH20 0xFFFFFFFFFFFFFFFFFFFFFFFFFFFFFFFFFFFFFFFF AND MUL OR SWAP1 SSTORE POP DUP4 PUSH1 0x0 DUP1 DUP9 DUP2 MSTORE PUSH1 0x20 ADD SWAP1 DUP2 MSTORE PUSH1 0x20 ADD PUSH1 0x0 KECCAK256 PUSH1 0x7 ADD DUP2 SWAP1 SSTORE POP DUP3 PUSH1 0x0 DUP1 DUP9 DUP2 MSTORE PUSH1 0x20 ADD SWAP1 DUP2 MSTORE PUSH1 0x20 ADD PUSH1 0x0 KECCAK256 PUSH1 0x8 ADD DUP2 SWAP1 SSTORE POP DUP2 PUSH1 0x0 DUP1 DUP9 DUP2 MSTORE PUSH1 0x20 ADD SWAP1 DUP2 MSTORE PUSH1 0x20 ADD PUSH1 0x0 KECCAK256 PUSH1 0x9 ADD DUP2 SWAP1 SSTORE POP DUP1 PUSH1 0x0 DUP1 DUP9 DUP2 MSTORE PUSH1 0x20 ADD SWAP1 DUP2 MSTORE PUSH1 0x20 ADD PUSH1 0x0 KECCAK256 PUSH1 0xA ADD DUP2 SWAP1 SSTORE POP DUP5 PUSH20 0xFFFFFFFFFFFFFFFFFFFFFFFFFFFFFFFFFFFFFFFF AND PUSH4 0x23B872DD CALLER ADDRESS DUP7 DUP9 PUSH2 0x1E6E SWAP2 SWAP1 PUSH2 0x45DC JUMP JUMPDEST PUSH1 0x40 MLOAD DUP5 PUSH4 0xFFFFFFFF AND PUSH1 0xE0 SHL DUP2 MSTORE PUSH1 0x4 ADD PUSH2 0x1E8C SWAP4 SWAP3 SWAP2 SWAP1 PUSH2 0x484E JUMP JUMPDEST PUSH1 0x20 PUSH1 0x40 MLOAD DUP1 DUP4 SUB DUP2 PUSH1 0x0 DUP8 GAS CALL ISZERO DUP1 ISZERO PUSH2 0x1EAB JUMPI RETURNDATASIZE PUSH1 0x0 DUP1 RETURNDATACOPY RETURNDATASIZE PUSH1 0x0 REVERT JUMPDEST POP POP POP POP PUSH1 0x40 MLOAD RETURNDATASIZE PUSH1 0x1F NOT PUSH1 0x1F DUP3 ADD AND DUP3 ADD DUP1 PUSH1 0x40 MSTORE POP DUP2 ADD SWAP1 PUSH2 0x1ECF SWAP2 SWAP1 PUSH2 0x416B JUMP JUMPDEST POP POP POP POP POP POP POP JUMP JUMPDEST PUSH1 0x0 DUP1 PUSH1 0x0 DUP6 DUP2 MSTORE PUSH1 0x20 ADD SWAP1 DUP2 MSTORE PUSH1 0x20 ADD PUSH1 0x0 KECCAK256 PUSH1 0xD ADD PUSH1 0x0 DUP5 PUSH20 0xFFFFFFFFFFFFFFFFFFFFFFFFFFFFFFFFFFFFFFFF AND PUSH20 0xFFFFFFFFFFFFFFFFFFFFFFFFFFFFFFFFFFFFFFFF AND DUP2 MSTORE PUSH1 0x20 ADD SWAP1 DUP2 MSTORE PUSH1 0x20 ADD PUSH1 0x0 KECCAK256 PUSH1 0x0 DUP4 PUSH20 0xFFFFFFFFFFFFFFFFFFFFFFFFFFFFFFFFFFFFFFFF AND PUSH20 0xFFFFFFFFFFFFFFFFFFFFFFFFFFFFFFFFFFFFFFFF AND DUP2 MSTORE PUSH1 0x20 ADD SWAP1 DUP2 MSTORE PUSH1 0x20 ADD PUSH1 0x0 KECCAK256 PUSH1 0x0 SWAP1 SLOAD SWAP1 PUSH2 0x100 EXP SWAP1 DIV PUSH1 0xFF AND SWAP1 POP SWAP4 SWAP3 POP POP POP JUMP JUMPDEST PUSH1 0x60 PUSH1 0x0 DUP1 JUMPDEST PUSH1 0x1 SLOAD DUP2 LT ISZERO PUSH2 0x2014 JUMPI DUP4 PUSH20 0xFFFFFFFFFFFFFFFFFFFFFFFFFFFFFFFFFFFFFFFF AND PUSH1 0x0 DUP1 DUP4 DUP2 MSTORE PUSH1 0x20 ADD SWAP1 DUP2 MSTORE PUSH1 0x20 ADD PUSH1 0x0 KECCAK256 PUSH1 0x0 ADD PUSH1 0x1 SWAP1 SLOAD SWAP1 PUSH2 0x100 EXP SWAP1 DIV PUSH20 0xFFFFFFFFFFFFFFFFFFFFFFFFFFFFFFFFFFFFFFFF AND PUSH20 0xFFFFFFFFFFFFFFFFFFFFFFFFFFFFFFFFFFFFFFFF AND SUB PUSH2 0x2007 JUMPI DUP2 DUP1 PUSH2 0x2003 SWAP1 PUSH2 0x3B99 JUMP JUMPDEST SWAP3 POP POP JUMPDEST DUP1 DUP1 PUSH1 0x1 ADD SWAP2 POP POP PUSH2 0x1F86 JUMP JUMPDEST POP PUSH1 0x0 DUP2 PUSH8 0xFFFFFFFFFFFFFFFF DUP2 GT ISZERO PUSH2 0x2031 JUMPI PUSH2 0x2030 PUSH2 0x303B JUMP JUMPDEST JUMPDEST PUSH1 0x40 MLOAD SWAP1 DUP1 DUP3 MSTORE DUP1 PUSH1 0x20 MUL PUSH1 0x20 ADD DUP3 ADD PUSH1 0x40 MSTORE DUP1 ISZERO PUSH2 0x205F JUMPI DUP2 PUSH1 0x20 ADD PUSH1 0x20 DUP3 MUL DUP1 CALLDATASIZE DUP4 CALLDATACOPY DUP1 DUP3 ADD SWAP2 POP POP SWAP1 POP JUMPDEST POP SWAP1 POP PUSH1 0x0 SWAP2 POP PUSH1 0x0 JUMPDEST PUSH1 0x1 SLOAD DUP2 LT ISZERO PUSH2 0x2117 JUMPI DUP5 PUSH20 0xFFFFFFFFFFFFFFFFFFFFFFFFFFFFFFFFFFFFFFFF AND PUSH1 0x0 DUP1 DUP4 DUP2 MSTORE PUSH1 0x20 ADD SWAP1 DUP2 MSTORE PUSH1 0x20 ADD PUSH1 0x0 KECCAK256 PUSH1 0x0 ADD PUSH1 0x1 SWAP1 SLOAD SWAP1 PUSH2 0x100 EXP SWAP1 DIV PUSH20 0xFFFFFFFFFFFFFFFFFFFFFFFFFFFFFFFFFFFFFFFF AND PUSH20 0xFFFFFFFFFFFFFFFFFFFFFFFFFFFFFFFFFFFFFFFF AND SUB PUSH2 0x210A JUMPI DUP1 DUP3 DUP5 DUP2 MLOAD DUP2 LT PUSH2 0x20EF JUMPI PUSH2 0x20EE PUSH2 0x3CDF JUMP JUMPDEST JUMPDEST PUSH1 0x20 MUL PUSH1 0x20 ADD ADD DUP2 DUP2 MSTORE POP POP DUP3 DUP1 PUSH2 0x2106 SWAP1 PUSH2 0x3B99 JUMP JUMPDEST SWAP4 POP POP JUMPDEST DUP1 DUP1 PUSH1 0x1 ADD SWAP2 POP POP PUSH2 0x2069 JUMP JUMPDEST POP DUP1 SWAP3 POP POP POP SWAP2 SWAP1 POP JUMP JUMPDEST PUSH1 0x0 DUP1 PUSH1 0x0 DUP5 DUP2 MSTORE PUSH1 0x20 ADD SWAP1 DUP2 MSTORE PUSH1 0x20 ADD PUSH1 0x0 KECCAK256 PUSH1 0x4 ADD PUSH1 0x0 DUP4 PUSH20 0xFFFFFFFFFFFFFFFFFFFFFFFFFFFFFFFFFFFFFFFF AND PUSH20 0xFFFFFFFFFFFFFFFFFFFFFFFFFFFFFFFFFFFFFFFF AND DUP2 MSTORE PUSH1 0x20 ADD SWAP1 DUP2 MSTORE PUSH1 0x20 ADD PUSH1 0x0 KECCAK256 PUSH1 0x0 SWAP1 SLOAD SWAP1 PUSH2 0x100 EXP SWAP1 DIV PUSH1 0xFF AND SWAP1 POP SWAP3 SWAP2 POP POP JUMP JUMPDEST PUSH1 0x0 DUP1 PUSH1 0x0 DUP5 DUP2 MSTORE PUSH1 0x20 ADD SWAP1 DUP2 MSTORE PUSH1 0x20 ADD PUSH1 0x0 KECCAK256 PUSH1 0xE ADD PUSH1 0x0 DUP4 PUSH20 0xFFFFFFFFFFFFFFFFFFFFFFFFFFFFFFFFFFFFFFFF AND PUSH20 0xFFFFFFFFFFFFFFFFFFFFFFFFFFFFFFFFFFFFFFFF AND DUP2 MSTORE PUSH1 0x20 ADD SWAP1 DUP2 MSTORE PUSH1 0x20 ADD PUSH1 0x0 KECCAK256 SLOAD SWAP1 POP SWAP3 SWAP2 POP POP JUMP JUMPDEST PUSH1 0x0 PUSH1 0x60 PUSH1 0x0 DUP1 PUSH1 0x0 DUP1 PUSH1 0x0 DUP1 PUSH1 0x0 DUP1 PUSH1 0x0 DUP1 PUSH1 0x0 DUP1 PUSH1 0x0 DUP16 DUP2 MSTORE PUSH1 0x20 ADD SWAP1 DUP2 MSTORE PUSH1 0x20 ADD PUSH1 0x0 KECCAK256 SWAP1 POP DUP1 PUSH1 0x0 ADD PUSH1 0x1 SWAP1 SLOAD SWAP1 PUSH2 0x100 EXP SWAP1 DIV PUSH20 0xFFFFFFFFFFFFFFFFFFFFFFFFFFFFFFFFFFFFFFFF AND DUP2 PUSH1 0x1 ADD DUP3 PUSH1 0x0 ADD PUSH1 0x0 SWAP1 SLOAD SWAP1 PUSH2 0x100 EXP SWAP1 DIV PUSH1 0xFF AND DUP4 PUSH1 0x6 ADD PUSH1 0x0 SWAP1 SLOAD SWAP1 PUSH2 0x100 EXP SWAP1 DIV PUSH20 0xFFFFFFFFFFFFFFFFFFFFFFFFFFFFFFFFFFFFFFFF AND DUP5 PUSH1 0x7 ADD SLOAD DUP6 PUSH1 0x8 ADD SLOAD DUP7 PUSH1 0x9 ADD SLOAD DUP8 PUSH1 0xA ADD SLOAD DUP9 PUSH1 0x2 ADD DUP1 SLOAD SWAP1 POP DUP10 PUSH1 0x3 ADD DUP1 SLOAD SWAP1 POP DUP11 PUSH1 0x10 ADD SLOAD DUP12 PUSH1 0x12 ADD SLOAD DUP11 DUP1 SLOAD PUSH2 0x22AC SWAP1 PUSH2 0x38C5 JUMP JUMPDEST DUP1 PUSH1 0x1F ADD PUSH1 0x20 DUP1 SWAP2 DIV MUL PUSH1 0x20 ADD PUSH1 0x40 MLOAD SWAP1 DUP2 ADD PUSH1 0x40 MSTORE DUP1 SWAP3 SWAP2 SWAP1 DUP2 DUP2 MSTORE PUSH1 0x20 ADD DUP3 DUP1 SLOAD PUSH2 0x22D8 SWAP1 PUSH2 0x38C5 JUMP JUMPDEST DUP1 ISZERO PUSH2 0x2325 JUMPI DUP1 PUSH1 0x1F LT PUSH2 0x22FA JUMPI PUSH2 0x100 DUP1 DUP4 SLOAD DIV MUL DUP4 MSTORE SWAP2 PUSH1 0x20 ADD SWAP2 PUSH2 0x2325 JUMP JUMPDEST DUP3 ADD SWAP2 SWAP1 PUSH1 0x0 MSTORE PUSH1 0x20 PUSH1 0x0 KECCAK256 SWAP1 JUMPDEST DUP2 SLOAD DUP2 MSTORE SWAP1 PUSH1 0x1 ADD SWAP1 PUSH1 0x20 ADD DUP1 DUP4 GT PUSH2 0x2308 JUMPI DUP3 SWAP1 SUB PUSH1 0x1F AND DUP3 ADD SWAP2 JUMPDEST POP POP POP POP POP SWAP11 POP SWAP13 POP SWAP13 POP SWAP13 POP SWAP13 POP SWAP13 POP SWAP13 POP SWAP13 POP SWAP13 POP SWAP13 POP SWAP13 POP SWAP13 POP SWAP13 POP POP SWAP2 SWAP4 SWAP6 SWAP8 SWAP10 SWAP12 POP SWAP2 SWAP4 SWAP6 SWAP8 SWAP10 SWAP12 JUMP JUMPDEST PUSH1 0x0 DUP1 PUSH1 0x0 DUP5 DUP2 MSTORE PUSH1 0x20 ADD SWAP1 DUP2 MSTORE PUSH1 0x20 ADD PUSH1 0x0 KECCAK256 PUSH1 0x11 ADD PUSH1 0x0 DUP4 PUSH20 0xFFFFFFFFFFFFFFFFFFFFFFFFFFFFFFFFFFFFFFFF AND PUSH20 0xFFFFFFFFFFFFFFFFFFFFFFFFFFFFFFFFFFFFFFFF AND DUP2 MSTORE PUSH1 0x20 ADD SWAP1 DUP2 MSTORE PUSH1 0x20 ADD PUSH1 0x0 KECCAK256 SLOAD SWAP1 POP SWAP3 SWAP2 POP POP JUMP JUMPDEST PUSH1 0x0 DUP1 PUSH1 0x0 DUP5 DUP2 MSTORE PUSH1 0x20 ADD SWAP1 DUP2 MSTORE PUSH1 0x20 ADD PUSH1 0x0 KECCAK256 PUSH1 0x14 ADD PUSH1 0x0 DUP4 PUSH20 0xFFFFFFFFFFFFFFFFFFFFFFFFFFFFFFFFFFFFFFFF AND PUSH20 0xFFFFFFFFFFFFFFFFFFFFFFFFFFFFFFFFFFFFFFFF AND DUP2 MSTORE PUSH1 0x20 ADD SWAP1 DUP2 MSTORE PUSH1 0x20 ADD PUSH1 0x0 KECCAK256 PUSH1 0x0 SWAP1 SLOAD SWAP1 PUSH2 0x100 EXP SWAP1 DIV PUSH1 0xFF AND SWAP1 POP SWAP3 SWAP2 POP POP JUMP JUMPDEST PUSH1 0x0 DUP1 PUSH1 0x0 DUP10 DUP2 MSTORE PUSH1 0x20 ADD SWAP1 DUP2 MSTORE PUSH1 0x20 ADD PUSH1 0x0 KECCAK256 SWAP1 POP DUP1 PUSH1 0x0 ADD PUSH1 0x0 SWAP1 SLOAD SWAP1 PUSH2 0x100 EXP SWAP1 DIV PUSH1 0xFF AND PUSH2 0x2482 JUMPI PUSH1 0x40 MLOAD PUSH32 0x8C379A000000000000000000000000000000000000000000000000000000000 DUP2 MSTORE PUSH1 0x4 ADD PUSH2 0x2479 SWAP1 PUSH2 0x3EC4 JUMP JUMPDEST PUSH1 0x40 MLOAD DUP1 SWAP2 SUB SWAP1 REVERT JUMPDEST DUP1 PUSH1 0xA ADD SLOAD TIMESTAMP GT ISZERO PUSH2 0x24C9 JUMPI PUSH1 0x40 MLOAD PUSH32 0x8C379A000000000000000000000000000000000000000000000000000000000 DUP2 MSTORE PUSH1 0x4 ADD PUSH2 0x24C0 SWAP1 PUSH2 0x48F7 JUMP JUMPDEST PUSH1 0x40 MLOAD DUP1 SWAP2 SUB SWAP1 REVERT JUMPDEST DUP1 PUSH1 0x5 ADD PUSH1 0x0 CALLER PUSH20 0xFFFFFFFFFFFFFFFFFFFFFFFFFFFFFFFFFFFFFFFF AND PUSH20 0xFFFFFFFFFFFFFFFFFFFFFFFFFFFFFFFFFFFFFFFF AND DUP2 MSTORE PUSH1 0x20 ADD SWAP1 DUP2 MSTORE PUSH1 0x20 ADD PUSH1 0x0 KECCAK256 PUSH1 0x0 SWAP1 SLOAD SWAP1 PUSH2 0x100 EXP SWAP1 DIV PUSH1 0xFF AND PUSH2 0x2557 JUMPI PUSH1 0x40 MLOAD PUSH32 0x8C379A000000000000000000000000000000000000000000000000000000000 DUP2 MSTORE PUSH1 0x4 ADD PUSH2 0x254E SWAP1 PUSH2 0x4989 JUMP JUMPDEST PUSH1 0x40 MLOAD DUP1 SWAP2 SUB SWAP1 REVERT JUMPDEST DUP5 DUP5 SWAP1 POP DUP8 DUP8 SWAP1 POP EQ DUP1 ISZERO PUSH2 0x2571 JUMPI POP DUP3 DUP3 SWAP1 POP DUP6 DUP6 SWAP1 POP EQ JUMPDEST PUSH2 0x25B0 JUMPI PUSH1 0x40 MLOAD PUSH32 0x8C379A000000000000000000000000000000000000000000000000000000000 DUP2 MSTORE PUSH1 0x4 ADD PUSH2 0x25A7 SWAP1 PUSH2 0x49F5 JUMP JUMPDEST PUSH1 0x40 MLOAD DUP1 SWAP2 SUB SWAP1 REVERT JUMPDEST PUSH1 0x0 JUMPDEST DUP8 DUP8 SWAP1 POP DUP2 LT ISZERO PUSH2 0x2CA9 JUMPI PUSH1 0x0 DUP1 SHL DUP3 PUSH1 0xB ADD PUSH1 0x0 CALLER PUSH20 0xFFFFFFFFFFFFFFFFFFFFFFFFFFFFFFFFFFFFFFFF AND PUSH20 0xFFFFFFFFFFFFFFFFFFFFFFFFFFFFFFFFFFFFFFFF AND DUP2 MSTORE PUSH1 0x20 ADD SWAP1 DUP2 MSTORE PUSH1 0x20 ADD PUSH1 0x0 KECCAK256 PUSH1 0x0 DUP11 DUP11 DUP6 DUP2 DUP2 LT PUSH2 0x2618 JUMPI PUSH2 0x2617 PUSH2 0x3CDF JUMP JUMPDEST JUMPDEST SWAP1 POP PUSH1 0x20 MUL ADD PUSH1 0x20 DUP2 ADD SWAP1 PUSH2 0x262D SWAP2 SWAP1 PUSH2 0x35A9 JUMP JUMPDEST PUSH20 0xFFFFFFFFFFFFFFFFFFFFFFFFFFFFFFFFFFFFFFFF AND PUSH20 0xFFFFFFFFFFFFFFFFFFFFFFFFFFFFFFFFFFFFFFFF AND DUP2 MSTORE PUSH1 0x20 ADD SWAP1 DUP2 MSTORE PUSH1 0x20 ADD PUSH1 0x0 KECCAK256 SLOAD SUB PUSH2 0x26A8 JUMPI PUSH1 0x40 MLOAD PUSH32 0x8C379A000000000000000000000000000000000000000000000000000000000 DUP2 MSTORE PUSH1 0x4 ADD PUSH2 0x269F SWAP1 PUSH2 0x4A61 JUMP JUMPDEST PUSH1 0x40 MLOAD DUP1 SWAP2 SUB SWAP1 REVERT JUMPDEST DUP2 PUSH1 0xD ADD PUSH1 0x0 CALLER PUSH20 0xFFFFFFFFFFFFFFFFFFFFFFFFFFFFFFFFFFFFFFFF AND PUSH20 0xFFFFFFFFFFFFFFFFFFFFFFFFFFFFFFFFFFFFFFFF AND DUP2 MSTORE PUSH1 0x20 ADD SWAP1 DUP2 MSTORE PUSH1 0x20 ADD PUSH1 0x0 KECCAK256 PUSH1 0x0 DUP10 DUP10 DUP5 DUP2 DUP2 LT PUSH2 0x26FE JUMPI PUSH2 0x26FD PUSH2 0x3CDF JUMP JUMPDEST JUMPDEST SWAP1 POP PUSH1 0x20 MUL ADD PUSH1 0x20 DUP2 ADD SWAP1 PUSH2 0x2713 SWAP2 SWAP1 PUSH2 0x35A9 JUMP JUMPDEST PUSH20 0xFFFFFFFFFFFFFFFFFFFFFFFFFFFFFFFFFFFFFFFF AND PUSH20 0xFFFFFFFFFFFFFFFFFFFFFFFFFFFFFFFFFFFFFFFF AND DUP2 MSTORE PUSH1 0x20 ADD SWAP1 DUP2 MSTORE PUSH1 0x20 ADD PUSH1 0x0 KECCAK256 PUSH1 0x0 SWAP1 SLOAD SWAP1 PUSH2 0x100 EXP SWAP1 DIV PUSH1 0xFF AND ISZERO PUSH2 0x279B JUMPI PUSH1 0x40 MLOAD PUSH32 0x8C379A000000000000000000000000000000000000000000000000000000000 DUP2 MSTORE PUSH1 0x4 ADD PUSH2 0x2792 SWAP1 PUSH2 0x4ACD JUMP JUMPDEST PUSH1 0x40 MLOAD DUP1 SWAP2 SUB SWAP1 REVERT JUMPDEST PUSH3 0x186A0 DUP5 DUP5 DUP4 DUP2 DUP2 LT PUSH2 0x27B2 JUMPI PUSH2 0x27B1 PUSH2 0x3CDF JUMP JUMPDEST JUMPDEST SWAP1 POP PUSH1 0x20 MUL ADD CALLDATALOAD GT ISZERO PUSH2 0x27FA JUMPI PUSH1 0x40 MLOAD PUSH32 0x8C379A000000000000000000000000000000000000000000000000000000000 DUP2 MSTORE PUSH1 0x4 ADD PUSH2 0x27F1 SWAP1 PUSH2 0x4B39 JUMP JUMPDEST PUSH1 0x40 MLOAD DUP1 SWAP2 SUB SWAP1 REVERT JUMPDEST DUP2 PUSH1 0x4 ADD PUSH1 0x0 DUP10 DUP10 DUP5 DUP2 DUP2 LT PUSH2 0x2813 JUMPI PUSH2 0x2812 PUSH2 0x3CDF JUMP JUMPDEST JUMPDEST SWAP1 POP PUSH1 0x20 MUL ADD PUSH1 0x20 DUP2 ADD SWAP1 PUSH2 0x2828 SWAP2 SWAP1 PUSH2 0x35A9 JUMP JUMPDEST PUSH20 0xFFFFFFFFFFFFFFFFFFFFFFFFFFFFFFFFFFFFFFFF AND PUSH20 0xFFFFFFFFFFFFFFFFFFFFFFFFFFFFFFFFFFFFFFFF AND DUP2 MSTORE PUSH1 0x20 ADD SWAP1 DUP2 MSTORE PUSH1 0x20 ADD PUSH1 0x0 KECCAK256 PUSH1 0x0 SWAP1 SLOAD SWAP1 PUSH2 0x100 EXP SWAP1 DIV PUSH1 0xFF AND PUSH2 0x28AF JUMPI PUSH1 0x40 MLOAD PUSH32 0x8C379A000000000000000000000000000000000000000000000000000000000 DUP2 MSTORE PUSH1 0x4 ADD PUSH2 0x28A6 SWAP1 PUSH2 0x4BA5 JUMP JUMPDEST PUSH1 0x40 MLOAD DUP1 SWAP2 SUB SWAP1 REVERT JUMPDEST PUSH2 0x28EB DUP7 DUP7 DUP4 DUP2 DUP2 LT PUSH2 0x28C5 JUMPI PUSH2 0x28C4 PUSH2 0x3CDF JUMP JUMPDEST JUMPDEST SWAP1 POP PUSH1 0x20 MUL ADD CALLDATALOAD DUP6 DUP6 DUP5 DUP2 DUP2 LT PUSH2 0x28DF JUMPI PUSH2 0x28DE PUSH2 0x3CDF JUMP JUMPDEST JUMPDEST SWAP1 POP PUSH1 0x20 MUL ADD CALLDATALOAD PUSH2 0x2D8A JUMP JUMPDEST DUP3 PUSH1 0xB ADD PUSH1 0x0 CALLER PUSH20 0xFFFFFFFFFFFFFFFFFFFFFFFFFFFFFFFFFFFFFFFF AND PUSH20 0xFFFFFFFFFFFFFFFFFFFFFFFFFFFFFFFFFFFFFFFF AND DUP2 MSTORE PUSH1 0x20 ADD SWAP1 DUP2 MSTORE PUSH1 0x20 ADD PUSH1 0x0 KECCAK256 PUSH1 0x0 DUP11 DUP11 DUP6 DUP2 DUP2 LT PUSH2 0x2941 JUMPI PUSH2 0x2940 PUSH2 0x3CDF JUMP JUMPDEST JUMPDEST SWAP1 POP PUSH1 0x20 MUL ADD PUSH1 0x20 DUP2 ADD SWAP1 PUSH2 0x2956 SWAP2 SWAP1 PUSH2 0x35A9 JUMP JUMPDEST PUSH20 0xFFFFFFFFFFFFFFFFFFFFFFFFFFFFFFFFFFFFFFFF AND PUSH20 0xFFFFFFFFFFFFFFFFFFFFFFFFFFFFFFFFFFFFFFFF AND DUP2 MSTORE PUSH1 0x20 ADD SWAP1 DUP2 MSTORE PUSH1 0x20 ADD PUSH1 0x0 KECCAK256 SLOAD EQ PUSH2 0x29D1 JUMPI PUSH1 0x40 MLOAD PUSH32 0x8C379A000000000000000000000000000000000000000000000000000000000 DUP2 MSTORE PUSH1 0x4 ADD PUSH2 0x29C8 SWAP1 PUSH2 0x4C11 JUMP JUMPDEST PUSH1 0x40 MLOAD DUP1 SWAP2 SUB SWAP1 REVERT JUMPDEST DUP4 DUP4 DUP3 DUP2 DUP2 LT PUSH2 0x29E4 JUMPI PUSH2 0x29E3 PUSH2 0x3CDF JUMP JUMPDEST JUMPDEST SWAP1 POP PUSH1 0x20 MUL ADD CALLDATALOAD DUP3 PUSH1 0xC ADD PUSH1 0x0 CALLER PUSH20 0xFFFFFFFFFFFFFFFFFFFFFFFFFFFFFFFFFFFFFFFF AND PUSH20 0xFFFFFFFFFFFFFFFFFFFFFFFFFFFFFFFFFFFFFFFF AND DUP2 MSTORE PUSH1 0x20 ADD SWAP1 DUP2 MSTORE PUSH1 0x20 ADD PUSH1 0x0 KECCAK256 PUSH1 0x0 DUP11 DUP11 DUP6 DUP2 DUP2 LT PUSH2 0x2A41 JUMPI PUSH2 0x2A40 PUSH2 0x3CDF JUMP JUMPDEST JUMPDEST SWAP1 POP PUSH1 0x20 MUL ADD PUSH1 0x20 DUP2 ADD SWAP1 PUSH2 0x2A56 SWAP2 SWAP1 PUSH2 0x35A9 JUMP JUMPDEST PUSH20 0xFFFFFFFFFFFFFFFFFFFFFFFFFFFFFFFFFFFFFFFF AND PUSH20 0xFFFFFFFFFFFFFFFFFFFFFFFFFFFFFFFFFFFFFFFF AND DUP2 MSTORE PUSH1 0x20 ADD SWAP1 DUP2 MSTORE PUSH1 0x20 ADD PUSH1 0x0 KECCAK256 DUP2 SWAP1 SSTORE POP PUSH1 0x1 DUP3 PUSH1 0xD ADD PUSH1 0x0 CALLER PUSH20 0xFFFFFFFFFFFFFFFFFFFFFFFFFFFFFFFFFFFFFFFF AND PUSH20 0xFFFFFFFFFFFFFFFFFFFFFFFFFFFFFFFFFFFFFFFF AND DUP2 MSTORE PUSH1 0x20 ADD SWAP1 DUP2 MSTORE PUSH1 0x20 ADD PUSH1 0x0 KECCAK256 PUSH1 0x0 DUP11 DUP11 DUP6 DUP2 DUP2 LT PUSH2 0x2AEC JUMPI PUSH2 0x2AEB PUSH2 0x3CDF JUMP JUMPDEST JUMPDEST SWAP1 POP PUSH1 0x20 MUL ADD PUSH1 0x20 DUP2 ADD SWAP1 PUSH2 0x2B01 SWAP2 SWAP1 PUSH2 0x35A9 JUMP JUMPDEST PUSH20 0xFFFFFFFFFFFFFFFFFFFFFFFFFFFFFFFFFFFFFFFF AND PUSH20 0xFFFFFFFFFFFFFFFFFFFFFFFFFFFFFFFFFFFFFFFF AND DUP2 MSTORE PUSH1 0x20 ADD SWAP1 DUP2 MSTORE PUSH1 0x20 ADD PUSH1 0x0 KECCAK256 PUSH1 0x0 PUSH2 0x100 EXP DUP2 SLOAD DUP2 PUSH1 0xFF MUL NOT AND SWAP1 DUP4 ISZERO ISZERO MUL OR SWAP1 SSTORE POP DUP4 DUP4 DUP3 DUP2 DUP2 LT PUSH2 0x2B65 JUMPI PUSH2 0x2B64 PUSH2 0x3CDF JUMP JUMPDEST JUMPDEST SWAP1 POP PUSH1 0x20 MUL ADD CALLDATALOAD DUP3 PUSH1 0xE ADD PUSH1 0x0 DUP11 DUP11 DUP6 DUP2 DUP2 LT PUSH2 0x2B85 JUMPI PUSH2 0x2B84 PUSH2 0x3CDF JUMP JUMPDEST JUMPDEST SWAP1 POP PUSH1 0x20 MUL ADD PUSH1 0x20 DUP2 ADD SWAP1 PUSH2 0x2B9A SWAP2 SWAP1 PUSH2 0x35A9 JUMP JUMPDEST PUSH20 0xFFFFFFFFFFFFFFFFFFFFFFFFFFFFFFFFFFFFFFFF AND PUSH20 0xFFFFFFFFFFFFFFFFFFFFFFFFFFFFFFFFFFFFFFFF AND DUP2 MSTORE PUSH1 0x20 ADD SWAP1 DUP2 MSTORE PUSH1 0x20 ADD PUSH1 0x0 KECCAK256 PUSH1 0x0 DUP3 DUP3 SLOAD PUSH2 0x2BE3 SWAP2 SWAP1 PUSH2 0x45DC JUMP JUMPDEST SWAP3 POP POP DUP2 SWAP1 SSTORE POP DUP2 PUSH1 0xF ADD PUSH1 0x0 DUP10 DUP10 DUP5 DUP2 DUP2 LT PUSH2 0x2C03 JUMPI PUSH2 0x2C02 PUSH2 0x3CDF JUMP JUMPDEST JUMPDEST SWAP1 POP PUSH1 0x20 MUL ADD PUSH1 0x20 DUP2 ADD SWAP1 PUSH2 0x2C18 SWAP2 SWAP1 PUSH2 0x35A9 JUMP JUMPDEST PUSH20 0xFFFFFFFFFFFFFFFFFFFFFFFFFFFFFFFFFFFFFFFF AND PUSH20 0xFFFFFFFFFFFFFFFFFFFFFFFFFFFFFFFFFFFFFFFF AND DUP2 MSTORE PUSH1 0x20 ADD SWAP1 DUP2 MSTORE PUSH1 0x20 ADD PUSH1 0x0 KECCAK256 PUSH1 0x0 DUP2 SLOAD DUP1 SWAP3 SWAP2 SWAP1 PUSH2 0x2C63 SWAP1 PUSH2 0x3B99 JUMP JUMPDEST SWAP2 SWAP1 POP SSTORE POP DUP4 DUP4 DUP3 DUP2 DUP2 LT PUSH2 0x2C7B JUMPI PUSH2 0x2C7A PUSH2 0x3CDF JUMP JUMPDEST JUMPDEST SWAP1 POP PUSH1 0x20 MUL ADD CALLDATALOAD DUP3 PUSH1 0x10 ADD PUSH1 0x0 DUP3 DUP3 SLOAD PUSH2 0x2C95 SWAP2 SWAP1 PUSH2 0x45DC JUMP JUMPDEST SWAP3 POP POP DUP2 SWAP1 SSTORE POP DUP1 DUP1 PUSH1 0x1 ADD SWAP2 POP POP PUSH2 0x25B3 JUMP JUMPDEST POP DUP7 DUP7 SWAP1 POP DUP2 PUSH1 0x11 ADD PUSH1 0x0 CALLER PUSH20 0xFFFFFFFFFFFFFFFFFFFFFFFFFFFFFFFFFFFFFFFF AND PUSH20 0xFFFFFFFFFFFFFFFFFFFFFFFFFFFFFFFFFFFFFFFF AND DUP2 MSTORE PUSH1 0x20 ADD SWAP1 DUP2 MSTORE PUSH1 0x20 ADD PUSH1 0x0 KECCAK256 PUSH1 0x0 DUP3 DUP3 SLOAD PUSH2 0x2CFE SWAP2 SWAP1 PUSH2 0x45DC JUMP JUMPDEST SWAP3 POP POP DUP2 SWAP1 SSTORE POP DUP7 DUP7 SWAP1 POP DUP2 PUSH1 0x12 ADD PUSH1 0x0 DUP3 DUP3 SLOAD PUSH2 0x2D1C SWAP2 SWAP1 PUSH2 0x45DC JUMP JUMPDEST SWAP3 POP POP DUP2 SWAP1 SSTORE POP POP POP POP POP POP POP POP POP JUMP JUMPDEST PUSH1 0x0 DUP1 PUSH1 0x0 DUP5 DUP2 MSTORE PUSH1 0x20 ADD SWAP1 DUP2 MSTORE PUSH1 0x20 ADD PUSH1 0x0 KECCAK256 PUSH1 0xF ADD PUSH1 0x0 DUP4 PUSH20 0xFFFFFFFFFFFFFFFFFFFFFFFFFFFFFFFFFFFFFFFF AND PUSH20 0xFFFFFFFFFFFFFFFFFFFFFFFFFFFFFFFFFFFFFFFF AND DUP2 MSTORE PUSH1 0x20 ADD SWAP1 DUP2 MSTORE PUSH1 0x20 ADD PUSH1 0x0 KECCAK256 SLOAD SWAP1 POP SWAP3 SWAP2 POP POP JUMP JUMPDEST PUSH1 0x0 DUP3 DUP3 PUSH1 0x40 MLOAD PUSH1 0x20 ADD PUSH2 0x2D9F SWAP3 SWAP2 SWAP1 PUSH2 0x4C73 JUMP JUMPDEST PUSH1 0x40 MLOAD PUSH1 0x20 DUP2 DUP4 SUB SUB DUP2 MSTORE SWAP1 PUSH1 0x40 MSTORE DUP1 MLOAD SWAP1 PUSH1 0x20 ADD KECCAK256 SWAP1 POP SWAP3 SWAP2 POP POP JUMP JUMPDEST PUSH1 0x0 PUSH1 0x40 MLOAD SWAP1 POP SWAP1 JUMP JUMPDEST PUSH1 0x0 DUP1 REVERT JUMPDEST PUSH1 0x0 DUP1 REVERT JUMPDEST PUSH1 0x0 DUP2 SWAP1 POP SWAP2 SWAP1 POP JUMP JUMPDEST PUSH2 0x2DE4 DUP2 PUSH2 0x2DD1 JUMP JUMPDEST DUP2 EQ PUSH2 0x2DEF JUMPI PUSH1 0x0 DUP1 REVERT JUMPDEST POP JUMP JUMPDEST PUSH1 0x0 DUP2 CALLDATALOAD SWAP1 POP PUSH2 0x2E01 DUP2 PUSH2 0x2DDB JUMP JUMPDEST SWAP3 SWAP2 POP POP JUMP JUMPDEST PUSH1 0x0 PUSH1 0x20 DUP3 DUP5 SUB SLT ISZERO PUSH2 0x2E1D JUMPI PUSH2 0x2E1C PUSH2 0x2DC7 JUMP JUMPDEST JUMPDEST PUSH1 0x0 PUSH2 0x2E2B DUP5 DUP3 DUP6 ADD PUSH2 0x2DF2 JUMP JUMPDEST SWAP2 POP POP SWAP3 SWAP2 POP POP JUMP JUMPDEST PUSH1 0x0 DUP2 ISZERO ISZERO SWAP1 POP SWAP2 SWAP1 POP JUMP JUMPDEST PUSH2 0x2E49 DUP2 PUSH2 0x2E34 JUMP JUMPDEST DUP3 MSTORE POP POP JUMP JUMPDEST PUSH1 0x0 PUSH20 0xFFFFFFFFFFFFFFFFFFFFFFFFFFFFFFFFFFFFFFFF DUP3 AND SWAP1 POP SWAP2 SWAP1 POP JUMP JUMPDEST PUSH1 0x0 PUSH2 0x2E7A DUP3 PUSH2 0x2E4F JUMP JUMPDEST SWAP1 POP SWAP2 SWAP1 POP JUMP JUMPDEST PUSH2 0x2E8A DUP2 PUSH2 0x2E6F JUMP JUMPDEST DUP3 MSTORE POP POP JUMP JUMPDEST PUSH1 0x0 DUP2 MLOAD SWAP1 POP SWAP2 SWAP1 POP JUMP JUMPDEST PUSH1 0x0 DUP3 DUP3 MSTORE PUSH1 0x20 DUP3 ADD SWAP1 POP SWAP3 SWAP2 POP POP JUMP JUMPDEST PUSH1 0x0 JUMPDEST DUP4 DUP2 LT ISZERO PUSH2 0x2ECA JUMPI DUP1 DUP3 ADD MLOAD DUP2 DUP5 ADD MSTORE PUSH1 0x20 DUP2 ADD SWAP1 POP PUSH2 0x2EAF JUMP JUMPDEST PUSH1 0x0 DUP5 DUP5 ADD MSTORE POP POP POP POP JUMP JUMPDEST PUSH1 0x0 PUSH1 0x1F NOT PUSH1 0x1F DUP4 ADD AND SWAP1 POP SWAP2 SWAP1 POP JUMP JUMPDEST PUSH1 0x0 PUSH2 0x2EF2 DUP3 PUSH2 0x2E90 JUMP JUMPDEST PUSH2 0x2EFC DUP2 DUP6 PUSH2 0x2E9B JUMP JUMPDEST SWAP4 POP PUSH2 0x2F0C DUP2 DUP6 PUSH1 0x20 DUP7 ADD PUSH2 0x2EAC JUMP JUMPDEST PUSH2 0x2F15 DUP2 PUSH2 0x2ED6 JUMP JUMPDEST DUP5 ADD SWAP2 POP POP SWAP3 SWAP2 POP POP JUMP JUMPDEST PUSH1 0x0 DUP2 SWAP1 POP SWAP2 SWAP1 POP JUMP JUMPDEST PUSH1 0x0 PUSH2 0x2F45 PUSH2 0x2F40 PUSH2 0x2F3B DUP5 PUSH2 0x2E4F JUMP JUMPDEST PUSH2 0x2F20 JUMP JUMPDEST PUSH2 0x2E4F JUMP JUMPDEST SWAP1 POP SWAP2 SWAP1 POP JUMP JUMPDEST PUSH1 0x0 PUSH2 0x2F57 DUP3 PUSH2 0x2F2A JUMP JUMPDEST SWAP1 POP SWAP2 SWAP1 POP JUMP JUMPDEST PUSH1 0x0 PUSH2 0x2F69 DUP3 PUSH2 0x2F4C JUMP JUMPDEST SWAP1 POP SWAP2 SWAP1 POP JUMP JUMPDEST PUSH2 0x2F79 DUP2 PUSH2 0x2F5E JUMP JUMPDEST DUP3 MSTORE POP POP JUMP JUMPDEST PUSH2 0x2F88 DUP2 PUSH2 0x2DD1 JUMP JUMPDEST DUP3 MSTORE POP POP JUMP JUMPDEST PUSH1 0x0 PUSH2 0x140 DUP3 ADD SWAP1 POP PUSH2 0x2FA4 PUSH1 0x0 DUP4 ADD DUP14 PUSH2 0x2E40 JUMP JUMPDEST PUSH2 0x2FB1 PUSH1 0x20 DUP4 ADD DUP13 PUSH2 0x2E81 JUMP JUMPDEST DUP2 DUP2 SUB PUSH1 0x40 DUP4 ADD MSTORE PUSH2 0x2FC3 DUP2 DUP12 PUSH2 0x2EE7 JUMP JUMPDEST SWAP1 POP PUSH2 0x2FD2 PUSH1 0x60 DUP4 ADD DUP11 PUSH2 0x2F70 JUMP JUMPDEST PUSH2 0x2FDF PUSH1 0x80 DUP4 ADD DUP10 PUSH2 0x2F7F JUMP JUMPDEST PUSH2 0x2FEC PUSH1 0xA0 DUP4 ADD DUP9 PUSH2 0x2F7F JUMP JUMPDEST PUSH2 0x2FF9 PUSH1 0xC0 DUP4 ADD DUP8 PUSH2 0x2F7F JUMP JUMPDEST PUSH2 0x3006 PUSH1 0xE0 DUP4 ADD DUP7 PUSH2 0x2F7F JUMP JUMPDEST PUSH2 0x3014 PUSH2 0x100 DUP4 ADD DUP6 PUSH2 0x2F7F JUMP JUMPDEST PUSH2 0x3022 PUSH2 0x120 DUP4 ADD DUP5 PUSH2 0x2F7F JUMP JUMPDEST SWAP12 SWAP11 POP POP POP POP POP POP POP POP POP POP POP JUMP JUMPDEST PUSH1 0x0 DUP1 REVERT JUMPDEST PUSH1 0x0 DUP1 REVERT JUMPDEST PUSH32 0x4E487B7100000000000000000000000000000000000000000000000000000000 PUSH1 0x0 MSTORE PUSH1 0x41 PUSH1 0x4 MSTORE PUSH1 0x24 PUSH1 0x0 REVERT JUMPDEST PUSH2 0x3073 DUP3 PUSH2 0x2ED6 JUMP JUMPDEST DUP2 ADD DUP2 DUP2 LT PUSH8 0xFFFFFFFFFFFFFFFF DUP3 GT OR ISZERO PUSH2 0x3092 JUMPI PUSH2 0x3091 PUSH2 0x303B JUMP JUMPDEST JUMPDEST DUP1 PUSH1 0x40 MSTORE POP POP POP JUMP JUMPDEST PUSH1 0x0 PUSH2 0x30A5 PUSH2 0x2DBD JUMP JUMPDEST SWAP1 POP PUSH2 0x30B1 DUP3 DUP3 PUSH2 0x306A JUMP JUMPDEST SWAP2 SWAP1 POP JUMP JUMPDEST PUSH1 0x0 PUSH8 0xFFFFFFFFFFFFFFFF DUP3 GT ISZERO PUSH2 0x30D1 JUMPI PUSH2 0x30D0 PUSH2 0x303B JUMP JUMPDEST JUMPDEST PUSH2 0x30DA DUP3 PUSH2 0x2ED6 JUMP JUMPDEST SWAP1 POP PUSH1 0x20 DUP2 ADD SWAP1 POP SWAP2 SWAP1 POP JUMP JUMPDEST DUP3 DUP2 DUP4 CALLDATACOPY PUSH1 0x0 DUP4 DUP4 ADD MSTORE POP POP POP JUMP JUMPDEST PUSH1 0x0 PUSH2 0x3109 PUSH2 0x3104 DUP5 PUSH2 0x30B6 JUMP JUMPDEST PUSH2 0x309B JUMP JUMPDEST SWAP1 POP DUP3 DUP2 MSTORE PUSH1 0x20 DUP2 ADD DUP5 DUP5 DUP5 ADD GT ISZERO PUSH2 0x3125 JUMPI PUSH2 0x3124 PUSH2 0x3036 JUMP JUMPDEST JUMPDEST PUSH2 0x3130 DUP5 DUP3 DUP6 PUSH2 0x30E7 JUMP JUMPDEST POP SWAP4 SWAP3 POP POP POP JUMP JUMPDEST PUSH1 0x0 DUP3 PUSH1 0x1F DUP4 ADD SLT PUSH2 0x314D JUMPI PUSH2 0x314C PUSH2 0x3031 JUMP JUMPDEST JUMPDEST DUP2 CALLDATALOAD PUSH2 0x315D DUP5 DUP3 PUSH1 0x20 DUP7 ADD PUSH2 0x30F6 JUMP JUMPDEST SWAP2 POP POP SWAP3 SWAP2 POP POP JUMP JUMPDEST PUSH1 0x0 PUSH1 0x20 DUP3 DUP5 SUB SLT ISZERO PUSH2 0x317C JUMPI PUSH2 0x317B PUSH2 0x2DC7 JUMP JUMPDEST JUMPDEST PUSH1 0x0 DUP3 ADD CALLDATALOAD PUSH8 0xFFFFFFFFFFFFFFFF DUP2 GT ISZERO PUSH2 0x319A JUMPI PUSH2 0x3199 PUSH2 0x2DCC JUMP JUMPDEST JUMPDEST PUSH2 0x31A6 DUP5 DUP3 DUP6 ADD PUSH2 0x3138 JUMP JUMPDEST SWAP2 POP POP SWAP3 SWAP2 POP POP JUMP JUMPDEST PUSH2 0x31B8 DUP2 PUSH2 0x2E6F JUMP JUMPDEST DUP2 EQ PUSH2 0x31C3 JUMPI PUSH1 0x0 DUP1 REVERT JUMPDEST POP JUMP JUMPDEST PUSH1 0x0 DUP2 CALLDATALOAD SWAP1 POP PUSH2 0x31D5 DUP2 PUSH2 0x31AF JUMP JUMPDEST SWAP3 SWAP2 POP POP JUMP JUMPDEST PUSH1 0x0 DUP1 PUSH1 0x40 DUP4 DUP6 SUB SLT ISZERO PUSH2 0x31F2 JUMPI PUSH2 0x31F1 PUSH2 0x2DC7 JUMP JUMPDEST JUMPDEST PUSH1 0x0 PUSH2 0x3200 DUP6 DUP3 DUP7 ADD PUSH2 0x2DF2 JUMP JUMPDEST SWAP3 POP POP PUSH1 0x20 PUSH2 0x3211 DUP6 DUP3 DUP7 ADD PUSH2 0x31C6 JUMP JUMPDEST SWAP2 POP POP SWAP3 POP SWAP3 SWAP1 POP JUMP JUMPDEST PUSH1 0x0 PUSH1 0x20 DUP3 ADD SWAP1 POP PUSH2 0x3230 PUSH1 0x0 DUP4 ADD DUP5 PUSH2 0x2E40 JUMP JUMPDEST SWAP3 SWAP2 POP POP JUMP JUMPDEST PUSH1 0x0 PUSH1 0x20 DUP3 ADD SWAP1 POP PUSH2 0x324B PUSH1 0x0 DUP4 ADD DUP5 PUSH2 0x2F7F JUMP JUMPDEST SWAP3 SWAP2 POP POP JUMP JUMPDEST PUSH1 0x0 DUP1 REVERT JUMPDEST PUSH1 0x0 DUP1 REVERT JUMPDEST PUSH1 0x0 DUP1 DUP4 PUSH1 0x1F DUP5 ADD SLT PUSH2 0x3271 JUMPI PUSH2 0x3270 PUSH2 0x3031 JUMP JUMPDEST JUMPDEST DUP3 CALLDATALOAD SWAP1 POP PUSH8 0xFFFFFFFFFFFFFFFF DUP2 GT ISZERO PUSH2 0x328E JUMPI PUSH2 0x328D PUSH2 0x3251 JUMP JUMPDEST JUMPDEST PUSH1 0x20 DUP4 ADD SWAP2 POP DUP4 PUSH1 0x20 DUP3 MUL DUP4 ADD GT ISZERO PUSH2 0x32AA JUMPI PUSH2 0x32A9 PUSH2 0x3256 JUMP JUMPDEST JUMPDEST SWAP3 POP SWAP3 SWAP1 POP JUMP JUMPDEST PUSH1 0x0 DUP1 PUSH1 0x0 PUSH1 0x40 DUP5 DUP7 SUB SLT ISZERO PUSH2 0x32CA JUMPI PUSH2 0x32C9 PUSH2 0x2DC7 JUMP JUMPDEST JUMPDEST PUSH1 0x0 PUSH2 0x32D8 DUP7 DUP3 DUP8 ADD PUSH2 0x2DF2 JUMP JUMPDEST SWAP4 POP POP PUSH1 0x20 DUP5 ADD CALLDATALOAD PUSH8 0xFFFFFFFFFFFFFFFF DUP2 GT ISZERO PUSH2 0x32F9 JUMPI PUSH2 0x32F8 PUSH2 0x2DCC JUMP JUMPDEST JUMPDEST PUSH2 0x3305 DUP7 DUP3 DUP8 ADD PUSH2 0x325B JUMP JUMPDEST SWAP3 POP SWAP3 POP POP SWAP3 POP SWAP3 POP SWAP3 JUMP JUMPDEST PUSH1 0x0 DUP1 PUSH1 0x40 DUP4 DUP6 SUB SLT ISZERO PUSH2 0x3328 JUMPI PUSH2 0x3327 PUSH2 0x2DC7 JUMP JUMPDEST JUMPDEST PUSH1 0x0 PUSH2 0x3336 DUP6 DUP3 DUP7 ADD PUSH2 0x2DF2 JUMP JUMPDEST SWAP3 POP POP PUSH1 0x20 PUSH2 0x3347 DUP6 DUP3 DUP7 ADD PUSH2 0x2DF2 JUMP JUMPDEST SWAP2 POP POP SWAP3 POP SWAP3 SWAP1 POP JUMP JUMPDEST PUSH1 0x0 PUSH1 0x20 DUP3 ADD SWAP1 POP PUSH2 0x3366 PUSH1 0x0 DUP4 ADD DUP5 PUSH2 0x2E81 JUMP JUMPDEST SWAP3 SWAP2 POP POP JUMP JUMPDEST PUSH1 0x0 DUP1 PUSH1 0x0 PUSH1 0x60 DUP5 DUP7 SUB SLT ISZERO PUSH2 0x3385 JUMPI PUSH2 0x3384 PUSH2 0x2DC7 JUMP JUMPDEST JUMPDEST PUSH1 0x0 PUSH2 0x3393 DUP7 DUP3 DUP8 ADD PUSH2 0x2DF2 JUMP JUMPDEST SWAP4 POP POP PUSH1 0x20 PUSH2 0x33A4 DUP7 DUP3 DUP8 ADD PUSH2 0x31C6 JUMP JUMPDEST SWAP3 POP POP PUSH1 0x40 PUSH2 0x33B5 DUP7 DUP3 DUP8 ADD PUSH2 0x31C6 JUMP JUMPDEST SWAP2 POP POP SWAP3 POP SWAP3 POP SWAP3 JUMP JUMPDEST PUSH1 0x0 DUP2 SWAP1 POP SWAP2 SWAP1 POP JUMP JUMPDEST PUSH2 0x33D2 DUP2 PUSH2 0x33BF JUMP JUMPDEST DUP3 MSTORE POP POP JUMP JUMPDEST PUSH1 0x0 PUSH1 0x20 DUP3 ADD SWAP1 POP PUSH2 0x33ED PUSH1 0x0 DUP4 ADD DUP5 PUSH2 0x33C9 JUMP JUMPDEST SWAP3 SWAP2 POP POP JUMP JUMPDEST PUSH1 0x0 DUP1 DUP4 PUSH1 0x1F DUP5 ADD SLT PUSH2 0x3409 JUMPI PUSH2 0x3408 PUSH2 0x3031 JUMP JUMPDEST JUMPDEST DUP3 CALLDATALOAD SWAP1 POP PUSH8 0xFFFFFFFFFFFFFFFF DUP2 GT ISZERO PUSH2 0x3426 JUMPI PUSH2 0x3425 PUSH2 0x3251 JUMP JUMPDEST JUMPDEST PUSH1 0x20 DUP4 ADD SWAP2 POP DUP4 PUSH1 0x20 DUP3 MUL DUP4 ADD GT ISZERO PUSH2 0x3442 JUMPI PUSH2 0x3441 PUSH2 0x3256 JUMP JUMPDEST JUMPDEST SWAP3 POP SWAP3 SWAP1 POP JUMP JUMPDEST PUSH1 0x0 DUP1 PUSH1 0x0 DUP1 PUSH1 0x0 PUSH1 0x60 DUP7 DUP9 SUB SLT ISZERO PUSH2 0x3465 JUMPI PUSH2 0x3464 PUSH2 0x2DC7 JUMP JUMPDEST JUMPDEST PUSH1 0x0 PUSH2 0x3473 DUP9 DUP3 DUP10 ADD PUSH2 0x2DF2 JUMP JUMPDEST SWAP6 POP POP PUSH1 0x20 DUP7 ADD CALLDATALOAD PUSH8 0xFFFFFFFFFFFFFFFF DUP2 GT ISZERO PUSH2 0x3494 JUMPI PUSH2 0x3493 PUSH2 0x2DCC JUMP JUMPDEST JUMPDEST PUSH2 0x34A0 DUP9 DUP3 DUP10 ADD PUSH2 0x325B JUMP JUMPDEST SWAP5 POP SWAP5 POP POP PUSH1 0x40 DUP7 ADD CALLDATALOAD PUSH8 0xFFFFFFFFFFFFFFFF DUP2 GT ISZERO PUSH2 0x34C3 JUMPI PUSH2 0x34C2 PUSH2 0x2DCC JUMP JUMPDEST JUMPDEST PUSH2 0x34CF DUP9 DUP3 DUP10 ADD PUSH2 0x33F3 JUMP JUMPDEST SWAP3 POP SWAP3 POP POP SWAP3 SWAP6 POP SWAP3 SWAP6 SWAP1 SWAP4 POP JUMP JUMPDEST PUSH1 0x0 PUSH2 0x34E9 DUP3 PUSH2 0x2E6F JUMP JUMPDEST SWAP1 POP SWAP2 SWAP1 POP JUMP JUMPDEST PUSH2 0x34F9 DUP2 PUSH2 0x34DE JUMP JUMPDEST DUP2 EQ PUSH2 0x3504 JUMPI PUSH1 0x0 DUP1 REVERT JUMPDEST POP JUMP JUMPDEST PUSH1 0x0 DUP2 CALLDATALOAD SWAP1 POP PUSH2 0x3516 DUP2 PUSH2 0x34F0 JUMP JUMPDEST SWAP3 SWAP2 POP POP JUMP JUMPDEST PUSH1 0x0 DUP1 PUSH1 0x0 DUP1 PUSH1 0x0 DUP1 PUSH1 0xC0 DUP8 DUP10 SUB SLT ISZERO PUSH2 0x3539 JUMPI PUSH2 0x3538 PUSH2 0x2DC7 JUMP JUMPDEST JUMPDEST PUSH1 0x0 PUSH2 0x3547 DUP10 DUP3 DUP11 ADD PUSH2 0x2DF2 JUMP JUMPDEST SWAP7 POP POP PUSH1 0x20 PUSH2 0x3558 DUP10 DUP3 DUP11 ADD PUSH2 0x3507 JUMP JUMPDEST SWAP6 POP POP PUSH1 0x40 PUSH2 0x3569 DUP10 DUP3 DUP11 ADD PUSH2 0x2DF2 JUMP JUMPDEST SWAP5 POP POP PUSH1 0x60 PUSH2 0x357A DUP10 DUP3 DUP11 ADD PUSH2 0x2DF2 JUMP JUMPDEST SWAP4 POP POP PUSH1 0x80 PUSH2 0x358B DUP10 DUP3 DUP11 ADD PUSH2 0x2DF2 JUMP JUMPDEST SWAP3 POP POP PUSH1 0xA0 PUSH2 0x359C DUP10 DUP3 DUP11 ADD PUSH2 0x2DF2 JUMP JUMPDEST SWAP2 POP POP SWAP3 SWAP6 POP SWAP3 SWAP6 POP SWAP3 SWAP6 JUMP JUMPDEST PUSH1 0x0 PUSH1 0x20 DUP3 DUP5 SUB SLT ISZERO PUSH2 0x35BF JUMPI PUSH2 0x35BE PUSH2 0x2DC7 JUMP JUMPDEST JUMPDEST PUSH1 0x0 PUSH2 0x35CD DUP5 DUP3 DUP6 ADD PUSH2 0x31C6 JUMP JUMPDEST SWAP2 POP POP SWAP3 SWAP2 POP POP JUMP JUMPDEST PUSH1 0x0 DUP2 MLOAD SWAP1 POP SWAP2 SWAP1 POP JUMP JUMPDEST PUSH1 0x0 DUP3 DUP3 MSTORE PUSH1 0x20 DUP3 ADD SWAP1 POP SWAP3 SWAP2 POP POP JUMP JUMPDEST PUSH1 0x0 DUP2 SWAP1 POP PUSH1 0x20 DUP3 ADD SWAP1 POP SWAP2 SWAP1 POP JUMP JUMPDEST PUSH2 0x360B DUP2 PUSH2 0x2DD1 JUMP JUMPDEST DUP3 MSTORE POP POP JUMP JUMPDEST PUSH1 0x0 PUSH2 0x361D DUP4 DUP4 PUSH2 0x3602 JUMP JUMPDEST PUSH1 0x20 DUP4 ADD SWAP1 POP SWAP3 SWAP2 POP POP JUMP JUMPDEST PUSH1 0x0 PUSH1 0x20 DUP3 ADD SWAP1 POP SWAP2 SWAP1 POP JUMP JUMPDEST PUSH1 0x0 PUSH2 0x3641 DUP3 PUSH2 0x35D6 JUMP JUMPDEST PUSH2 0x364B DUP2 DUP6 PUSH2 0x35E1 JUMP JUMPDEST SWAP4 POP PUSH2 0x3656 DUP4 PUSH2 0x35F2 JUMP JUMPDEST DUP1 PUSH1 0x0 JUMPDEST DUP4 DUP2 LT ISZERO PUSH2 0x3687 JUMPI DUP2 MLOAD PUSH2 0x366E DUP9 DUP3 PUSH2 0x3611 JUMP JUMPDEST SWAP8 POP PUSH2 0x3679 DUP4 PUSH2 0x3629 JUMP JUMPDEST SWAP3 POP POP PUSH1 0x1 DUP2 ADD SWAP1 POP PUSH2 0x365A JUMP JUMPDEST POP DUP6 SWAP4 POP POP POP POP SWAP3 SWAP2 POP POP JUMP JUMPDEST PUSH1 0x0 PUSH1 0x20 DUP3 ADD SWAP1 POP DUP2 DUP2 SUB PUSH1 0x0 DUP4 ADD MSTORE PUSH2 0x36AE DUP2 DUP5 PUSH2 0x3636 JUMP JUMPDEST SWAP1 POP SWAP3 SWAP2 POP POP JUMP JUMPDEST PUSH1 0x0 PUSH2 0x180 DUP3 ADD SWAP1 POP PUSH2 0x36CC PUSH1 0x0 DUP4 ADD DUP16 PUSH2 0x2E81 JUMP JUMPDEST DUP2 DUP2 SUB PUSH1 0x20 DUP4 ADD MSTORE PUSH2 0x36DE DUP2 DUP15 PUSH2 0x2EE7 JUMP JUMPDEST SWAP1 POP PUSH2 0x36ED PUSH1 0x40 DUP4 ADD DUP14 PUSH2 0x2E40 JUMP JUMPDEST PUSH2 0x36FA PUSH1 0x60 DUP4 ADD DUP13 PUSH2 0x2F70 JUMP JUMPDEST PUSH2 0x3707 PUSH1 0x80 DUP4 ADD DUP12 PUSH2 0x2F7F JUMP JUMPDEST PUSH2 0x3714 PUSH1 0xA0 DUP4 ADD DUP11 PUSH2 0x2F7F JUMP JUMPDEST PUSH2 0x3721 PUSH1 0xC0 DUP4 ADD DUP10 PUSH2 0x2F7F JUMP JUMPDEST PUSH2 0x372E PUSH1 0xE0 DUP4 ADD DUP9 PUSH2 0x2F7F JUMP JUMPDEST PUSH2 0x373C PUSH2 0x100 DUP4 ADD DUP8 PUSH2 0x2F7F JUMP JUMPDEST PUSH2 0x374A PUSH2 0x120 DUP4 ADD DUP7 PUSH2 0x2F7F JUMP JUMPDEST PUSH2 0x3758 PUSH2 0x140 DUP4 ADD DUP6 PUSH2 0x2F7F JUMP JUMPDEST PUSH2 0x3766 PUSH2 0x160 DUP4 ADD DUP5 PUSH2 0x2F7F JUMP JUMPDEST SWAP14 SWAP13 POP POP POP POP POP POP POP POP POP POP POP POP POP JUMP JUMPDEST PUSH1 0x0 DUP1 DUP4 PUSH1 0x1F DUP5 ADD SLT PUSH2 0x378D JUMPI PUSH2 0x378C PUSH2 0x3031 JUMP JUMPDEST JUMPDEST DUP3 CALLDATALOAD SWAP1 POP PUSH8 0xFFFFFFFFFFFFFFFF DUP2 GT ISZERO PUSH2 0x37AA JUMPI PUSH2 0x37A9 PUSH2 0x3251 JUMP JUMPDEST JUMPDEST PUSH1 0x20 DUP4 ADD SWAP2 POP DUP4 PUSH1 0x20 DUP3 MUL DUP4 ADD GT ISZERO PUSH2 0x37C6 JUMPI PUSH2 0x37C5 PUSH2 0x3256 JUMP JUMPDEST JUMPDEST SWAP3 POP SWAP3 SWAP1 POP JUMP JUMPDEST PUSH1 0x0 DUP1 PUSH1 0x0 DUP1 PUSH1 0x0 DUP1 PUSH1 0x0 PUSH1 0x80 DUP9 DUP11 SUB SLT ISZERO PUSH2 0x37EC JUMPI PUSH2 0x37EB PUSH2 0x2DC7 JUMP JUMPDEST JUMPDEST PUSH1 0x0 PUSH2 0x37FA DUP11 DUP3 DUP12 ADD PUSH2 0x2DF2 JUMP JUMPDEST SWAP8 POP POP PUSH1 0x20 DUP9 ADD CALLDATALOAD PUSH8 0xFFFFFFFFFFFFFFFF DUP2 GT ISZERO PUSH2 0x381B JUMPI PUSH2 0x381A PUSH2 0x2DCC JUMP JUMPDEST JUMPDEST PUSH2 0x3827 DUP11 DUP3 DUP12 ADD PUSH2 0x325B JUMP JUMPDEST SWAP7 POP SWAP7 POP POP PUSH1 0x40 DUP9 ADD CALLDATALOAD PUSH8 0xFFFFFFFFFFFFFFFF DUP2 GT ISZERO PUSH2 0x384A JUMPI PUSH2 0x3849 PUSH2 0x2DCC JUMP JUMPDEST JUMPDEST PUSH2 0x3856 DUP11 DUP3 DUP12 ADD PUSH2 0x33F3 JUMP JUMPDEST SWAP5 POP SWAP5 POP POP PUSH1 0x60 DUP9 ADD CALLDATALOAD PUSH8 0xFFFFFFFFFFFFFFFF DUP2 GT ISZERO PUSH2 0x3879 JUMPI PUSH2 0x3878 PUSH2 0x2DCC JUMP JUMPDEST JUMPDEST PUSH2 0x3885 DUP11 DUP3 DUP12 ADD PUSH2 0x3777 JUMP JUMPDEST SWAP3 POP SWAP3 POP POP SWAP3 SWAP6 SWAP9 SWAP2 SWAP5 SWAP8 POP SWAP3 SWAP6 POP JUMP JUMPDEST PUSH32 0x4E487B7100000000000000000000000000000000000000000000000000000000 PUSH1 0x0 MSTORE PUSH1 0x22 PUSH1 0x4 MSTORE PUSH1 0x24 PUSH1 0x0 REVERT JUMPDEST PUSH1 0x0 PUSH1 0x2 DUP3 DIV SWAP1 POP PUSH1 0x1 DUP3 AND DUP1 PUSH2 0x38DD JUMPI PUSH1 0x7F DUP3 AND SWAP2 POP JUMPDEST PUSH1 0x20 DUP3 LT DUP2 SUB PUSH2 0x38F0 JUMPI PUSH2 0x38EF PUSH2 0x3896 JUMP JUMPDEST JUMPDEST POP SWAP2 SWAP1 POP JUMP JUMPDEST PUSH1 0x0 DUP2 SWAP1 POP DUP2 PUSH1 0x0 MSTORE PUSH1 0x20 PUSH1 0x0 KECCAK256 SWAP1 POP SWAP2 SWAP1 POP JUMP JUMPDEST PUSH1 0x0 PUSH1 0x20 PUSH1 0x1F DUP4 ADD DIV SWAP1 POP SWAP2 SWAP1 POP JUMP JUMPDEST PUSH1 0x0 DUP3 DUP3 SHL SWAP1 POP SWAP3 SWAP2 POP POP JUMP JUMPDEST PUSH1 0x0 PUSH1 0x8 DUP4 MUL PUSH2 0x3958 PUSH32 0xFFFFFFFFFFFFFFFFFFFFFFFFFFFFFFFFFFFFFFFFFFFFFFFFFFFFFFFFFFFFFFFF DUP3 PUSH2 0x391B JUMP JUMPDEST PUSH2 0x3962 DUP7 DUP4 PUSH2 0x391B JUMP JUMPDEST SWAP6 POP DUP1 NOT DUP5 AND SWAP4 POP DUP1 DUP7 AND DUP5 OR SWAP3 POP POP POP SWAP4 SWAP3 POP POP POP JUMP JUMPDEST PUSH1 0x0 PUSH2 0x3995 PUSH2 0x3990 PUSH2 0x398B DUP5 PUSH2 0x2DD1 JUMP JUMPDEST PUSH2 0x2F20 JUMP JUMPDEST PUSH2 0x2DD1 JUMP JUMPDEST SWAP1 POP SWAP2 SWAP1 POP JUMP JUMPDEST PUSH1 0x0 DUP2 SWAP1 POP SWAP2 SWAP1 POP JUMP JUMPDEST PUSH2 0x39AF DUP4 PUSH2 0x397A JUMP JUMPDEST PUSH2 0x39C3 PUSH2 0x39BB DUP3 PUSH2 0x399C JUMP JUMPDEST DUP5 DUP5 SLOAD PUSH2 0x3928 JUMP JUMPDEST DUP3 SSTORE POP POP POP POP JUMP JUMPDEST PUSH1 0x0 SWAP1 JUMP JUMPDEST PUSH2 0x39D8 PUSH2 0x39CB JUMP JUMPDEST PUSH2 0x39E3 DUP2 DUP5 DUP5 PUSH2 0x39A6 JUMP JUMPDEST POP POP POP JUMP JUMPDEST JUMPDEST DUP2 DUP2 LT ISZERO PUSH2 0x3A07 JUMPI PUSH2 0x39FC PUSH1 0x0 DUP3 PUSH2 0x39D0 JUMP JUMPDEST PUSH1 0x1 DUP2 ADD SWAP1 POP PUSH2 0x39E9 JUMP JUMPDEST POP POP JUMP JUMPDEST PUSH1 0x1F DUP3 GT ISZERO PUSH2 0x3A4C JUMPI PUSH2 0x3A1D DUP2 PUSH2 0x38F6 JUMP JUMPDEST PUSH2 0x3A26 DUP5 PUSH2 0x390B JUMP JUMPDEST DUP2 ADD PUSH1 0x20 DUP6 LT ISZERO PUSH2 0x3A35 JUMPI DUP2 SWAP1 POP JUMPDEST PUSH2 0x3A49 PUSH2 0x3A41 DUP6 PUSH2 0x390B JUMP JUMPDEST DUP4 ADD DUP3 PUSH2 0x39E8 JUMP JUMPDEST POP POP JUMPDEST POP POP POP JUMP JUMPDEST PUSH1 0x0 DUP3 DUP3 SHR SWAP1 POP SWAP3 SWAP2 POP POP JUMP JUMPDEST PUSH1 0x0 PUSH2 0x3A6F PUSH1 0x0 NOT DUP5 PUSH1 0x8 MUL PUSH2 0x3A51 JUMP JUMPDEST NOT DUP1 DUP4 AND SWAP2 POP POP SWAP3 SWAP2 POP POP JUMP JUMPDEST PUSH1 0x0 PUSH2 0x3A88 DUP4 DUP4 PUSH2 0x3A5E JUMP JUMPDEST SWAP2 POP DUP3 PUSH1 0x2 MUL DUP3 OR SWAP1 POP SWAP3 SWAP2 POP POP JUMP JUMPDEST PUSH2 0x3AA1 DUP3 PUSH2 0x2E90 JUMP JUMPDEST PUSH8 0xFFFFFFFFFFFFFFFF DUP2 GT ISZERO PUSH2 0x3ABA JUMPI PUSH2 0x3AB9 PUSH2 0x303B JUMP JUMPDEST JUMPDEST PUSH2 0x3AC4 DUP3 SLOAD PUSH2 0x38C5 JUMP JUMPDEST PUSH2 0x3ACF DUP3 DUP3 DUP6 PUSH2 0x3A0B JUMP JUMPDEST PUSH1 0x0 PUSH1 0x20 SWAP1 POP PUSH1 0x1F DUP4 GT PUSH1 0x1 DUP2 EQ PUSH2 0x3B02 JUMPI PUSH1 0x0 DUP5 ISZERO PUSH2 0x3AF0 JUMPI DUP3 DUP8 ADD MLOAD SWAP1 POP JUMPDEST PUSH2 0x3AFA DUP6 DUP3 PUSH2 0x3A7C JUMP JUMPDEST DUP7 SSTORE POP PUSH2 0x3B62 JUMP JUMPDEST PUSH1 0x1F NOT DUP5 AND PUSH2 0x3B10 DUP7 PUSH2 0x38F6 JUMP JUMPDEST PUSH1 0x0 JUMPDEST DUP3 DUP2 LT ISZERO PUSH2 0x3B38 JUMPI DUP5 DUP10 ADD MLOAD DUP3 SSTORE PUSH1 0x1 DUP3 ADD SWAP2 POP PUSH1 0x20 DUP6 ADD SWAP5 POP PUSH1 0x20 DUP2 ADD SWAP1 POP PUSH2 0x3B13 JUMP JUMPDEST DUP7 DUP4 LT ISZERO PUSH2 0x3B55 JUMPI DUP5 DUP10 ADD MLOAD PUSH2 0x3B51 PUSH1 0x1F DUP10 AND DUP3 PUSH2 0x3A5E JUMP JUMPDEST DUP4 SSTORE POP JUMPDEST PUSH1 0x1 PUSH1 0x2 DUP9 MUL ADD DUP9 SSTORE POP POP POP JUMPDEST POP POP POP POP POP POP JUMP JUMPDEST PUSH32 0x4E487B7100000000000000000000000000000000000000000000000000000000 PUSH1 0x0 MSTORE PUSH1 0x11 PUSH1 0x4 MSTORE PUSH1 0x24 PUSH1 0x0 REVERT JUMPDEST PUSH1 0x0 PUSH2 0x3BA4 DUP3 PUSH2 0x2DD1 JUMP JUMPDEST SWAP2 POP PUSH32 0xFFFFFFFFFFFFFFFFFFFFFFFFFFFFFFFFFFFFFFFFFFFFFFFFFFFFFFFFFFFFFFFF DUP3 SUB PUSH2 0x3BD6 JUMPI PUSH2 0x3BD5 PUSH2 0x3B6A JUMP JUMPDEST JUMPDEST PUSH1 0x1 DUP3 ADD SWAP1 POP SWAP2 SWAP1 POP JUMP JUMPDEST PUSH32 0x596F7520617265206E6F7420617574686F72697A656420746F20616464207661 PUSH1 0x0 DUP3 ADD MSTORE PUSH32 0x6C696461746F7273000000000000000000000000000000000000000000000000 PUSH1 0x20 DUP3 ADD MSTORE POP JUMP JUMPDEST PUSH1 0x0 PUSH2 0x3C3D PUSH1 0x28 DUP4 PUSH2 0x2E9B JUMP JUMPDEST SWAP2 POP PUSH2 0x3C48 DUP3 PUSH2 0x3BE1 JUMP JUMPDEST PUSH1 0x40 DUP3 ADD SWAP1 POP SWAP2 SWAP1 POP JUMP JUMPDEST PUSH1 0x0 PUSH1 0x20 DUP3 ADD SWAP1 POP DUP2 DUP2 SUB PUSH1 0x0 DUP4 ADD MSTORE PUSH2 0x3C6C DUP2 PUSH2 0x3C30 JUMP JUMPDEST SWAP1 POP SWAP2 SWAP1 POP JUMP JUMPDEST PUSH32 0x50726F6A65637420697320616C72656164792061637469766500000000000000 PUSH1 0x0 DUP3 ADD MSTORE POP JUMP JUMPDEST PUSH1 0x0 PUSH2 0x3CA9 PUSH1 0x19 DUP4 PUSH2 0x2E9B JUMP JUMPDEST SWAP2 POP PUSH2 0x3CB4 DUP3 PUSH2 0x3C73 JUMP JUMPDEST PUSH1 0x20 DUP3 ADD SWAP1 POP SWAP2 SWAP1 POP JUMP JUMPDEST PUSH1 0x0 PUSH1 0x20 DUP3 ADD SWAP1 POP DUP2 DUP2 SUB PUSH1 0x0 DUP4 ADD MSTORE PUSH2 0x3CD8 DUP2 PUSH2 0x3C9C JUMP JUMPDEST SWAP1 POP SWAP2 SWAP1 POP JUMP JUMPDEST PUSH32 0x4E487B7100000000000000000000000000000000000000000000000000000000 PUSH1 0x0 MSTORE PUSH1 0x32 PUSH1 0x4 MSTORE PUSH1 0x24 PUSH1 0x0 REVERT JUMPDEST PUSH32 0x56616C696461746F7220616C7265616479206164646564000000000000000000 PUSH1 0x0 DUP3 ADD MSTORE POP JUMP JUMPDEST PUSH1 0x0 PUSH2 0x3D44 PUSH1 0x17 DUP4 PUSH2 0x2E9B JUMP JUMPDEST SWAP2 POP PUSH2 0x3D4F DUP3 PUSH2 0x3D0E JUMP JUMPDEST PUSH1 0x20 DUP3 ADD SWAP1 POP SWAP2 SWAP1 POP JUMP JUMPDEST PUSH1 0x0 PUSH1 0x20 DUP3 ADD SWAP1 POP DUP2 DUP2 SUB PUSH1 0x0 DUP4 ADD MSTORE PUSH2 0x3D73 DUP2 PUSH2 0x3D37 JUMP JUMPDEST SWAP1 POP SWAP2 SWAP1 POP JUMP JUMPDEST PUSH32 0x596F7520617265206E6F7420617574686F72697A656420746F2061646420636F PUSH1 0x0 DUP3 ADD MSTORE PUSH32 0x6E7472696275746F727300000000000000000000000000000000000000000000 PUSH1 0x20 DUP3 ADD MSTORE POP JUMP JUMPDEST PUSH1 0x0 PUSH2 0x3DD6 PUSH1 0x2A DUP4 PUSH2 0x2E9B JUMP JUMPDEST SWAP2 POP PUSH2 0x3DE1 DUP3 PUSH2 0x3D7A JUMP JUMPDEST PUSH1 0x40 DUP3 ADD SWAP1 POP SWAP2 SWAP1 POP JUMP JUMPDEST PUSH1 0x0 PUSH1 0x20 DUP3 ADD SWAP1 POP DUP2 DUP2 SUB PUSH1 0x0 DUP4 ADD MSTORE PUSH2 0x3E05 DUP2 PUSH2 0x3DC9 JUMP JUMPDEST SWAP1 POP SWAP2 SWAP1 POP JUMP JUMPDEST PUSH32 0x436F6E7472696275746F7220616C726561647920616464656400000000000000 PUSH1 0x0 DUP3 ADD MSTORE POP JUMP JUMPDEST PUSH1 0x0 PUSH2 0x3E42 PUSH1 0x19 DUP4 PUSH2 0x2E9B JUMP JUMPDEST SWAP2 POP PUSH2 0x3E4D DUP3 PUSH2 0x3E0C JUMP JUMPDEST PUSH1 0x20 DUP3 ADD SWAP1 POP SWAP2 SWAP1 POP JUMP JUMPDEST PUSH1 0x0 PUSH1 0x20 DUP3 ADD SWAP1 POP DUP2 DUP2 SUB PUSH1 0x0 DUP4 ADD MSTORE PUSH2 0x3E71 DUP2 PUSH2 0x3E35 JUMP JUMPDEST SWAP1 POP SWAP2 SWAP1 POP JUMP JUMPDEST PUSH32 0x50726F6A656374206973206E6F74206163746976650000000000000000000000 PUSH1 0x0 DUP3 ADD MSTORE POP JUMP JUMPDEST PUSH1 0x0 PUSH2 0x3EAE PUSH1 0x15 DUP4 PUSH2 0x2E9B JUMP JUMPDEST SWAP2 POP PUSH2 0x3EB9 DUP3 PUSH2 0x3E78 JUMP JUMPDEST PUSH1 0x20 DUP3 ADD SWAP1 POP SWAP2 SWAP1 POP JUMP JUMPDEST PUSH1 0x0 PUSH1 0x20 DUP3 ADD SWAP1 POP DUP2 DUP2 SUB PUSH1 0x0 DUP4 ADD MSTORE PUSH2 0x3EDD DUP2 PUSH2 0x3EA1 JUMP JUMPDEST SWAP1 POP SWAP2 SWAP1 POP JUMP JUMPDEST PUSH32 0x44697362757273656D656E74206461746520686173206E6F74206265656E2072 PUSH1 0x0 DUP3 ADD MSTORE PUSH32 0x6561636865640000000000000000000000000000000000000000000000000000 PUSH1 0x20 DUP3 ADD MSTORE POP JUMP JUMPDEST PUSH1 0x0 PUSH2 0x3F40 PUSH1 0x26 DUP4 PUSH2 0x2E9B JUMP JUMPDEST SWAP2 POP PUSH2 0x3F4B DUP3 PUSH2 0x3EE4 JUMP JUMPDEST PUSH1 0x40 DUP3 ADD SWAP1 POP SWAP2 SWAP1 POP JUMP JUMPDEST PUSH1 0x0 PUSH1 0x20 DUP3 ADD SWAP1 POP DUP2 DUP2 SUB PUSH1 0x0 DUP4 ADD MSTORE PUSH2 0x3F6F DUP2 PUSH2 0x3F33 JUMP JUMPDEST SWAP1 POP SWAP2 SWAP1 POP JUMP JUMPDEST PUSH32 0x596F7520617265206E6F7420617574686F72697A656420746F20636F6C6C6563 PUSH1 0x0 DUP3 ADD MSTORE PUSH32 0x7420612072657761726400000000000000000000000000000000000000000000 PUSH1 0x20 DUP3 ADD MSTORE POP JUMP JUMPDEST PUSH1 0x0 PUSH2 0x3FD2 PUSH1 0x2A DUP4 PUSH2 0x2E9B JUMP JUMPDEST SWAP2 POP PUSH2 0x3FDD DUP3 PUSH2 0x3F76 JUMP JUMPDEST PUSH1 0x40 DUP3 ADD SWAP1 POP SWAP2 SWAP1 POP JUMP JUMPDEST PUSH1 0x0 PUSH1 0x20 DUP3 ADD SWAP1 POP DUP2 DUP2 SUB PUSH1 0x0 DUP4 ADD MSTORE PUSH2 0x4001 DUP2 PUSH2 0x3FC5 JUMP JUMPDEST SWAP1 POP SWAP2 SWAP1 POP JUMP JUMPDEST PUSH32 0x52657761726420616C726561647920636F6C6C65637465640000000000000000 PUSH1 0x0 DUP3 ADD MSTORE POP JUMP JUMPDEST PUSH1 0x0 PUSH2 0x403E PUSH1 0x18 DUP4 PUSH2 0x2E9B JUMP JUMPDEST SWAP2 POP PUSH2 0x4049 DUP3 PUSH2 0x4008 JUMP JUMPDEST PUSH1 0x20 DUP3 ADD SWAP1 POP SWAP2 SWAP1 POP JUMP JUMPDEST PUSH1 0x0 PUSH1 0x20 DUP3 ADD SWAP1 POP DUP2 DUP2 SUB PUSH1 0x0 DUP4 ADD MSTORE PUSH2 0x406D DUP2 PUSH2 0x4031 JUMP JUMPDEST SWAP1 POP SWAP2 SWAP1 POP JUMP JUMPDEST PUSH1 0x0 PUSH2 0x407F DUP3 PUSH2 0x2DD1 JUMP JUMPDEST SWAP2 POP PUSH2 0x408A DUP4 PUSH2 0x2DD1 JUMP JUMPDEST SWAP3 POP DUP3 DUP3 MUL PUSH2 0x4098 DUP2 PUSH2 0x2DD1 JUMP JUMPDEST SWAP2 POP DUP3 DUP3 DIV DUP5 EQ DUP4 ISZERO OR PUSH2 0x40AF JUMPI PUSH2 0x40AE PUSH2 0x3B6A JUMP JUMPDEST JUMPDEST POP SWAP3 SWAP2 POP POP JUMP JUMPDEST PUSH32 0x4E487B7100000000000000000000000000000000000000000000000000000000 PUSH1 0x0 MSTORE PUSH1 0x12 PUSH1 0x4 MSTORE PUSH1 0x24 PUSH1 0x0 REVERT JUMPDEST PUSH1 0x0 PUSH2 0x40F0 DUP3 PUSH2 0x2DD1 JUMP JUMPDEST SWAP2 POP PUSH2 0x40FB DUP4 PUSH2 0x2DD1 JUMP JUMPDEST SWAP3 POP DUP3 PUSH2 0x410B JUMPI PUSH2 0x410A PUSH2 0x40B6 JUMP JUMPDEST JUMPDEST DUP3 DUP3 DIV SWAP1 POP SWAP3 SWAP2 POP POP JUMP JUMPDEST PUSH1 0x0 PUSH1 0x40 DUP3 ADD SWAP1 POP PUSH2 0x412B PUSH1 0x0 DUP4 ADD DUP6 PUSH2 0x2E81 JUMP JUMPDEST PUSH2 0x4138 PUSH1 0x20 DUP4 ADD DUP5 PUSH2 0x2F7F JUMP JUMPDEST SWAP4 SWAP3 POP POP POP JUMP JUMPDEST PUSH2 0x4148 DUP2 PUSH2 0x2E34 JUMP JUMPDEST DUP2 EQ PUSH2 0x4153 JUMPI PUSH1 0x0 DUP1 REVERT JUMPDEST POP JUMP JUMPDEST PUSH1 0x0 DUP2 MLOAD SWAP1 POP PUSH2 0x4165 DUP2 PUSH2 0x413F JUMP JUMPDEST SWAP3 SWAP2 POP POP JUMP JUMPDEST PUSH1 0x0 PUSH1 0x20 DUP3 DUP5 SUB SLT ISZERO PUSH2 0x4181 JUMPI PUSH2 0x4180 PUSH2 0x2DC7 JUMP JUMPDEST JUMPDEST PUSH1 0x0 PUSH2 0x418F DUP5 DUP3 DUP6 ADD PUSH2 0x4156 JUMP JUMPDEST SWAP2 POP POP SWAP3 SWAP2 POP POP JUMP JUMPDEST PUSH32 0x4E6F207265776172640000000000000000000000000000000000000000000000 PUSH1 0x0 DUP3 ADD MSTORE POP JUMP JUMPDEST PUSH1 0x0 PUSH2 0x41CE PUSH1 0x9 DUP4 PUSH2 0x2E9B JUMP JUMPDEST SWAP2 POP PUSH2 0x41D9 DUP3 PUSH2 0x4198 JUMP JUMPDEST PUSH1 0x20 DUP3 ADD SWAP1 POP SWAP2 SWAP1 POP JUMP JUMPDEST PUSH1 0x0 PUSH1 0x20 DUP3 ADD SWAP1 POP DUP2 DUP2 SUB PUSH1 0x0 DUP4 ADD MSTORE PUSH2 0x41FD DUP2 PUSH2 0x41C1 JUMP JUMPDEST SWAP1 POP SWAP2 SWAP1 POP JUMP JUMPDEST PUSH32 0x56616C69646174696F6E20636F6D6D69746D656E7420646561646C696E652068 PUSH1 0x0 DUP3 ADD MSTORE PUSH32 0x6173207061737365640000000000000000000000000000000000000000000000 PUSH1 0x20 DUP3 ADD MSTORE POP JUMP JUMPDEST PUSH1 0x0 PUSH2 0x4260 PUSH1 0x29 DUP4 PUSH2 0x2E9B JUMP JUMPDEST SWAP2 POP PUSH2 0x426B DUP3 PUSH2 0x4204 JUMP JUMPDEST PUSH1 0x40 DUP3 ADD SWAP1 POP SWAP2 SWAP1 POP JUMP JUMPDEST PUSH1 0x0 PUSH1 0x20 DUP3 ADD SWAP1 POP DUP2 DUP2 SUB PUSH1 0x0 DUP4 ADD MSTORE PUSH2 0x428F DUP2 PUSH2 0x4253 JUMP JUMPDEST SWAP1 POP SWAP2 SWAP1 POP JUMP JUMPDEST PUSH32 0x596F7520617265206E6F7420617574686F72697A656420746F20636F6D6D6974 PUSH1 0x0 DUP3 ADD MSTORE PUSH32 0x20612076616C69646174696F6E00000000000000000000000000000000000000 PUSH1 0x20 DUP3 ADD MSTORE POP JUMP JUMPDEST PUSH1 0x0 PUSH2 0x42F2 PUSH1 0x2D DUP4 PUSH2 0x2E9B JUMP JUMPDEST SWAP2 POP PUSH2 0x42FD DUP3 PUSH2 0x4296 JUMP JUMPDEST PUSH1 0x40 DUP3 ADD SWAP1 POP SWAP2 SWAP1 POP JUMP JUMPDEST PUSH1 0x0 PUSH1 0x20 DUP3 ADD SWAP1 POP DUP2 DUP2 SUB PUSH1 0x0 DUP4 ADD MSTORE PUSH2 0x4321 DUP2 PUSH2 0x42E5 JUMP JUMPDEST SWAP1 POP SWAP2 SWAP1 POP JUMP JUMPDEST PUSH32 0x4E756D626572206F6620636F6D6D69746D656E7473206D757374206D61746368 PUSH1 0x0 DUP3 ADD MSTORE PUSH32 0x206E756D626572206F6620636F6E7472696275746F7273000000000000000000 PUSH1 0x20 DUP3 ADD MSTORE POP JUMP JUMPDEST PUSH1 0x0 PUSH2 0x4384 PUSH1 0x37 DUP4 PUSH2 0x2E9B JUMP JUMPDEST SWAP2 POP PUSH2 0x438F DUP3 PUSH2 0x4328 JUMP JUMPDEST PUSH1 0x40 DUP3 ADD SWAP1 POP SWAP2 SWAP1 POP JUMP JUMPDEST PUSH1 0x0 PUSH1 0x20 DUP3 ADD SWAP1 POP DUP2 DUP2 SUB PUSH1 0x0 DUP4 ADD MSTORE PUSH2 0x43B3 DUP2 PUSH2 0x4377 JUMP JUMPDEST SWAP1 POP SWAP2 SWAP1 POP JUMP JUMPDEST PUSH32 0x50726F6A6563742068617320616C726561647920737461727465640000000000 PUSH1 0x0 DUP3 ADD MSTORE POP JUMP JUMPDEST PUSH1 0x0 PUSH2 0x43F0 PUSH1 0x1B DUP4 PUSH2 0x2E9B JUMP JUMPDEST SWAP2 POP PUSH2 0x43FB DUP3 PUSH2 0x43BA JUMP JUMPDEST PUSH1 0x20 DUP3 ADD SWAP1 POP SWAP2 SWAP1 POP JUMP JUMPDEST PUSH1 0x0 PUSH1 0x20 DUP3 ADD SWAP1 POP DUP2 DUP2 SUB PUSH1 0x0 DUP4 ADD MSTORE PUSH2 0x441F DUP2 PUSH2 0x43E3 JUMP JUMPDEST SWAP1 POP SWAP2 SWAP1 POP JUMP JUMPDEST PUSH32 0x596F7520617265206E6F7420617574686F72697A656420746F20737461727420 PUSH1 0x0 DUP3 ADD MSTORE PUSH32 0x7468652070726F6A656374000000000000000000000000000000000000000000 PUSH1 0x20 DUP3 ADD MSTORE POP JUMP JUMPDEST PUSH1 0x0 PUSH2 0x4482 PUSH1 0x2B DUP4 PUSH2 0x2E9B JUMP JUMPDEST SWAP2 POP PUSH2 0x448D DUP3 PUSH2 0x4426 JUMP JUMPDEST PUSH1 0x40 DUP3 ADD SWAP1 POP SWAP2 SWAP1 POP JUMP JUMPDEST PUSH1 0x0 PUSH1 0x20 DUP3 ADD SWAP1 POP DUP2 DUP2 SUB PUSH1 0x0 DUP4 ADD MSTORE PUSH2 0x44B1 DUP2 PUSH2 0x4475 JUMP JUMPDEST SWAP1 POP SWAP2 SWAP1 POP JUMP JUMPDEST PUSH32 0x4174206C65617374206F6E652076616C696461746F7220697320726571756972 PUSH1 0x0 DUP3 ADD MSTORE PUSH32 0x6564000000000000000000000000000000000000000000000000000000000000 PUSH1 0x20 DUP3 ADD MSTORE POP JUMP JUMPDEST PUSH1 0x0 PUSH2 0x4514 PUSH1 0x22 DUP4 PUSH2 0x2E9B JUMP JUMPDEST SWAP2 POP PUSH2 0x451F DUP3 PUSH2 0x44B8 JUMP JUMPDEST PUSH1 0x40 DUP3 ADD SWAP1 POP SWAP2 SWAP1 POP JUMP JUMPDEST PUSH1 0x0 PUSH1 0x20 DUP3 ADD SWAP1 POP DUP2 DUP2 SUB PUSH1 0x0 DUP4 ADD MSTORE PUSH2 0x4543 DUP2 PUSH2 0x4507 JUMP JUMPDEST SWAP1 POP SWAP2 SWAP1 POP JUMP JUMPDEST PUSH32 0x4174206C65617374206F6E6520636F6E7472696275746F722069732072657175 PUSH1 0x0 DUP3 ADD MSTORE PUSH32 0x6972656400000000000000000000000000000000000000000000000000000000 PUSH1 0x20 DUP3 ADD MSTORE POP JUMP JUMPDEST PUSH1 0x0 PUSH2 0x45A6 PUSH1 0x24 DUP4 PUSH2 0x2E9B JUMP JUMPDEST SWAP2 POP PUSH2 0x45B1 DUP3 PUSH2 0x454A JUMP JUMPDEST PUSH1 0x40 DUP3 ADD SWAP1 POP SWAP2 SWAP1 POP JUMP JUMPDEST PUSH1 0x0 PUSH1 0x20 DUP3 ADD SWAP1 POP DUP2 DUP2 SUB PUSH1 0x0 DUP4 ADD MSTORE PUSH2 0x45D5 DUP2 PUSH2 0x4599 JUMP JUMPDEST SWAP1 POP SWAP2 SWAP1 POP JUMP JUMPDEST PUSH1 0x0 PUSH2 0x45E7 DUP3 PUSH2 0x2DD1 JUMP JUMPDEST SWAP2 POP PUSH2 0x45F2 DUP4 PUSH2 0x2DD1 JUMP JUMPDEST SWAP3 POP DUP3 DUP3 ADD SWAP1 POP DUP1 DUP3 GT ISZERO PUSH2 0x460A JUMPI PUSH2 0x4609 PUSH2 0x3B6A JUMP JUMPDEST JUMPDEST SWAP3 SWAP2 POP POP JUMP JUMPDEST PUSH1 0x0 DUP2 MLOAD SWAP1 POP PUSH2 0x461F DUP2 PUSH2 0x2DDB JUMP JUMPDEST SWAP3 SWAP2 POP POP JUMP JUMPDEST PUSH1 0x0 PUSH1 0x20 DUP3 DUP5 SUB SLT ISZERO PUSH2 0x463B JUMPI PUSH2 0x463A PUSH2 0x2DC7 JUMP JUMPDEST JUMPDEST PUSH1 0x0 PUSH2 0x4649 DUP5 DUP3 DUP6 ADD PUSH2 0x4610 JUMP JUMPDEST SWAP2 POP POP SWAP3 SWAP2 POP POP JUMP JUMPDEST PUSH32 0x496E73756666696369656E742062616C616E6365000000000000000000000000 PUSH1 0x0 DUP3 ADD MSTORE POP JUMP JUMPDEST PUSH1 0x0 PUSH2 0x4688 PUSH1 0x14 DUP4 PUSH2 0x2E9B JUMP JUMPDEST SWAP2 POP PUSH2 0x4693 DUP3 PUSH2 0x4652 JUMP JUMPDEST PUSH1 0x20 DUP3 ADD SWAP1 POP SWAP2 SWAP1 POP JUMP JUMPDEST PUSH1 0x0 PUSH1 0x20 DUP3 ADD SWAP1 POP DUP2 DUP2 SUB PUSH1 0x0 DUP4 ADD MSTORE PUSH2 0x46B7 DUP2 PUSH2 0x467B JUMP JUMPDEST SWAP1 POP SWAP2 SWAP1 POP JUMP JUMPDEST PUSH32 0x436F6D6D69746D656E7420646561646C696E65206D75737420626520696E2074 PUSH1 0x0 DUP3 ADD MSTORE PUSH32 0x6865206675747572650000000000000000000000000000000000000000000000 PUSH1 0x20 DUP3 ADD MSTORE POP JUMP JUMPDEST PUSH1 0x0 PUSH2 0x471A PUSH1 0x29 DUP4 PUSH2 0x2E9B JUMP JUMPDEST SWAP2 POP PUSH2 0x4725 DUP3 PUSH2 0x46BE JUMP JUMPDEST PUSH1 0x40 DUP3 ADD SWAP1 POP SWAP2 SWAP1 POP JUMP JUMPDEST PUSH1 0x0 PUSH1 0x20 DUP3 ADD SWAP1 POP DUP2 DUP2 SUB PUSH1 0x0 DUP4 ADD MSTORE PUSH2 0x4749 DUP2 PUSH2 0x470D JUMP JUMPDEST SWAP1 POP SWAP2 SWAP1 POP JUMP JUMPDEST PUSH32 0x52657665616C20646561646C696E65206D75737420626520616674657220636F PUSH1 0x0 DUP3 ADD MSTORE PUSH32 0x6D6D69746D656E7420646561646C696E65000000000000000000000000000000 PUSH1 0x20 DUP3 ADD MSTORE POP JUMP JUMPDEST PUSH1 0x0 PUSH2 0x47AC PUSH1 0x31 DUP4 PUSH2 0x2E9B JUMP JUMPDEST SWAP2 POP PUSH2 0x47B7 DUP3 PUSH2 0x4750 JUMP JUMPDEST PUSH1 0x40 DUP3 ADD SWAP1 POP SWAP2 SWAP1 POP JUMP JUMPDEST PUSH1 0x0 PUSH1 0x20 DUP3 ADD SWAP1 POP DUP2 DUP2 SUB PUSH1 0x0 DUP4 ADD MSTORE PUSH2 0x47DB DUP2 PUSH2 0x479F JUMP JUMPDEST SWAP1 POP SWAP2 SWAP1 POP JUMP JUMPDEST PUSH32 0x52657761726473206D75737420626520706F7369746976650000000000000000 PUSH1 0x0 DUP3 ADD MSTORE POP JUMP JUMPDEST PUSH1 0x0 PUSH2 0x4818 PUSH1 0x18 DUP4 PUSH2 0x2E9B JUMP JUMPDEST SWAP2 POP PUSH2 0x4823 DUP3 PUSH2 0x47E2 JUMP JUMPDEST PUSH1 0x20 DUP3 ADD SWAP1 POP SWAP2 SWAP1 POP JUMP JUMPDEST PUSH1 0x0 PUSH1 0x20 DUP3 ADD SWAP1 POP DUP2 DUP2 SUB PUSH1 0x0 DUP4 ADD MSTORE PUSH2 0x4847 DUP2 PUSH2 0x480B JUMP JUMPDEST SWAP1 POP SWAP2 SWAP1 POP JUMP JUMPDEST PUSH1 0x0 PUSH1 0x60 DUP3 ADD SWAP1 POP PUSH2 0x4863 PUSH1 0x0 DUP4 ADD DUP7 PUSH2 0x2E81 JUMP JUMPDEST PUSH2 0x4870 PUSH1 0x20 DUP4 ADD DUP6 PUSH2 0x2E81 JUMP JUMPDEST PUSH2 0x487D PUSH1 0x40 DUP4 ADD DUP5 PUSH2 0x2F7F JUMP JUMPDEST SWAP5 SWAP4 POP POP POP POP JUMP JUMPDEST PUSH32 0x56616C69646174696F6E2072657665616C20646561646C696E65206861732070 PUSH1 0x0 DUP3 ADD MSTORE PUSH32 0x6173736564000000000000000000000000000000000000000000000000000000 PUSH1 0x20 DUP3 ADD MSTORE POP JUMP JUMPDEST PUSH1 0x0 PUSH2 0x48E1 PUSH1 0x25 DUP4 PUSH2 0x2E9B JUMP JUMPDEST SWAP2 POP PUSH2 0x48EC DUP3 PUSH2 0x4885 JUMP JUMPDEST PUSH1 0x40 DUP3 ADD SWAP1 POP SWAP2 SWAP1 POP JUMP JUMPDEST PUSH1 0x0 PUSH1 0x20 DUP3 ADD SWAP1 POP DUP2 DUP2 SUB PUSH1 0x0 DUP4 ADD MSTORE PUSH2 0x4910 DUP2 PUSH2 0x48D4 JUMP JUMPDEST SWAP1 POP SWAP2 SWAP1 POP JUMP JUMPDEST PUSH32 0x596F7520617265206E6F7420617574686F72697A656420746F2072657665616C PUSH1 0x0 DUP3 ADD MSTORE PUSH32 0x20612076616C69646174696F6E00000000000000000000000000000000000000 PUSH1 0x20 DUP3 ADD MSTORE POP JUMP JUMPDEST PUSH1 0x0 PUSH2 0x4973 PUSH1 0x2D DUP4 PUSH2 0x2E9B JUMP JUMPDEST SWAP2 POP PUSH2 0x497E DUP3 PUSH2 0x4917 JUMP JUMPDEST PUSH1 0x40 DUP3 ADD SWAP1 POP SWAP2 SWAP1 POP JUMP JUMPDEST PUSH1 0x0 PUSH1 0x20 DUP3 ADD SWAP1 POP DUP2 DUP2 SUB PUSH1 0x0 DUP4 ADD MSTORE PUSH2 0x49A2 DUP2 PUSH2 0x4966 JUMP JUMPDEST SWAP1 POP SWAP2 SWAP1 POP JUMP JUMPDEST PUSH32 0x496E76616C696420696E70757400000000000000000000000000000000000000 PUSH1 0x0 DUP3 ADD MSTORE POP JUMP JUMPDEST PUSH1 0x0 PUSH2 0x49DF PUSH1 0xD DUP4 PUSH2 0x2E9B JUMP JUMPDEST SWAP2 POP PUSH2 0x49EA DUP3 PUSH2 0x49A9 JUMP JUMPDEST PUSH1 0x20 DUP3 ADD SWAP1 POP SWAP2 SWAP1 POP JUMP JUMPDEST PUSH1 0x0 PUSH1 0x20 DUP3 ADD SWAP1 POP DUP2 DUP2 SUB PUSH1 0x0 DUP4 ADD MSTORE PUSH2 0x4A0E DUP2 PUSH2 0x49D2 JUMP JUMPDEST SWAP1 POP SWAP2 SWAP1 POP JUMP JUMPDEST PUSH32 0x4E6F20636F6D6D69746D656E7420666F756E6400000000000000000000000000 PUSH1 0x0 DUP3 ADD MSTORE POP JUMP JUMPDEST PUSH1 0x0 PUSH2 0x4A4B PUSH1 0x13 DUP4 PUSH2 0x2E9B JUMP JUMPDEST SWAP2 POP PUSH2 0x4A56 DUP3 PUSH2 0x4A15 JUMP JUMPDEST PUSH1 0x20 DUP3 ADD SWAP1 POP SWAP2 SWAP1 POP JUMP JUMPDEST PUSH1 0x0 PUSH1 0x20 DUP3 ADD SWAP1 POP DUP2 DUP2 SUB PUSH1 0x0 DUP4 ADD MSTORE PUSH2 0x4A7A DUP2 PUSH2 0x4A3E JUMP JUMPDEST SWAP1 POP SWAP2 SWAP1 POP JUMP JUMPDEST PUSH32 0x53636F726520616C72656164792072657665616C656400000000000000000000 PUSH1 0x0 DUP3 ADD MSTORE POP JUMP JUMPDEST PUSH1 0x0 PUSH2 0x4AB7 PUSH1 0x16 DUP4 PUSH2 0x2E9B JUMP JUMPDEST SWAP2 POP PUSH2 0x4AC2 DUP3 PUSH2 0x4A81 JUMP JUMPDEST PUSH1 0x20 DUP3 ADD SWAP1 POP SWAP2 SWAP1 POP JUMP JUMPDEST PUSH1 0x0 PUSH1 0x20 DUP3 ADD SWAP1 POP DUP2 DUP2 SUB PUSH1 0x0 DUP4 ADD MSTORE PUSH2 0x4AE6 DUP2 PUSH2 0x4AAA JUMP JUMPDEST SWAP1 POP SWAP2 SWAP1 POP JUMP JUMPDEST PUSH32 0x496E76616C69642073636F726500000000000000000000000000000000000000 PUSH1 0x0 DUP3 ADD MSTORE POP JUMP JUMPDEST PUSH1 0x0 PUSH2 0x4B23 PUSH1 0xD DUP4 PUSH2 0x2E9B JUMP JUMPDEST SWAP2 POP PUSH2 0x4B2E DUP3 PUSH2 0x4AED JUMP JUMPDEST PUSH1 0x20 DUP3 ADD SWAP1 POP SWAP2 SWAP1 POP JUMP JUMPDEST PUSH1 0x0 PUSH1 0x20 DUP3 ADD SWAP1 POP DUP2 DUP2 SUB PUSH1 0x0 DUP4 ADD MSTORE PUSH2 0x4B52 DUP2 PUSH2 0x4B16 JUMP JUMPDEST SWAP1 POP SWAP2 SWAP1 POP JUMP JUMPDEST PUSH32 0x496E76616C696420636F6E7472696275746F7200000000000000000000000000 PUSH1 0x0 DUP3 ADD MSTORE POP JUMP JUMPDEST PUSH1 0x0 PUSH2 0x4B8F PUSH1 0x13 DUP4 PUSH2 0x2E9B JUMP JUMPDEST SWAP2 POP PUSH2 0x4B9A DUP3 PUSH2 0x4B59 JUMP JUMPDEST PUSH1 0x20 DUP3 ADD SWAP1 POP SWAP2 SWAP1 POP JUMP JUMPDEST PUSH1 0x0 PUSH1 0x20 DUP3 ADD SWAP1 POP DUP2 DUP2 SUB PUSH1 0x0 DUP4 ADD MSTORE PUSH2 0x4BBE DUP2 PUSH2 0x4B82 JUMP JUMPDEST SWAP1 POP SWAP2 SWAP1 POP JUMP JUMPDEST PUSH32 0x496E76616C69642072657665616C000000000000000000000000000000000000 PUSH1 0x0 DUP3 ADD MSTORE POP JUMP JUMPDEST PUSH1 0x0 PUSH2 0x4BFB PUSH1 0xE DUP4 PUSH2 0x2E9B JUMP JUMPDEST SWAP2 POP PUSH2 0x4C06 DUP3 PUSH2 0x4BC5 JUMP JUMPDEST PUSH1 0x20 DUP3 ADD SWAP1 POP SWAP2 SWAP1 POP JUMP JUMPDEST PUSH1 0x0 PUSH1 0x20 DUP3 ADD SWAP1 POP DUP2 DUP2 SUB PUSH1 0x0 DUP4 ADD MSTORE PUSH2 0x4C2A DUP2 PUSH2 0x4BEE JUMP JUMPDEST SWAP1 POP SWAP2 SWAP1 POP JUMP JUMPDEST PUSH1 0x0 DUP2 SWAP1 POP SWAP2 SWAP1 POP JUMP JUMPDEST PUSH2 0x4C4C PUSH2 0x4C47 DUP3 PUSH2 0x33BF JUMP JUMPDEST PUSH2 0x4C31 JUMP JUMPDEST DUP3 MSTORE POP POP JUMP JUMPDEST PUSH1 0x0 DUP2 SWAP1 POP SWAP2 SWAP1 POP JUMP JUMPDEST PUSH2 0x4C6D PUSH2 0x4C68 DUP3 PUSH2 0x2DD1 JUMP JUMPDEST PUSH2 0x4C52 JUMP JUMPDEST DUP3 MSTORE POP POP JUMP JUMPDEST PUSH1 0x0 PUSH2 0x4C7F DUP3 DUP6 PUSH2 0x4C3B JUMP JUMPDEST PUSH1 0x20 DUP3 ADD SWAP2 POP PUSH2 0x4C8F DUP3 DUP5 PUSH2 0x4C5C JUMP JUMPDEST PUSH1 0x20 DUP3 ADD SWAP2 POP DUP2 SWAP1 POP SWAP4 SWAP3 POP POP POP JUMP INVALID LOG2 PUSH5 0x6970667358 0x22 SLT KECCAK256 PUSH22 0x7FE8EB995252E70E2E4089587A93A7A8CCBAD77E5351 DUP2 OR BALANCE STATICCALL PUSH25 0xA336239364736F6C634300081C003300000000000000000000 "
        },
        "methodIdentifiers": {
          "MAX_SCORE()": "27ff6223",
          "addContributors(uint256,address[])": "42f6a961",
          "addValidators(uint256,address[])": "2e85d430",
          "collectContributorReward(uint256)": "8cdc341e",
          "collectValidatorReward(uint256)": "59b41437",
          "collectedContributorReward(uint256,address)": "e18d10ea",
          "collectedValidatorReward(uint256,address)": "1dd8fe41",
          "commitValidations(uint256,address[],bytes32[])": "8eabe5e4",
          "contributorNumScores(uint256,address)": "f5c6d103",
          "contributorTotalScore(uint256,address)": "bf0529b9",
          "createProject(string)": "15ee4df1",
          "getContributor(uint256,uint256)": "44a982e7",
          "getProjectsByOwner(address)": "9d9cc2fe",
          "getValidator(uint256,uint256)": "63b4118f",
          "isContributor(uint256,address)": "9eda7d23",
          "isValidator(uint256,address)": "23f2a73f",
          "numSuccessfulValidations(uint256,address)": "ce14f79f",
          "projectCount()": "36fbad26",
          "projectInfo(uint256)": "c9acbcf1",
          "projects(uint256)": "107046bd",
          "revealValidations(uint256,address[],bytes32[],uint256[])": "ee8220b4",
          "score(uint256,address,address)": "8d0f30ec",
          "startProject(uint256,address,uint256,uint256,uint256,uint256)": "9168abde",
          "validationCommitment(uint256,address,address)": "6841b431",
          "validationRevealed(uint256,address,address)": "9c539ef4"
        }
      }
    }
  }
}